{
  "contractName": "PadelToken",
  "abi": [
    {
      "inputs": [
        {
          "internalType": "string",
          "name": "name_",
          "type": "string"
        },
        {
          "internalType": "string",
          "name": "symbol_",
          "type": "string"
        },
        {
          "internalType": "uint256",
          "name": "decimals_",
          "type": "uint256"
        },
        {
          "internalType": "uint256",
          "name": "initialBalance_",
          "type": "uint256"
        },
        {
          "internalType": "address payable",
          "name": "feeReceiver_",
          "type": "address"
        }
      ],
      "stateMutability": "payable",
      "type": "constructor",
      "payable": true
    },
    {
      "anonymous": false,
      "inputs": [
        {
          "indexed": true,
          "internalType": "address",
          "name": "owner",
          "type": "address"
        },
        {
          "indexed": true,
          "internalType": "address",
          "name": "spender",
          "type": "address"
        },
        {
          "indexed": false,
          "internalType": "uint256",
          "name": "value",
          "type": "uint256"
        }
      ],
      "name": "Approval",
      "type": "event"
    },
    {
      "anonymous": false,
      "inputs": [
        {
          "indexed": true,
          "internalType": "address",
          "name": "from",
          "type": "address"
        },
        {
          "indexed": false,
          "internalType": "uint256",
          "name": "value",
          "type": "uint256"
        }
      ],
      "name": "Burn",
      "type": "event"
    },
    {
      "anonymous": false,
      "inputs": [
        {
          "indexed": true,
          "internalType": "address",
          "name": "from",
          "type": "address"
        },
        {
          "indexed": true,
          "internalType": "address",
          "name": "to",
          "type": "address"
        },
        {
          "indexed": false,
          "internalType": "uint256",
          "name": "value",
          "type": "uint256"
        }
      ],
      "name": "Transfer",
      "type": "event"
    },
    {
      "inputs": [
        {
          "internalType": "address",
          "name": "owner",
          "type": "address"
        },
        {
          "internalType": "address",
          "name": "spender",
          "type": "address"
        }
      ],
      "name": "allowance",
      "outputs": [
        {
          "internalType": "uint256",
          "name": "",
          "type": "uint256"
        }
      ],
      "stateMutability": "view",
      "type": "function",
      "constant": true
    },
    {
      "inputs": [
        {
          "internalType": "address",
          "name": "spender",
          "type": "address"
        },
        {
          "internalType": "uint256",
          "name": "amount",
          "type": "uint256"
        }
      ],
      "name": "approve",
      "outputs": [
        {
          "internalType": "bool",
          "name": "",
          "type": "bool"
        }
      ],
      "stateMutability": "nonpayable",
      "type": "function"
    },
    {
      "inputs": [
        {
          "internalType": "address",
          "name": "account",
          "type": "address"
        }
      ],
      "name": "balanceOf",
      "outputs": [
        {
          "internalType": "uint256",
          "name": "",
          "type": "uint256"
        }
      ],
      "stateMutability": "view",
      "type": "function",
      "constant": true
    },
    {
      "inputs": [],
      "name": "decimals",
      "outputs": [
        {
          "internalType": "uint256",
          "name": "",
          "type": "uint256"
        }
      ],
      "stateMutability": "view",
      "type": "function",
      "constant": true
    },
    {
      "inputs": [
        {
          "internalType": "address",
          "name": "spender",
          "type": "address"
        },
        {
          "internalType": "uint256",
          "name": "subtractedValue",
          "type": "uint256"
        }
      ],
      "name": "decreaseAllowance",
      "outputs": [
        {
          "internalType": "bool",
          "name": "",
          "type": "bool"
        }
      ],
      "stateMutability": "nonpayable",
      "type": "function"
    },
    {
      "inputs": [
        {
          "internalType": "address",
          "name": "_address",
          "type": "address"
        }
      ],
      "name": "getAllowSell",
      "outputs": [
        {
          "internalType": "uint256",
          "name": "",
          "type": "uint256"
        }
      ],
      "stateMutability": "view",
      "type": "function",
      "constant": true
    },
    {
      "inputs": [
        {
          "internalType": "address",
          "name": "spender",
          "type": "address"
        },
        {
          "internalType": "uint256",
          "name": "addedValue",
          "type": "uint256"
        }
      ],
      "name": "increaseAllowance",
      "outputs": [
        {
          "internalType": "bool",
          "name": "",
          "type": "bool"
        }
      ],
      "stateMutability": "nonpayable",
      "type": "function"
    },
    {
      "inputs": [],
      "name": "name",
      "outputs": [
        {
          "internalType": "string",
          "name": "",
          "type": "string"
        }
      ],
      "stateMutability": "view",
      "type": "function",
      "constant": true
    },
    {
      "inputs": [
        {
          "internalType": "uint256",
          "name": "num",
          "type": "uint256"
        }
      ],
      "name": "setAllowSell",
      "outputs": [],
      "stateMutability": "nonpayable",
      "type": "function"
    },
    {
      "inputs": [],
      "name": "symbol",
      "outputs": [
        {
          "internalType": "string",
          "name": "",
          "type": "string"
        }
      ],
      "stateMutability": "view",
      "type": "function",
      "constant": true
    },
    {
      "inputs": [],
      "name": "totalSupply",
      "outputs": [
        {
          "internalType": "uint256",
          "name": "",
          "type": "uint256"
        }
      ],
      "stateMutability": "view",
      "type": "function",
      "constant": true
    },
    {
      "inputs": [
        {
          "internalType": "address",
          "name": "vendedor",
          "type": "address"
        },
        {
          "internalType": "uint256",
          "name": "amount",
          "type": "uint256"
        }
      ],
      "name": "transfer",
      "outputs": [
        {
          "internalType": "bool",
          "name": "",
          "type": "bool"
        }
      ],
      "stateMutability": "payable",
      "type": "function",
      "payable": true
    },
    {
      "inputs": [
        {
          "internalType": "address",
          "name": "sender",
          "type": "address"
        },
        {
          "internalType": "address",
          "name": "recipient",
          "type": "address"
        },
        {
          "internalType": "uint256",
          "name": "amount",
          "type": "uint256"
        }
      ],
      "name": "transferFrom",
      "outputs": [
        {
          "internalType": "bool",
          "name": "",
          "type": "bool"
        }
      ],
      "stateMutability": "nonpayable",
      "type": "function"
    },
    {
      "inputs": [
        {
          "internalType": "address",
          "name": "jugador2",
          "type": "address"
        },
        {
          "internalType": "address",
          "name": "contratoTorneo",
          "type": "address"
        }
      ],
      "name": "pagarInscripcion",
      "outputs": [],
      "stateMutability": "nonpayable",
      "type": "function"
    },
    {
      "inputs": [],
      "name": "recompensaRegistro",
      "outputs": [],
      "stateMutability": "nonpayable",
      "type": "function"
    },
    {
      "inputs": [
        {
          "internalType": "address",
          "name": "creadorTorneo",
          "type": "address"
        },
        {
          "internalType": "address",
          "name": "jugador1",
          "type": "address"
        },
        {
          "internalType": "address",
          "name": "jugador2",
          "type": "address"
        },
        {
          "internalType": "uint256",
          "name": "porcentajeJugadores",
          "type": "uint256"
        },
        {
          "internalType": "uint256",
          "name": "porcentajeClub",
          "type": "uint256"
        }
      ],
      "name": "recompensaTorneo",
      "outputs": [],
      "stateMutability": "nonpayable",
      "type": "function"
    }
  ],
  "bytecode": "0x60806040526040516200269438038062002694833981810160405281019062000029919062000435565b8484838583600590816200003e91906200073c565b5082600690816200005091906200073c565b5080600a620000609190620009a6565b826200006d9190620009f7565b6003819055506003546000803373ffffffffffffffffffffffffffffffffffffffff1673ffffffffffffffffffffffffffffffffffffffff168152602001908152602001600020819055508060048190555033600760006101000a81548173ffffffffffffffffffffffffffffffffffffffff021916908373ffffffffffffffffffffffffffffffffffffffff1602179055503373ffffffffffffffffffffffffffffffffffffffff16600073ffffffffffffffffffffffffffffffffffffffff167fddf252ad1be2c89b69c2b068fc378daa952ba7f163c4a11628f55a4df523b3ef60035460405162000162919062000a53565b60405180910390a3505050508073ffffffffffffffffffffffffffffffffffffffff166108fc349081150290604051600060405180830381858888f19350505050158015620001b5573d6000803e3d6000fd5b5033600860006101000a81548173ffffffffffffffffffffffffffffffffffffffff021916908373ffffffffffffffffffffffffffffffffffffffff160217905550505050505062000a70565b6000604051905090565b600080fd5b600080fd5b600080fd5b600080fd5b6000601f19601f8301169050919050565b7f4e487b7100000000000000000000000000000000000000000000000000000000600052604160045260246000fd5b6200026b8262000220565b810181811067ffffffffffffffff821117156200028d576200028c62000231565b5b80604052505050565b6000620002a262000202565b9050620002b0828262000260565b919050565b600067ffffffffffffffff821115620002d357620002d262000231565b5b620002de8262000220565b9050602081019050919050565b60005b838110156200030b578082015181840152602081019050620002ee565b60008484015250505050565b60006200032e6200032884620002b5565b62000296565b9050828152602081018484840111156200034d576200034c6200021b565b5b6200035a848285620002eb565b509392505050565b600082601f8301126200037a576200037962000216565b5b81516200038c84826020860162000317565b91505092915050565b6000819050919050565b620003aa8162000395565b8114620003b657600080fd5b50565b600081519050620003ca816200039f565b92915050565b600073ffffffffffffffffffffffffffffffffffffffff82169050919050565b6000620003fd82620003d0565b9050919050565b6200040f81620003f0565b81146200041b57600080fd5b50565b6000815190506200042f8162000404565b92915050565b600080600080600060a086880312156200045457620004536200020c565b5b600086015167ffffffffffffffff81111562000475576200047462000211565b5b620004838882890162000362565b955050602086015167ffffffffffffffff811115620004a757620004a662000211565b5b620004b58882890162000362565b9450506040620004c888828901620003b9565b9350506060620004db88828901620003b9565b9250506080620004ee888289016200041e565b9150509295509295909350565b600081519050919050565b7f4e487b7100000000000000000000000000000000000000000000000000000000600052602260045260246000fd5b600060028204905060018216806200054e57607f821691505b60208210810362000564576200056362000506565b5b50919050565b60008190508160005260206000209050919050565b60006020601f8301049050919050565b600082821b905092915050565b600060088302620005ce7fffffffffffffffffffffffffffffffffffffffffffffffffffffffffffffffff826200058f565b620005da86836200058f565b95508019841693508086168417925050509392505050565b6000819050919050565b60006200061d62000617620006118462000395565b620005f2565b62000395565b9050919050565b6000819050919050565b6200063983620005fc565b62000651620006488262000624565b8484546200059c565b825550505050565b600090565b6200066862000659565b620006758184846200062e565b505050565b5b818110156200069d57620006916000826200065e565b6001810190506200067b565b5050565b601f821115620006ec57620006b6816200056a565b620006c1846200057f565b81016020851015620006d1578190505b620006e9620006e0856200057f565b8301826200067a565b50505b505050565b600082821c905092915050565b60006200071160001984600802620006f1565b1980831691505092915050565b60006200072c8383620006fe565b9150826002028217905092915050565b6200074782620004fb565b67ffffffffffffffff81111562000763576200076262000231565b5b6200076f825462000535565b6200077c828285620006a1565b600060209050601f831160018114620007b457600084156200079f578287015190505b620007ab85826200071e565b8655506200081b565b601f198416620007c4866200056a565b60005b82811015620007ee57848901518255600182019150602085019450602081019050620007c7565b868310156200080e57848901516200080a601f891682620006fe565b8355505b6001600288020188555050505b505050505050565b7f4e487b7100000000000000000000000000000000000000000000000000000000600052601160045260246000fd5b60008160011c9050919050565b6000808291508390505b6001851115620008b15780860481111562000889576200088862000823565b5b6001851615620008995780820291505b8081029050620008a98562000852565b945062000869565b94509492505050565b600082620008cc57600190506200099f565b81620008dc57600090506200099f565b8160018114620008f55760028114620009005762000936565b60019150506200099f565b60ff84111562000915576200091462000823565b5b8360020a9150848211156200092f576200092e62000823565b5b506200099f565b5060208310610133831016604e8410600b8410161715620009705782820a9050838111156200096a576200096962000823565b5b6200099f565b6200097f84848460016200085f565b9250905081840481111562000999576200099862000823565b5b81810290505b9392505050565b6000620009b38262000395565b9150620009c08362000395565b9250620009ef7fffffffffffffffffffffffffffffffffffffffffffffffffffffffffffffffff8484620008ba565b905092915050565b600062000a048262000395565b915062000a118362000395565b925082820262000a218162000395565b9150828204841483151762000a3b5762000a3a62000823565b5b5092915050565b62000a4d8162000395565b82525050565b600060208201905062000a6a600083018462000a42565b92915050565b611c148062000a806000396000f3fe6080604052600436106100f35760003560e01c806395d89b411161008a578063c18cbce911610059578063c18cbce914610359578063dd62ed3e14610382578063e927079b146103bf578063f31a038c146103e8576100f3565b806395d89b4114610284578063a457c2d7146102af578063a9059cbb146102ec578063abdddb521461031c576100f3565b8063313ce567116100c6578063313ce567146101c857806339509351146101f357806370a08231146102305780637c9554461461026d576100f3565b806306fdde03146100f8578063095ea7b31461012357806318160ddd1461016057806323b872dd1461018b575b600080fd5b34801561010457600080fd5b5061010d610411565b60405161011a91906112a0565b60405180910390f35b34801561012f57600080fd5b5061014a6004803603810190610145919061135b565b6104a3565b60405161015791906113b6565b60405180910390f35b34801561016c57600080fd5b506101756104c1565b60405161018291906113e0565b60405180910390f35b34801561019757600080fd5b506101b260048036038101906101ad91906113fb565b6104cb565b6040516101bf91906113b6565b60405180910390f35b3480156101d457600080fd5b506101dd6105cc565b6040516101ea91906113e0565b60405180910390f35b3480156101ff57600080fd5b5061021a6004803603810190610215919061135b565b6105d6565b60405161022791906113b6565b60405180910390f35b34801561023c57600080fd5b506102576004803603810190610252919061144e565b610682565b60405161026491906113e0565b60405180910390f35b34801561027957600080fd5b506102826106ca565b005b34801561029057600080fd5b506102996107df565b6040516102a691906112a0565b60405180910390f35b3480156102bb57600080fd5b506102d660048036038101906102d1919061135b565b610871565b6040516102e391906113b6565b60405180910390f35b6103066004803603810190610301919061135b565b610965565b60405161031391906113b6565b60405180910390f35b34801561032857600080fd5b50610343600480360381019061033e919061144e565b610b88565b60405161035091906113e0565b60405180910390f35b34801561036557600080fd5b50610380600480360381019061037b919061147b565b610bd1565b005b34801561038e57600080fd5b506103a960048036038101906103a4919061147b565b610c54565b6040516103b691906113e0565b60405180910390f35b3480156103cb57600080fd5b506103e660048036038101906103e191906114bb565b610cdb565b005b3480156103f457600080fd5b5061040f600480360381019061040a91906114e8565b610d22565b005b60606005805461042090611592565b80601f016020809104026020016040519081016040528092919081815260200182805461044c90611592565b80156104995780601f1061046e57610100808354040283529160200191610499565b820191906000526020600020905b81548152906001019060200180831161047c57829003601f168201915b5050505050905090565b60006104b76104b0610dcd565b8484610dd5565b6001905092915050565b6000600354905090565b60006104d8848484610f9e565b6000600160008673ffffffffffffffffffffffffffffffffffffffff1673ffffffffffffffffffffffffffffffffffffffff1681526020019081526020016000206000610523610dcd565b73ffffffffffffffffffffffffffffffffffffffff1673ffffffffffffffffffffffffffffffffffffffff168152602001908152602001600020549050828110156105a3576040517f08c379a000000000000000000000000000000000000000000000000000000000815260040161059a90611635565b60405180910390fd5b6105c0856105af610dcd565b85846105bb9190611684565b610dd5565b60019150509392505050565b6000600454905090565b60006106786105e3610dcd565b8484600160006105f1610dcd565b73ffffffffffffffffffffffffffffffffffffffff1673ffffffffffffffffffffffffffffffffffffffff16815260200190815260200160002060008873ffffffffffffffffffffffffffffffffffffffff1673ffffffffffffffffffffffffffffffffffffffff1681526020019081526020016000205461067391906116b8565b610dd5565b6001905092915050565b60008060008373ffffffffffffffffffffffffffffffffffffffff1673ffffffffffffffffffffffffffffffffffffffff168152602001908152602001600020549050919050565b600960003373ffffffffffffffffffffffffffffffffffffffff1673ffffffffffffffffffffffffffffffffffffffff16815260200190815260200160002060009054906101000a900460ff1615610757576040517f08c379a000000000000000000000000000000000000000000000000000000000815260040161074e90611738565b60405180910390fd5b6001600960003373ffffffffffffffffffffffffffffffffffffffff1673ffffffffffffffffffffffffffffffffffffffff16815260200190815260200160002060006101000a81548160ff0219169083151502179055506107dd600860009054906101000a900473ffffffffffffffffffffffffffffffffffffffff1633600a610f9e565b565b6060600680546107ee90611592565b80601f016020809104026020016040519081016040528092919081815260200182805461081a90611592565b80156108675780601f1061083c57610100808354040283529160200191610867565b820191906000526020600020905b81548152906001019060200180831161084a57829003601f168201915b5050505050905090565b60008060016000610880610dcd565b73ffffffffffffffffffffffffffffffffffffffff1673ffffffffffffffffffffffffffffffffffffffff16815260200190815260200160002060008573ffffffffffffffffffffffffffffffffffffffff1673ffffffffffffffffffffffffffffffffffffffff1681526020019081526020016000205490508281101561093d576040517f08c379a0000000000000000000000000000000000000000000000000000000008152600401610934906117a4565b60405180910390fd5b61095a610948610dcd565b8585846109559190611684565b610dd5565b600191505092915050565b600081660246139ca8000061097a91906117c4565b34146109bb576040517f08c379a00000000000000000000000000000000000000000000000000000000081526004016109b290611878565b60405180910390fd5b6000600260008573ffffffffffffffffffffffffffffffffffffffff1673ffffffffffffffffffffffffffffffffffffffff16815260200190815260200160002054905082811015610a42576040517f08c379a0000000000000000000000000000000000000000000000000000000008152600401610a399061190a565b60405180910390fd5b82600260008673ffffffffffffffffffffffffffffffffffffffff1673ffffffffffffffffffffffffffffffffffffffff1681526020019081526020016000206000828254610a919190611684565b925050819055506000600a34610aa79190611959565b9050600760009054906101000a900473ffffffffffffffffffffffffffffffffffffffff1673ffffffffffffffffffffffffffffffffffffffff166108fc829081150290604051600060405180830381858888f19350505050158015610b11573d6000803e3d6000fd5b5060008134610b209190611684565b90508573ffffffffffffffffffffffffffffffffffffffff166108fc829081150290604051600060405180830381858888f19350505050158015610b68573d6000803e3d6000fd5b50610b7b86610b75610dcd565b87610f9e565b6001935050505092915050565b6000600260008373ffffffffffffffffffffffffffffffffffffffff1673ffffffffffffffffffffffffffffffffffffffff168152602001908152602001600020549050919050565b610bdd33826005610f9e565b60008190508073ffffffffffffffffffffffffffffffffffffffff166328841f1933856040518363ffffffff1660e01b8152600401610c1d929190611999565b600060405180830381600087803b158015610c3757600080fd5b505af1158015610c4b573d6000803e3d6000fd5b50505050505050565b6000600160008473ffffffffffffffffffffffffffffffffffffffff1673ffffffffffffffffffffffffffffffffffffffff16815260200190815260200160002060008373ffffffffffffffffffffffffffffffffffffffff1673ffffffffffffffffffffffffffffffffffffffff16815260200190815260200160002054905092915050565b80600260003373ffffffffffffffffffffffffffffffffffffffff1673ffffffffffffffffffffffffffffffffffffffff1681526020019081526020016000208190555050565b6000610d2d33610682565b9050600060648483610d3f91906117c4565b610d499190611959565b9050600060648484610d5b91906117c4565b610d659190611959565b9050610d72338884610f9e565b610d7d338784610f9e565b610d88338983610f9e565b6000610d9333610682565b9050610dc233600860009054906101000a900473ffffffffffffffffffffffffffffffffffffffff1683610f9e565b505050505050505050565b600033905090565b600073ffffffffffffffffffffffffffffffffffffffff168373ffffffffffffffffffffffffffffffffffffffff1603610e44576040517f08c379a0000000000000000000000000000000000000000000000000000000008152600401610e3b90611a0e565b60405180910390fd5b600073ffffffffffffffffffffffffffffffffffffffff168273ffffffffffffffffffffffffffffffffffffffff1603610eb3576040517f08c379a0000000000000000000000000000000000000000000000000000000008152600401610eaa90611a7a565b60405180910390fd5b80600160008573ffffffffffffffffffffffffffffffffffffffff1673ffffffffffffffffffffffffffffffffffffffff16815260200190815260200160002060008473ffffffffffffffffffffffffffffffffffffffff1673ffffffffffffffffffffffffffffffffffffffff168152602001908152602001600020819055508173ffffffffffffffffffffffffffffffffffffffff168373ffffffffffffffffffffffffffffffffffffffff167f8c5be1e5ebec7d5bd14f71427d1e84f3dd0314c0f7b2291e5b200ac8c7c3b92583604051610f9191906113e0565b60405180910390a3505050565b600073ffffffffffffffffffffffffffffffffffffffff168373ffffffffffffffffffffffffffffffffffffffff160361100d576040517f08c379a000000000000000000000000000000000000000000000000000000000815260040161100490611ae6565b60405180910390fd5b600073ffffffffffffffffffffffffffffffffffffffff168273ffffffffffffffffffffffffffffffffffffffff160361107c576040517f08c379a000000000000000000000000000000000000000000000000000000000815260040161107390611b52565b60405180910390fd5b60008060008573ffffffffffffffffffffffffffffffffffffffff1673ffffffffffffffffffffffffffffffffffffffff16815260200190815260200160002054905081811015611102576040517f08c379a00000000000000000000000000000000000000000000000000000000081526004016110f990611bbe565b60405180910390fd5b818161110e9190611684565b6000808673ffffffffffffffffffffffffffffffffffffffff1673ffffffffffffffffffffffffffffffffffffffff16815260200190815260200160002081905550816000808573ffffffffffffffffffffffffffffffffffffffff1673ffffffffffffffffffffffffffffffffffffffff168152602001908152602001600020600082825461119e91906116b8565b925050819055508273ffffffffffffffffffffffffffffffffffffffff168473ffffffffffffffffffffffffffffffffffffffff167fddf252ad1be2c89b69c2b068fc378daa952ba7f163c4a11628f55a4df523b3ef8460405161120291906113e0565b60405180910390a350505050565b600081519050919050565b600082825260208201905092915050565b60005b8381101561124a57808201518184015260208101905061122f565b60008484015250505050565b6000601f19601f8301169050919050565b600061127282611210565b61127c818561121b565b935061128c81856020860161122c565b61129581611256565b840191505092915050565b600060208201905081810360008301526112ba8184611267565b905092915050565b600080fd5b600073ffffffffffffffffffffffffffffffffffffffff82169050919050565b60006112f2826112c7565b9050919050565b611302816112e7565b811461130d57600080fd5b50565b60008135905061131f816112f9565b92915050565b6000819050919050565b61133881611325565b811461134357600080fd5b50565b6000813590506113558161132f565b92915050565b60008060408385031215611372576113716112c2565b5b600061138085828601611310565b925050602061139185828601611346565b9150509250929050565b60008115159050919050565b6113b08161139b565b82525050565b60006020820190506113cb60008301846113a7565b92915050565b6113da81611325565b82525050565b60006020820190506113f560008301846113d1565b92915050565b600080600060608486031215611414576114136112c2565b5b600061142286828701611310565b935050602061143386828701611310565b925050604061144486828701611346565b9150509250925092565b600060208284031215611464576114636112c2565b5b600061147284828501611310565b91505092915050565b60008060408385031215611492576114916112c2565b5b60006114a085828601611310565b92505060206114b185828601611310565b9150509250929050565b6000602082840312156114d1576114d06112c2565b5b60006114df84828501611346565b91505092915050565b600080600080600060a08688031215611504576115036112c2565b5b600061151288828901611310565b955050602061152388828901611310565b945050604061153488828901611310565b935050606061154588828901611346565b925050608061155688828901611346565b9150509295509295909350565b7f4e487b7100000000000000000000000000000000000000000000000000000000600052602260045260246000fd5b600060028204905060018216806115aa57607f821691505b6020821081036115bd576115bc611563565b5b50919050565b7f5472616e7366657220616d6f756e74206578636565647320616c6c6f77616e6360008201527f6500000000000000000000000000000000000000000000000000000000000000602082015250565b600061161f60218361121b565b915061162a826115c3565b604082019050919050565b6000602082019050818103600083015261164e81611612565b9050919050565b7f4e487b7100000000000000000000000000000000000000000000000000000000600052601160045260246000fd5b600061168f82611325565b915061169a83611325565b92508282039050818111156116b2576116b1611655565b5b92915050565b60006116c382611325565b91506116ce83611325565b92508282019050808211156116e6576116e5611655565b5b92915050565b7f456c206a756761646f72207961206861207265676973747261646f0000000000600082015250565b6000611722601b8361121b565b915061172d826116ec565b602082019050919050565b6000602082019050818103600083015261175181611715565b9050919050565b7f44656372656173656420616c6c6f77616e63652062656c6f77207a65726f0000600082015250565b600061178e601e8361121b565b915061179982611758565b602082019050919050565b600060208201905081810360008301526117bd81611781565b9050919050565b60006117cf82611325565b91506117da83611325565b92508282026117e881611325565b915082820484148315176117ff576117fe611655565b5b5092915050565b7f4c612063616e746964616420646520657468657220656e7669616461206e6f2060008201527f657320636f727265637461000000000000000000000000000000000000000000602082015250565b6000611862602b8361121b565b915061186d82611806565b604082019050919050565b6000602082019050818103600083015261189181611855565b9050919050565b7f456c2076656e6465646f72206e6f2061646d697465206c612076656e7461206460008201527f652074616e746f7320746f6b656e730000000000000000000000000000000000602082015250565b60006118f4602f8361121b565b91506118ff82611898565b604082019050919050565b60006020820190508181036000830152611923816118e7565b9050919050565b7f4e487b7100000000000000000000000000000000000000000000000000000000600052601260045260246000fd5b600061196482611325565b915061196f83611325565b92508261197f5761197e61192a565b5b828204905092915050565b611993816112e7565b82525050565b60006040820190506119ae600083018561198a565b6119bb602083018461198a565b9392505050565b7f417070726f76652066726f6d20746865207a65726f2061646472657373000000600082015250565b60006119f8601d8361121b565b9150611a03826119c2565b602082019050919050565b60006020820190508181036000830152611a27816119eb565b9050919050565b7f417070726f766520746f20746865207a65726f20616464726573730000000000600082015250565b6000611a64601b8361121b565b9150611a6f82611a2e565b602082019050919050565b60006020820190508181036000830152611a9381611a57565b9050919050565b7f5472616e736665722066726f6d20746865207a65726f20616464726573730000600082015250565b6000611ad0601e8361121b565b9150611adb82611a9a565b602082019050919050565b60006020820190508181036000830152611aff81611ac3565b9050919050565b7f5472616e7366657220746f20746865207a65726f206164647265737300000000600082015250565b6000611b3c601c8361121b565b9150611b4782611b06565b602082019050919050565b60006020820190508181036000830152611b6b81611b2f565b9050919050565b7f5472616e7366657220616d6f756e7420657863656564732062616c616e636500600082015250565b6000611ba8601f8361121b565b9150611bb382611b72565b602082019050919050565b60006020820190508181036000830152611bd781611b9b565b905091905056fea2646970667358221220948177734c3aa235c61f34d70e58cc593c71492bee732fde571318261c87212364736f6c63430008130033",
  "immutableReferences": {},
  "source": "// SPDX-License-Identifier: GPL-3.0\r\npragma solidity 0.8.19;\r\n\r\n\r\ninterface IERC20 {\r\n   \r\n    function totalSupply() external view returns (uint256);\r\n    function balanceOf(address account) external view returns (uint256);\r\n    function transfer(address vendedor, uint256 amount) payable external returns (bool);\r\n    function allowance(address owner, address spender) external view returns (uint256);\r\n    function approve(address spender, uint256 amount) external returns (bool);\r\n    function transferFrom(address sender, address recipient, uint256 amount) external returns (bool);\r\n    event Transfer(address indexed from, address indexed to, uint256 value);\r\n    event Burn(address indexed from, uint256 value);\r\n    event Approval(address indexed owner, address indexed spender, uint256 value);\r\n}\r\n\r\n\r\npragma solidity 0.8.19;\r\n\r\n\r\ninterface IERC20Metadata is IERC20 {\r\n    function name() external view returns (string memory);\r\n    function symbol() external view returns (string memory);\r\n    function decimals() external view returns (uint256);\r\n}\r\n\r\npragma solidity 0.8.19;\r\n\r\nabstract contract Context {\r\n    function _msgSender() internal view virtual returns (address) {\r\n        return msg.sender;\r\n    }\r\n\r\n    function _msgData() internal view virtual returns (bytes calldata) {\r\n        this; // silence state mutability warning without generating bytecode\r\n        return msg.data;\r\n    }\r\n}\r\n\r\npragma solidity 0.8.19;\r\n\r\n\r\ncontract ERC20 is Context, IERC20, IERC20Metadata {\r\n    mapping (address => uint256) private _balances;\r\n    mapping (address => mapping (address => uint256)) private _allowances;\r\n    mapping (address => uint256) private _allowSell;\r\n    uint256 private _totalSupply;\r\n    uint256 private _decimals;\r\n    string private _name;\r\n    string private _symbol;\r\n    address payable private _owner;\r\n\r\n\r\n\r\n    constructor (string memory name_, string memory symbol_,uint256 initialBalance_,uint256 decimals_) {\r\n        _name = name_;\r\n        _symbol = symbol_;\r\n        _totalSupply = initialBalance_* 10**decimals_;\r\n        _balances[msg.sender] = _totalSupply;\r\n        _decimals = decimals_;\r\n        _owner = payable(msg.sender);\r\n        emit Transfer(address(0), msg.sender, _totalSupply);\r\n    }\r\n\r\n    function name() public view virtual override returns (string memory) {\r\n        return _name;\r\n    }\r\n\r\n    function symbol() public view virtual override returns (string memory) {\r\n        return _symbol;\r\n    }\r\n\r\n    function decimals() public view virtual override returns (uint256) {\r\n        return _decimals;\r\n    }\r\n\r\n    function totalSupply() public view virtual override returns (uint256) {\r\n        return _totalSupply;\r\n    }\r\n\r\n    function balanceOf(address account) public view virtual override returns (uint256) {\r\n        return _balances[account];\r\n    }\r\n\r\n    function transfer(address vendedor, uint256 amount) public payable virtual override returns (bool) { //quien llama a esto es el que quiere comprar tokens\r\n        require(msg.value == 640000000000000 * amount, \"La cantidad de ether enviada no es correcta\"); // aprox 2 euros por token\r\n\r\n        uint256 allowTokensToSell = _allowSell[vendedor];\r\n        require(allowTokensToSell >= amount, \"El vendedor no admite la venta de tantos tokens\");\r\n        \r\n        _allowSell[vendedor] -= amount; // restamos la cantidad de tokens que se han vendido\r\n\r\n        uint256 comision = msg.value / 10; // el 10% de la cantidad recibida\r\n        // Transferimos la comisin a la direccin de la comisin\r\n        _owner.transfer(comision);\r\n\r\n        // Transferimos el resto de los ethers a la direccin de destino\r\n        uint256 montoFinal = msg.value - comision;\r\n        payable(vendedor).transfer(montoFinal);\r\n        _transfer(vendedor, _msgSender(), amount);\r\n        return true;\r\n    }\r\n\r\n    function allowance(address owner, address spender) public view virtual override returns (uint256) {\r\n        return _allowances[owner][spender];\r\n    }\r\n\r\n    function approve(address spender, uint256 amount) public virtual override returns (bool) {\r\n        _approve(_msgSender(), spender, amount);\r\n        return true;\r\n    }\r\n\r\n    function transferFrom(address sender, address recipient, uint256 amount) public virtual override returns (bool) {\r\n        _transfer(sender, recipient, amount);\r\n\r\n        uint256 currentAllowance = _allowances[sender][_msgSender()];\r\n        require(currentAllowance >= amount, \"Transfer amount exceeds allowance\");\r\n        _approve(sender, _msgSender(), currentAllowance - amount);\r\n\r\n        return true;\r\n    }\r\n\r\n    function increaseAllowance(address spender, uint256 addedValue) public virtual returns (bool) {\r\n        _approve(_msgSender(), spender, _allowances[_msgSender()][spender] + addedValue);\r\n        return true;\r\n    }\r\n\r\n   \r\n    function decreaseAllowance(address spender, uint256 subtractedValue) public virtual returns (bool) {\r\n        uint256 currentAllowance = _allowances[_msgSender()][spender];\r\n        require(currentAllowance >= subtractedValue, \"Decreased allowance below zero\");\r\n        _approve(_msgSender(), spender, currentAllowance - subtractedValue);\r\n\r\n        return true;\r\n    }\r\n\r\n\r\n    function _transfer(address sender, address recipient, uint256 amount) internal virtual {\r\n        require(sender != address(0), \"Transfer from the zero address\");\r\n        require(recipient != address(0), \"Transfer to the zero address\");\r\n\r\n        uint256 senderBalance = _balances[sender];\r\n        require(senderBalance >= amount, \"Transfer amount exceeds balance\");\r\n\r\n        _balances[sender] = senderBalance - amount;\r\n        _balances[recipient] += amount;\r\n\r\n        emit Transfer(sender, recipient, amount);\r\n    }\r\n\r\n    function _approve(address owner, address spender, uint256 amount) internal virtual {\r\n        require(owner != address(0), \"Approve from the zero address\");\r\n        require(spender != address(0), \"Approve to the zero address\");\r\n        _allowances[owner][spender] = amount;\r\n        emit Approval(owner, spender, amount);\r\n    }\r\n\r\n    function setAllowSell(uint256 num) public virtual {\r\n        _allowSell[msg.sender] = num;\r\n    }\r\n\r\n    function getAllowSell(address _address) public view virtual returns (uint256) {\r\n        return _allowSell[_address];\r\n    }\r\n\r\n}\r\n\r\npragma solidity ^0.8.19;\r\n\r\nimport \"./Torneo.sol\";\r\n\r\ncontract PadelToken is ERC20 {\r\n\r\n    address owner;\r\n    mapping (address => bool) private recompensa;\r\n\r\n    constructor(\r\n        string memory name_,\r\n        string memory symbol_,\r\n        uint256 decimals_,\r\n        uint256 initialBalance_,\r\n        address payable feeReceiver_\r\n    ) payable ERC20(name_, symbol_,initialBalance_,decimals_) {\r\n        payable(feeReceiver_).transfer(msg.value);\r\n        owner = msg.sender;\r\n    }\r\n\r\n    function pagarInscripcion(address jugador2, address contratoTorneo) public {\r\n        _transfer(msg.sender,contratoTorneo, 5);\r\n        Torneo torneo = Torneo(contratoTorneo);\r\n        torneo.addEquipo(msg.sender, jugador2);\r\n    }\r\n\r\n    function recompensaRegistro() public {\r\n        require(!recompensa[msg.sender], \"El jugador ya ha registrado\");\r\n        recompensa[msg.sender] = true;\r\n        _transfer(owner, msg.sender, 10);\r\n    }\r\n\r\n    function recompensaTorneo(address creadorTorneo, address jugador1, address jugador2, uint porcentajeJugadores, uint porcentajeClub) public {\r\n        //CHECK:\r\n        //revisar seguridad con este metodo ya que lo podrian usar para dar tokens sin obtener mi comision ni pagar por ethers\r\n        uint256 tokens = balanceOf(msg.sender);\r\n\r\n        // Calcular las cantidades a distribuir\r\n        uint256 ganadores = tokens * porcentajeJugadores / 100;\r\n        uint256 club = tokens * porcentajeClub / 100;\r\n\r\n        _transfer(msg.sender, jugador1, ganadores);\r\n        _transfer(msg.sender, jugador2, ganadores);\r\n        _transfer(msg.sender, creadorTorneo, club);\r\n\r\n        uint256 restante = balanceOf(msg.sender);\r\n        _transfer(msg.sender, owner, restante);\r\n    }\r\n}",
  "sourcePath": "C:\\Users\\Coti Hamo\\Desktop\\truffle\\contracts\\PadelToken.sol",
  "compiler": {
    "name": "solc",
    "version": "0.8.19+commit.7dd6d404.Emscripten.clang"
  },
  "schemaVersion": "3.4.16",
  "updatedAt": "2024-05-19T10:51:59.898Z",
  "networkType": "ethereum",
  "devdoc": {
    "kind": "dev",
    "methods": {},
    "version": 1
  },
  "userdoc": {
    "kind": "user",
    "methods": {},
    "version": 1
  }
}