{
  "contractName": "Torneo",
  "abi": [
    {
      "inputs": [
        {
          "internalType": "address",
          "name": "_tokenContract",
          "type": "address"
        },
        {
          "internalType": "string",
          "name": "_nombreTorneo",
          "type": "string"
        },
        {
          "internalType": "string",
          "name": "_fechaInicio",
          "type": "string"
        },
        {
          "internalType": "string",
          "name": "_fechaFin",
          "type": "string"
        }
      ],
      "stateMutability": "nonpayable",
      "type": "constructor"
    },
    {
      "inputs": [],
      "name": "MAX_EQUIPOS",
      "outputs": [
        {
          "internalType": "uint256",
          "name": "",
          "type": "uint256"
        }
      ],
      "stateMutability": "view",
      "type": "function"
    },
    {
      "inputs": [
        {
          "internalType": "uint256",
          "name": "",
          "type": "uint256"
        }
      ],
      "name": "equipos",
      "outputs": [
        {
          "internalType": "uint256",
          "name": "equipoId",
          "type": "uint256"
        },
        {
          "internalType": "address",
          "name": "jugador1",
          "type": "address"
        },
        {
          "internalType": "address",
          "name": "jugador2",
          "type": "address"
        }
      ],
      "stateMutability": "view",
      "type": "function"
    },
    {
      "inputs": [],
      "name": "fechaFin",
      "outputs": [
        {
          "internalType": "string",
          "name": "",
          "type": "string"
        }
      ],
      "stateMutability": "view",
      "type": "function"
    },
    {
      "inputs": [],
      "name": "fechaInicio",
      "outputs": [
        {
          "internalType": "string",
          "name": "",
          "type": "string"
        }
      ],
      "stateMutability": "view",
      "type": "function"
    },
    {
      "inputs": [],
      "name": "nombreTorneo",
      "outputs": [
        {
          "internalType": "string",
          "name": "",
          "type": "string"
        }
      ],
      "stateMutability": "view",
      "type": "function"
    },
    {
      "inputs": [],
      "name": "numeroEquipos",
      "outputs": [
        {
          "internalType": "uint256",
          "name": "",
          "type": "uint256"
        }
      ],
      "stateMutability": "view",
      "type": "function"
    },
    {
      "inputs": [
        {
          "internalType": "uint256",
          "name": "",
          "type": "uint256"
        }
      ],
      "name": "partidas",
      "outputs": [
        {
          "internalType": "uint256",
          "name": "proximaPartidaId",
          "type": "uint256"
        },
        {
          "components": [
            {
              "internalType": "string",
              "name": "ronda",
              "type": "string"
            },
            {
              "internalType": "uint256",
              "name": "equipo1Id",
              "type": "uint256"
            },
            {
              "internalType": "uint256",
              "name": "equipo2Id",
              "type": "uint256"
            },
            {
              "internalType": "string",
              "name": "resultado",
              "type": "string"
            },
            {
              "internalType": "string",
              "name": "horario",
              "type": "string"
            }
          ],
          "internalType": "struct Torneo.Partida",
          "name": "partida",
          "type": "tuple"
        },
        {
          "internalType": "bool",
          "name": "cuadroArriba",
          "type": "bool"
        }
      ],
      "stateMutability": "view",
      "type": "function"
    },
    {
      "inputs": [],
      "name": "totalPartidas",
      "outputs": [
        {
          "internalType": "uint256",
          "name": "",
          "type": "uint256"
        }
      ],
      "stateMutability": "view",
      "type": "function"
    },
    {
      "inputs": [],
      "name": "getFechaInicio",
      "outputs": [
        {
          "internalType": "string",
          "name": "",
          "type": "string"
        }
      ],
      "stateMutability": "view",
      "type": "function"
    },
    {
      "inputs": [],
      "name": "getFechaFin",
      "outputs": [
        {
          "internalType": "string",
          "name": "",
          "type": "string"
        }
      ],
      "stateMutability": "view",
      "type": "function"
    },
    {
      "inputs": [],
      "name": "getNombreTorneo",
      "outputs": [
        {
          "internalType": "string",
          "name": "",
          "type": "string"
        }
      ],
      "stateMutability": "view",
      "type": "function"
    },
    {
      "inputs": [
        {
          "internalType": "uint256",
          "name": "numPartida",
          "type": "uint256"
        }
      ],
      "name": "equiposByPartida",
      "outputs": [
        {
          "internalType": "uint256",
          "name": "",
          "type": "uint256"
        },
        {
          "internalType": "uint256",
          "name": "",
          "type": "uint256"
        },
        {
          "internalType": "string",
          "name": "",
          "type": "string"
        },
        {
          "internalType": "string",
          "name": "",
          "type": "string"
        },
        {
          "internalType": "string",
          "name": "",
          "type": "string"
        }
      ],
      "stateMutability": "view",
      "type": "function"
    },
    {
      "inputs": [],
      "name": "getEquipos",
      "outputs": [
        {
          "components": [
            {
              "internalType": "uint256",
              "name": "equipoId",
              "type": "uint256"
            },
            {
              "internalType": "address",
              "name": "jugador1",
              "type": "address"
            },
            {
              "internalType": "address",
              "name": "jugador2",
              "type": "address"
            }
          ],
          "internalType": "struct Torneo.Equipo[]",
          "name": "",
          "type": "tuple[]"
        }
      ],
      "stateMutability": "view",
      "type": "function"
    },
    {
      "inputs": [
        {
          "internalType": "address",
          "name": "jugador1",
          "type": "address"
        },
        {
          "internalType": "address",
          "name": "jugador2",
          "type": "address"
        }
      ],
      "name": "addEquipo",
      "outputs": [],
      "stateMutability": "nonpayable",
      "type": "function"
    },
    {
      "inputs": [],
      "name": "cerrarInscripciones",
      "outputs": [],
      "stateMutability": "nonpayable",
      "type": "function"
    },
    {
      "inputs": [
        {
          "internalType": "uint256",
          "name": "partida",
          "type": "uint256"
        }
      ],
      "name": "isFinal",
      "outputs": [
        {
          "internalType": "bool",
          "name": "",
          "type": "bool"
        }
      ],
      "stateMutability": "view",
      "type": "function"
    },
    {
      "inputs": [],
      "name": "getPartidas",
      "outputs": [
        {
          "components": [
            {
              "internalType": "uint256",
              "name": "proximaPartidaId",
              "type": "uint256"
            },
            {
              "components": [
                {
                  "internalType": "string",
                  "name": "ronda",
                  "type": "string"
                },
                {
                  "internalType": "uint256",
                  "name": "equipo1Id",
                  "type": "uint256"
                },
                {
                  "internalType": "uint256",
                  "name": "equipo2Id",
                  "type": "uint256"
                },
                {
                  "internalType": "string",
                  "name": "resultado",
                  "type": "string"
                },
                {
                  "internalType": "string",
                  "name": "horario",
                  "type": "string"
                }
              ],
              "internalType": "struct Torneo.Partida",
              "name": "partida",
              "type": "tuple"
            },
            {
              "internalType": "bool",
              "name": "cuadroArriba",
              "type": "bool"
            }
          ],
          "internalType": "struct Torneo.NodoCuadro[]",
          "name": "",
          "type": "tuple[]"
        }
      ],
      "stateMutability": "view",
      "type": "function"
    },
    {
      "inputs": [
        {
          "internalType": "uint256",
          "name": "numPartida",
          "type": "uint256"
        },
        {
          "internalType": "uint256",
          "name": "numEquipoPartidaGanador",
          "type": "uint256"
        },
        {
          "internalType": "string",
          "name": "_resultado",
          "type": "string"
        }
      ],
      "name": "setResultado",
      "outputs": [],
      "stateMutability": "nonpayable",
      "type": "function"
    },
    {
      "inputs": [
        {
          "internalType": "uint256",
          "name": "numPartida",
          "type": "uint256"
        },
        {
          "internalType": "string",
          "name": "_horario",
          "type": "string"
        }
      ],
      "name": "setHorario",
      "outputs": [],
      "stateMutability": "nonpayable",
      "type": "function"
    }
  ],
  "bytecode": "0x60806040523480156200001157600080fd5b5060405162004a1938038062004a19833981810160405281019062000037919062000354565b60006004819055506001600560006101000a81548160ff02191690831515021790555033600260006101000a81548173ffffffffffffffffffffffffffffffffffffffff021916908373ffffffffffffffffffffffffffffffffffffffff16021790555083600160006101000a81548173ffffffffffffffffffffffffffffffffffffffff021916908373ffffffffffffffffffffffffffffffffffffffff160217905550836000806101000a81548173ffffffffffffffffffffffffffffffffffffffff021916908373ffffffffffffffffffffffffffffffffffffffff16021790555082600890816200012d91906200066e565b5081600990816200013f91906200066e565b5080600a90816200015191906200066e565b505050505062000755565b6000604051905090565b600080fd5b600080fd5b600073ffffffffffffffffffffffffffffffffffffffff82169050919050565b60006200019d8262000170565b9050919050565b620001af8162000190565b8114620001bb57600080fd5b50565b600081519050620001cf81620001a4565b92915050565b600080fd5b600080fd5b6000601f19601f8301169050919050565b7f4e487b7100000000000000000000000000000000000000000000000000000000600052604160045260246000fd5b6200022a82620001df565b810181811067ffffffffffffffff821117156200024c576200024b620001f0565b5b80604052505050565b6000620002616200015c565b90506200026f82826200021f565b919050565b600067ffffffffffffffff821115620002925762000291620001f0565b5b6200029d82620001df565b9050602081019050919050565b60005b83811015620002ca578082015181840152602081019050620002ad565b60008484015250505050565b6000620002ed620002e78462000274565b62000255565b9050828152602081018484840111156200030c576200030b620001da565b5b62000319848285620002aa565b509392505050565b600082601f830112620003395762000338620001d5565b5b81516200034b848260208601620002d6565b91505092915050565b6000806000806080858703121562000371576200037062000166565b5b60006200038187828801620001be565b945050602085015167ffffffffffffffff811115620003a557620003a46200016b565b5b620003b38782880162000321565b935050604085015167ffffffffffffffff811115620003d757620003d66200016b565b5b620003e58782880162000321565b925050606085015167ffffffffffffffff8111156200040957620004086200016b565b5b620004178782880162000321565b91505092959194509250565b600081519050919050565b7f4e487b7100000000000000000000000000000000000000000000000000000000600052602260045260246000fd5b600060028204905060018216806200047657607f821691505b6020821081036200048c576200048b6200042e565b5b50919050565b60008190508160005260206000209050919050565b60006020601f8301049050919050565b600082821b905092915050565b600060088302620004f67fffffffffffffffffffffffffffffffffffffffffffffffffffffffffffffffff82620004b7565b620005028683620004b7565b95508019841693508086168417925050509392505050565b6000819050919050565b6000819050919050565b60006200054f6200054962000543846200051a565b62000524565b6200051a565b9050919050565b6000819050919050565b6200056b836200052e565b620005836200057a8262000556565b848454620004c4565b825550505050565b600090565b6200059a6200058b565b620005a781848462000560565b505050565b5b81811015620005cf57620005c360008262000590565b600181019050620005ad565b5050565b601f8211156200061e57620005e88162000492565b620005f384620004a7565b8101602085101562000603578190505b6200061b6200061285620004a7565b830182620005ac565b50505b505050565b600082821c905092915050565b6000620006436000198460080262000623565b1980831691505092915050565b60006200065e838362000630565b9150826002028217905092915050565b620006798262000423565b67ffffffffffffffff811115620006955762000694620001f0565b5b620006a182546200045d565b620006ae828285620005d3565b600060209050601f831160018114620006e65760008415620006d1578287015190505b620006dd858262000650565b8655506200074d565b601f198416620006f68662000492565b60005b828110156200072057848901518255600182019150602085019450602081019050620006f9565b868310156200074057848901516200073c601f89168262000630565b8355505b6001600288020188555050505b505050505050565b6142b480620007656000396000f3fe608060405234801561001057600080fd5b50600436106101215760003560e01c806339d519cb116100ad578063c4c7ab5a11610071578063c4c7ab5a14610302578063dc5ab3da14610334578063de5ab07a14610350578063fc3731791461036e578063ffb086d51461038c57610121565b806339d519cb1461026c57806339ec3c821461028a578063760ea248146102a8578063adac594f146102c6578063b5e628ce146102e457610121565b80631ffa92dc116100f45780631ffa92dc146101c8578063203ceaaf146101e657806328841f19146102025780632e35585a1461021e57806330501b0d1461023c57610121565b80630b81e9e5146101265780631234f23b14610144578063189f9823146101785780631e21d75714610196575b600080fd5b61012e610396565b60405161013b9190612e88565b60405180910390f35b61015e60048036038101906101599190612ef4565b610428565b60405161016f959493929190612f30565b60405180910390f35b6101806106ab565b60405161018d9190612e88565b60405180910390f35b6101b060048036038101906101ab9190612ef4565b610739565b6040516101bf93929190612fd9565b60405180910390f35b6101d06107b3565b6040516101dd9190612e88565b60405180910390f35b61020060048036038101906101fb9190613145565b610845565b005b61021c600480360381019061021791906131e0565b610adf565b005b610226610d68565b604051610233919061342a565b60405180910390f35b61025660048036038101906102519190612ef4565b610fca565b604051610263919061345b565b60405180910390f35b610274611052565b6040516102819190612e88565b60405180910390f35b6102926110e4565b60405161029f9190613476565b60405180910390f35b6102b06110e9565b6040516102bd9190613476565b60405180910390f35b6102ce6110ef565b6040516102db9190613476565b60405180910390f35b6102ec6110f5565b6040516102f99190612e88565b60405180910390f35b61031c60048036038101906103179190612ef4565b611183565b60405161032b93929190613515565b60405180910390f35b61034e60048036038101906103499190613553565b61139e565b005b6103586114b8565b60405161036591906136af565b60405180910390f35b6103766115cd565b6040516103839190612e88565b60405180910390f35b61039461165b565b005b6060600980546103a590613700565b80601f01602080910402602001604051908101604052809291908181526020018280546103d190613700565b801561041e5780601f106103f35761010080835404028352916020019161041e565b820191906000526020600020905b81548152906001019060200180831161040157829003601f168201915b5050505050905090565b6000806060806060600560009054906101000a900460ff1615610480576040517f08c379a0000000000000000000000000000000000000000000000000000000008152600401610477906137a3565b60405180910390fd5b600060068781548110610496576104956137c3565b5b90600052602060002090600702016001016040518060a00160405290816000820180546104c290613700565b80601f01602080910402602001604051908101604052809291908181526020018280546104ee90613700565b801561053b5780601f106105105761010080835404028352916020019161053b565b820191906000526020600020905b81548152906001019060200180831161051e57829003601f168201915b50505050508152602001600182015481526020016002820154815260200160038201805461056890613700565b80601f016020809104026020016040519081016040528092919081815260200182805461059490613700565b80156105e15780601f106105b6576101008083540402835291602001916105e1565b820191906000526020600020905b8154815290600101906020018083116105c457829003601f168201915b505050505081526020016004820180546105fa90613700565b80601f016020809104026020016040519081016040528092919081815260200182805461062690613700565b80156106735780601f1061064857610100808354040283529160200191610673565b820191906000526020600020905b81548152906001019060200180831161065657829003601f168201915b505050505081525050905080602001518160400151826080015183606001518460000151955095509550955095505091939590929450565b600a80546106b890613700565b80601f01602080910402602001604051908101604052809291908181526020018280546106e490613700565b80156107315780601f1061070657610100808354040283529160200191610731565b820191906000526020600020905b81548152906001019060200180831161071457829003601f168201915b505050505081565b6007818154811061074957600080fd5b90600052602060002090600302016000915090508060000154908060010160009054906101000a900473ffffffffffffffffffffffffffffffffffffffff16908060020160009054906101000a900473ffffffffffffffffffffffffffffffffffffffff16905083565b6060600a80546107c290613700565b80601f01602080910402602001604051908101604052809291908181526020018280546107ee90613700565b801561083b5780601f106108105761010080835404028352916020019161083b565b820191906000526020600020905b81548152906001019060200180831161081e57829003601f168201915b5050505050905090565b600260009054906101000a900473ffffffffffffffffffffffffffffffffffffffff1673ffffffffffffffffffffffffffffffffffffffff163373ffffffffffffffffffffffffffffffffffffffff16146108d5576040517f08c379a00000000000000000000000000000000000000000000000000000000081526004016108cc90613864565b60405180910390fd5b600560009054906101000a900460ff1615610925576040517f08c379a000000000000000000000000000000000000000000000000000000000815260040161091c906137a3565b60405180910390fd5b806006848154811061093a576109396137c3565b5b9060005260206000209060070201600101600301908161095a9190613a30565b5061096483610fca565b15610acf576000600183036109a35760068481548110610987576109866137c3565b5b90600052602060002090600702016001016001015490506109cf565b600684815481106109b7576109b66137c3565b5b90600052602060002090600702016001016002015490505b6000600782815481106109e5576109e46137c3565b5b9060005260206000209060030201604051806060016040529081600082015481526020016001820160009054906101000a900473ffffffffffffffffffffffffffffffffffffffff1673ffffffffffffffffffffffffffffffffffffffff1673ffffffffffffffffffffffffffffffffffffffff1681526020016002820160009054906101000a900473ffffffffffffffffffffffffffffffffffffffff1673ffffffffffffffffffffffffffffffffffffffff1673ffffffffffffffffffffffffffffffffffffffff16815250509050610ac88160200151826040015161173e565b5050610ada565b610ad982846117f9565b5b505050565b602060035410610b24576040517f08c379a0000000000000000000000000000000000000000000000000000000008152600401610b1b90613b4e565b60405180910390fd5b600560009054906101000a900460ff16610b73576040517f08c379a0000000000000000000000000000000000000000000000000000000008152600401610b6a90613be0565b60405180910390fd5b8073ffffffffffffffffffffffffffffffffffffffff168273ffffffffffffffffffffffffffffffffffffffff1603610be1576040517f08c379a0000000000000000000000000000000000000000000000000000000008152600401610bd890613c72565b60405180910390fd5b610beb8282611acb565b15610c2b576040517f08c379a0000000000000000000000000000000000000000000000000000000008152600401610c2290613d04565b60405180910390fd5b6007604051806060016040528060035481526020018473ffffffffffffffffffffffffffffffffffffffff1681526020018373ffffffffffffffffffffffffffffffffffffffff1681525090806001815401808255809150506001900390600052602060002090600302016000909190919091506000820151816000015560208201518160010160006101000a81548173ffffffffffffffffffffffffffffffffffffffff021916908373ffffffffffffffffffffffffffffffffffffffff16021790555060408201518160020160006101000a81548173ffffffffffffffffffffffffffffffffffffffff021916908373ffffffffffffffffffffffffffffffffffffffff160217905550505060036000815480929190610d4c90613d53565b9190505550602060035403610d6457610d6361165b565b5b5050565b60606006805480602002602001604051908101604052809291908181526020016000905b82821015610fc1578382906000526020600020906007020160405180606001604052908160008201548152602001600182016040518060a0016040529081600082018054610dd990613700565b80601f0160208091040260200160405190810160405280929190818152602001828054610e0590613700565b8015610e525780601f10610e2757610100808354040283529160200191610e52565b820191906000526020600020905b815481529060010190602001808311610e3557829003601f168201915b505050505081526020016001820154815260200160028201548152602001600382018054610e7f90613700565b80601f0160208091040260200160405190810160405280929190818152602001828054610eab90613700565b8015610ef85780601f10610ecd57610100808354040283529160200191610ef8565b820191906000526020600020905b815481529060010190602001808311610edb57829003601f168201915b50505050508152602001600482018054610f1190613700565b80601f0160208091040260200160405190810160405280929190818152602001828054610f3d90613700565b8015610f8a5780601f10610f5f57610100808354040283529160200191610f8a565b820191906000526020600020905b815481529060010190602001808311610f6d57829003601f168201915b50505050508152505081526020016006820160009054906101000a900460ff16151515158152505081526020019060010190610d8c565b50505050905090565b60008060068381548110610fe157610fe06137c3565b5b90600052602060002090600702016001016000016040516020016110059190613e29565b604051602081830303815290604052805190602001209050600060405160200161102e90613e8c565b60405160208183030381529060405280519060200120905080821492505050919050565b60606008805461106190613700565b80601f016020809104026020016040519081016040528092919081815260200182805461108d90613700565b80156110da5780601f106110af576101008083540402835291602001916110da565b820191906000526020600020905b8154815290600101906020018083116110bd57829003601f168201915b5050505050905090565b602081565b60035481565b60045481565b6008805461110290613700565b80601f016020809104026020016040519081016040528092919081815260200182805461112e90613700565b801561117b5780601f106111505761010080835404028352916020019161117b565b820191906000526020600020905b81548152906001019060200180831161115e57829003601f168201915b505050505081565b6006818154811061119357600080fd5b9060005260206000209060070201600091509050806000015490806001016040518060a00160405290816000820180546111cc90613700565b80601f01602080910402602001604051908101604052809291908181526020018280546111f890613700565b80156112455780601f1061121a57610100808354040283529160200191611245565b820191906000526020600020905b81548152906001019060200180831161122857829003601f168201915b50505050508152602001600182015481526020016002820154815260200160038201805461127290613700565b80601f016020809104026020016040519081016040528092919081815260200182805461129e90613700565b80156112eb5780601f106112c0576101008083540402835291602001916112eb565b820191906000526020600020905b8154815290600101906020018083116112ce57829003601f168201915b5050505050815260200160048201805461130490613700565b80601f016020809104026020016040519081016040528092919081815260200182805461133090613700565b801561137d5780601f106113525761010080835404028352916020019161137d565b820191906000526020600020905b81548152906001019060200180831161136057829003601f168201915b505050505081525050908060060160009054906101000a900460ff16905083565b600260009054906101000a900473ffffffffffffffffffffffffffffffffffffffff1673ffffffffffffffffffffffffffffffffffffffff163373ffffffffffffffffffffffffffffffffffffffff161461142e576040517f08c379a000000000000000000000000000000000000000000000000000000000815260040161142590613864565b60405180910390fd5b600560009054906101000a900460ff161561147e576040517f08c379a0000000000000000000000000000000000000000000000000000000008152600401611475906137a3565b60405180910390fd5b8060068381548110611493576114926137c3565b5b906000526020600020906007020160010160040190816114b39190613a30565b505050565b60606007805480602002602001604051908101604052809291908181526020016000905b828210156115c45783829060005260206000209060030201604051806060016040529081600082015481526020016001820160009054906101000a900473ffffffffffffffffffffffffffffffffffffffff1673ffffffffffffffffffffffffffffffffffffffff1673ffffffffffffffffffffffffffffffffffffffff1681526020016002820160009054906101000a900473ffffffffffffffffffffffffffffffffffffffff1673ffffffffffffffffffffffffffffffffffffffff1673ffffffffffffffffffffffffffffffffffffffff1681525050815260200190600101906114dc565b50505050905090565b600980546115da90613700565b80601f016020809104026020016040519081016040528092919081815260200182805461160690613700565b80156116535780601f1061162857610100808354040283529160200191611653565b820191906000526020600020905b81548152906001019060200180831161163657829003601f168201915b505050505081565b600260009054906101000a900473ffffffffffffffffffffffffffffffffffffffff1673ffffffffffffffffffffffffffffffffffffffff163373ffffffffffffffffffffffffffffffffffffffff16146116eb576040517f08c379a00000000000000000000000000000000000000000000000000000000081526004016116e290613864565b60405180910390fd5b6000600560006101000a81548160ff02191690831515021790555061170e611cd5565b611716611ed9565b61171e6121a4565b61172661232c565b61172e612723565b6117366129b9565b600481905550565b60008054906101000a900473ffffffffffffffffffffffffffffffffffffffff1673ffffffffffffffffffffffffffffffffffffffff1663f31a038c600260009054906101000a900473ffffffffffffffffffffffffffffffffffffffff168484600a60286040518663ffffffff1660e01b81526004016117c3959493929190613f17565b600060405180830381600087803b1580156117dd57600080fd5b505af11580156117f1573d6000803e3d6000fd5b505050505050565b60006006828154811061180f5761180e6137c3565b5b906000526020600020906007020160405180606001604052908160008201548152602001600182016040518060a001604052908160008201805461185290613700565b80601f016020809104026020016040519081016040528092919081815260200182805461187e90613700565b80156118cb5780601f106118a0576101008083540402835291602001916118cb565b820191906000526020600020905b8154815290600101906020018083116118ae57829003601f168201915b5050505050815260200160018201548152602001600282015481526020016003820180546118f890613700565b80601f016020809104026020016040519081016040528092919081815260200182805461192490613700565b80156119715780601f1061194657610100808354040283529160200191611971565b820191906000526020600020905b81548152906001019060200180831161195457829003601f168201915b5050505050815260200160048201805461198a90613700565b80601f01602080910402602001604051908101604052809291908181526020018280546119b690613700565b8015611a035780601f106119d857610100808354040283529160200191611a03565b820191906000526020600020905b8154815290600101906020018083116119e657829003601f168201915b50505050508152505081526020016006820160009054906101000a900460ff1615151515815250509050600060018403611a47578160200151602001519050611a53565b81602001516040015190505b816040015115611a9357806006836000015181548110611a7657611a756137c3565b5b906000526020600020906007020160010160010181905550611ac5565b806006836000015181548110611aac57611aab6137c3565b5b9060005260206000209060070201600101600201819055505b50505050565b600080600090505b600354811015611cc957600060078281548110611af357611af26137c3565b5b9060005260206000209060030201604051806060016040529081600082015481526020016001820160009054906101000a900473ffffffffffffffffffffffffffffffffffffffff1673ffffffffffffffffffffffffffffffffffffffff1673ffffffffffffffffffffffffffffffffffffffff1681526020016002820160009054906101000a900473ffffffffffffffffffffffffffffffffffffffff1673ffffffffffffffffffffffffffffffffffffffff1673ffffffffffffffffffffffffffffffffffffffff168152505090508473ffffffffffffffffffffffffffffffffffffffff16816020015173ffffffffffffffffffffffffffffffffffffffff161480611c3157508373ffffffffffffffffffffffffffffffffffffffff16816020015173ffffffffffffffffffffffffffffffffffffffff16145b80611c6b57508473ffffffffffffffffffffffffffffffffffffffff16816040015173ffffffffffffffffffffffffffffffffffffffff16145b80611ca557508373ffffffffffffffffffffffffffffffffffffffff16816040015173ffffffffffffffffffffffffffffffffffffffff16145b15611cb557600192505050611ccf565b508080611cc190613d53565b915050611ad3565b50600090505b92915050565b6000611ce2600354612a06565b90506000808290505b6000811115611ed4576000611d0b600183611d069190613f6a565b612a48565b83611d169190613f9e565b9250600083905060006001905060005b611d3b600186611d369190613f6a565b612a48565b811015611ebd5760028403611d5d578280611d5590613d53565b935050600093505b60006040518060a00160405280611d7f600189611d7a9190613f6a565b612aa9565b815260200160228152602001602281526020016040518060200160405280600081525081526020016040518060200160405280600081525081525090506000604051806060016040528086815260200183815260200185151581525090506006819080600181540180825580915050600190039060005260206000209060070201600090919091909150600082015181600001556020820151816001016000820151816000019081611e319190613a30565b5060208201518160010155604082015181600201556060820151816003019081611e5b9190613a30565b506080820151816004019081611e719190613a30565b50505060408201518160060160006101000a81548160ff0219169083151502179055505050831593508580611ea590613d53565b96505050508080611eb590613d53565b915050611d26565b505050508080611ecc90613fd2565b915050611ceb565b505050565b60006007805480602002602001604051908101604052809291908181526020016000905b82821015611fe55783829060005260206000209060030201604051806060016040529081600082015481526020016001820160009054906101000a900473ffffffffffffffffffffffffffffffffffffffff1673ffffffffffffffffffffffffffffffffffffffff1673ffffffffffffffffffffffffffffffffffffffff1681526020016002820160009054906101000a900473ffffffffffffffffffffffffffffffffffffffff1673ffffffffffffffffffffffffffffffffffffffff1673ffffffffffffffffffffffffffffffffffffffff168152505081526020019060010190611efd565b505050509050600060078054905090505b60008111156120a457808061200a90613fd2565b915050600061202460018361201f9190613f9e565b612c1c565b9050600083828151811061203b5761203a6137c3565b5b60200260200101519050838381518110612058576120576137c3565b5b6020026020010151848381518110612073576120726137c3565b5b602002602001018190525080848481518110612092576120916137c3565b5b60200260200101819052505050611ff6565b60005b60078054905081101561219f578281815181106120c7576120c66137c3565b5b6020026020010151600782815481106120e3576120e26137c3565b5b90600052602060002090600302016000820151816000015560208201518160010160006101000a81548173ffffffffffffffffffffffffffffffffffffffff021916908373ffffffffffffffffffffffffffffffffffffffff16021790555060408201518160020160006101000a81548173ffffffffffffffffffffffffffffffffffffffff021916908373ffffffffffffffffffffffffffffffffffffffff160217905550905050808061219790613d53565b9150506120a7565b505050565b60006121c560016121b6600354612a06565b6121c09190613f6a565b612a48565b905060005b818110156122fe576000600782815481106121e8576121e76137c3565b5b9060005260206000209060030201604051806060016040529081600082015481526020016001820160009054906101000a900473ffffffffffffffffffffffffffffffffffffffff1673ffffffffffffffffffffffffffffffffffffffff1673ffffffffffffffffffffffffffffffffffffffff1681526020016002820160009054906101000a900473ffffffffffffffffffffffffffffffffffffffff1673ffffffffffffffffffffffffffffffffffffffff1673ffffffffffffffffffffffffffffffffffffffff168152505090508060000151600683815481106122d2576122d16137c3565b5b9060005260206000209060070201600101600101819055505080806122f690613d53565b9150506121ca565b5061231e600161230f600354612a06565b6123199190613f6a565b612a48565b905061232981612c5e565b50565b600061234d600161233e600354612a06565b6123489190613f6a565b612a48565b9050600060018261235e9190613f6a565b90505b600081111561271f5760006001826123799190613f9e565b42338460405160200161238e93929190614064565b6040516020818303038152906040528051906020012060001c6123b191906140d0565b90506000600683815481106123c9576123c86137c3565b5b906000526020600020906007020160405180606001604052908160008201548152602001600182016040518060a001604052908160008201805461240c90613700565b80601f016020809104026020016040519081016040528092919081815260200182805461243890613700565b80156124855780601f1061245a57610100808354040283529160200191612485565b820191906000526020600020905b81548152906001019060200180831161246857829003601f168201915b5050505050815260200160018201548152602001600282015481526020016003820180546124b290613700565b80601f01602080910402602001604051908101604052809291908181526020018280546124de90613700565b801561252b5780601f106125005761010080835404028352916020019161252b565b820191906000526020600020905b81548152906001019060200180831161250e57829003601f168201915b5050505050815260200160048201805461254490613700565b80601f016020809104026020016040519081016040528092919081815260200182805461257090613700565b80156125bd5780601f10612592576101008083540402835291602001916125bd565b820191906000526020600020905b8154815290600101906020018083116125a057829003601f168201915b50505050508152505081526020016006820160009054906101000a900460ff1615151515815250509050600682815481106125fb576125fa6137c3565b5b9060005260206000209060070201600101600684815481106126205761261f6137c3565b5b9060005260206000209060070201600101600082018160000190816126459190614117565b5060018201548160010155600282015481600201556003820181600301908161266e9190614117565b50600482018160040190816126839190614117565b509050508060200151600683815481106126a05761269f6137c3565b5b906000526020600020906007020160010160008201518160000190816126c69190613a30565b50602082015181600101556040820151816002015560608201518160030190816126f09190613a30565b5060808201518160040190816127069190613a30565b509050505050808061271790613fd2565b915050612361565b5050565b60006127446001612735600354612a06565b61273f9190613f6a565b612a48565b905060005b818110156129b557600060068281548110612767576127666137c3565b5b906000526020600020906007020160405180606001604052908160008201548152602001600182016040518060a00160405290816000820180546127aa90613700565b80601f01602080910402602001604051908101604052809291908181526020018280546127d690613700565b80156128235780601f106127f857610100808354040283529160200191612823565b820191906000526020600020905b81548152906001019060200180831161280657829003601f168201915b50505050508152602001600182015481526020016002820154815260200160038201805461285090613700565b80601f016020809104026020016040519081016040528092919081815260200182805461287c90613700565b80156128c95780601f1061289e576101008083540402835291602001916128c9565b820191906000526020600020905b8154815290600101906020018083116128ac57829003601f168201915b505050505081526020016004820180546128e290613700565b80601f016020809104026020016040519081016040528092919081815260200182805461290e90613700565b801561295b5780601f106129305761010080835404028352916020019161295b565b820191906000526020600020905b81548152906001019060200180831161293e57829003601f168201915b50505050508152505081526020016006820160009054906101000a900460ff16151515158152505090506022816020015160400151036129a1576129a06001836117f9565b5b5080806129ad90613d53565b915050612749565b5050565b6000806000905060005b6129ce600354612a06565b8110156129fe576129de81612a48565b826129e99190613f9e565b915080806129f690613d53565b9150506129c3565b508091505090565b600080600090506000600190505b83811015612a3e57600281612a2991906141ff565b90508180612a3690613d53565b925050612a14565b8192505050919050565b600060048203612a5b5760109050612aa4565b60038203612a6c5760089050612aa4565b60028203612a7d5760049050612aa4565b60018203612a8e5760029050612aa4565b60008203612a9f5760019050612aa4565b600090505b919050565b606060048203612af0576040518060400160405280600c81526020017f44696563697365697361766f00000000000000000000000000000000000000008152509050612c17565b60038203612b35576040518060400160405280600681526020017f4f637461766f00000000000000000000000000000000000000000000000000008152509050612c17565b60028203612b7a576040518060400160405280600681526020017f43756172746f00000000000000000000000000000000000000000000000000008152509050612c17565b60018203612bbf576040518060400160405280600981526020017f53656d6966696e616c00000000000000000000000000000000000000000000008152509050612c17565b60008203612c04576040518060400160405280600581526020017f46696e616c0000000000000000000000000000000000000000000000000000008152509050612c17565b6040518060200160405280600081525090505b919050565b600081424433604051602001612c3493929190614241565b6040516020818303038152906040528051906020012060001c612c5791906140d0565b9050919050565b600081905060008190505b600354811015612df357600060078281548110612c8957612c886137c3565b5b9060005260206000209060030201604051806060016040529081600082015481526020016001820160009054906101000a900473ffffffffffffffffffffffffffffffffffffffff1673ffffffffffffffffffffffffffffffffffffffff1673ffffffffffffffffffffffffffffffffffffffff1681526020016002820160009054906101000a900473ffffffffffffffffffffffffffffffffffffffff1673ffffffffffffffffffffffffffffffffffffffff1673ffffffffffffffffffffffffffffffffffffffff1681525050905060005b84811015612dde57602260068281548110612d7b57612d7a6137c3565b5b90600052602060002090600702016001016002015403612dcb57816000015160068281548110612dae57612dad6137c3565b5b906000526020600020906007020160010160020181905550612dde565b8080612dd690613d53565b915050612d5d565b50508080612deb90613d53565b915050612c69565b505050565b600081519050919050565b600082825260208201905092915050565b60005b83811015612e32578082015181840152602081019050612e17565b60008484015250505050565b6000601f19601f8301169050919050565b6000612e5a82612df8565b612e648185612e03565b9350612e74818560208601612e14565b612e7d81612e3e565b840191505092915050565b60006020820190508181036000830152612ea28184612e4f565b905092915050565b6000604051905090565b600080fd5b600080fd5b6000819050919050565b612ed181612ebe565b8114612edc57600080fd5b50565b600081359050612eee81612ec8565b92915050565b600060208284031215612f0a57612f09612eb4565b5b6000612f1884828501612edf565b91505092915050565b612f2a81612ebe565b82525050565b600060a082019050612f456000830188612f21565b612f526020830187612f21565b8181036040830152612f648186612e4f565b90508181036060830152612f788185612e4f565b90508181036080830152612f8c8184612e4f565b90509695505050505050565b600073ffffffffffffffffffffffffffffffffffffffff82169050919050565b6000612fc382612f98565b9050919050565b612fd381612fb8565b82525050565b6000606082019050612fee6000830186612f21565b612ffb6020830185612fca565b6130086040830184612fca565b949350505050565b600080fd5b600080fd5b7f4e487b7100000000000000000000000000000000000000000000000000000000600052604160045260246000fd5b61305282612e3e565b810181811067ffffffffffffffff821117156130715761307061301a565b5b80604052505050565b6000613084612eaa565b90506130908282613049565b919050565b600067ffffffffffffffff8211156130b0576130af61301a565b5b6130b982612e3e565b9050602081019050919050565b82818337600083830152505050565b60006130e86130e384613095565b61307a565b90508281526020810184848401111561310457613103613015565b5b61310f8482856130c6565b509392505050565b600082601f83011261312c5761312b613010565b5b813561313c8482602086016130d5565b91505092915050565b60008060006060848603121561315e5761315d612eb4565b5b600061316c86828701612edf565b935050602061317d86828701612edf565b925050604084013567ffffffffffffffff81111561319e5761319d612eb9565b5b6131aa86828701613117565b9150509250925092565b6131bd81612fb8565b81146131c857600080fd5b50565b6000813590506131da816131b4565b92915050565b600080604083850312156131f7576131f6612eb4565b5b6000613205858286016131cb565b9250506020613216858286016131cb565b9150509250929050565b600081519050919050565b600082825260208201905092915050565b6000819050602082019050919050565b61325581612ebe565b82525050565b600082825260208201905092915050565b600061327782612df8565b613281818561325b565b9350613291818560208601612e14565b61329a81612e3e565b840191505092915050565b600060a08301600083015184820360008601526132c2828261326c565b91505060208301516132d7602086018261324c565b5060408301516132ea604086018261324c565b5060608301518482036060860152613302828261326c565b9150506080830151848203608086015261331c828261326c565b9150508091505092915050565b60008115159050919050565b61333e81613329565b82525050565b600060608301600083015161335c600086018261324c565b506020830151848203602086015261337482826132a5565b91505060408301516133896040860182613335565b508091505092915050565b60006133a08383613344565b905092915050565b6000602082019050919050565b60006133c082613220565b6133ca818561322b565b9350836020820285016133dc8561323c565b8060005b8581101561341857848403895281516133f98582613394565b9450613404836133a8565b925060208a019950506001810190506133e0565b50829750879550505050505092915050565b6000602082019050818103600083015261344481846133b5565b905092915050565b61345581613329565b82525050565b6000602082019050613470600083018461344c565b92915050565b600060208201905061348b6000830184612f21565b92915050565b600060a08301600083015184820360008601526134ae828261326c565b91505060208301516134c3602086018261324c565b5060408301516134d6604086018261324c565b50606083015184820360608601526134ee828261326c565b91505060808301518482036080860152613508828261326c565b9150508091505092915050565b600060608201905061352a6000830186612f21565b818103602083015261353c8185613491565b905061354b604083018461344c565b949350505050565b6000806040838503121561356a57613569612eb4565b5b600061357885828601612edf565b925050602083013567ffffffffffffffff81111561359957613598612eb9565b5b6135a585828601613117565b9150509250929050565b600081519050919050565b600082825260208201905092915050565b6000819050602082019050919050565b6135e481612fb8565b82525050565b606082016000820151613600600085018261324c565b50602082015161361360208501826135db565b50604082015161362660408501826135db565b50505050565b600061363883836135ea565b60608301905092915050565b6000602082019050919050565b600061365c826135af565b61366681856135ba565b9350613671836135cb565b8060005b838110156136a2578151613689888261362c565b975061369483613644565b925050600181019050613675565b5085935050505092915050565b600060208201905081810360008301526136c98184613651565b905092915050565b7f4e487b7100000000000000000000000000000000000000000000000000000000600052602260045260246000fd5b6000600282049050600182168061371857607f821691505b60208210810361372b5761372a6136d1565b5b50919050565b7f41756e206e6f2073652068616e2067656e657261646f206c617320706172746960008201527f6461730000000000000000000000000000000000000000000000000000000000602082015250565b600061378d602383612e03565b915061379882613731565b604082019050919050565b600060208201905081810360008301526137bc81613780565b9050919050565b7f4e487b7100000000000000000000000000000000000000000000000000000000600052603260045260246000fd5b7f4e6f207469656e6573207065726d69736f732064652061646d696e697374726160008201527f646f720000000000000000000000000000000000000000000000000000000000602082015250565b600061384e602383612e03565b9150613859826137f2565b604082019050919050565b6000602082019050818103600083015261387d81613841565b9050919050565b60008190508160005260206000209050919050565b60006020601f8301049050919050565b600082821b905092915050565b6000600883026138e67fffffffffffffffffffffffffffffffffffffffffffffffffffffffffffffffff826138a9565b6138f086836138a9565b95508019841693508086168417925050509392505050565b6000819050919050565b600061392d61392861392384612ebe565b613908565b612ebe565b9050919050565b6000819050919050565b61394783613912565b61395b61395382613934565b8484546138b6565b825550505050565b600090565b613970613963565b61397b81848461393e565b505050565b5b8181101561399f57613994600082613968565b600181019050613981565b5050565b601f8211156139e4576139b581613884565b6139be84613899565b810160208510156139cd578190505b6139e16139d985613899565b830182613980565b50505b505050565b600082821c905092915050565b6000613a07600019846008026139e9565b1980831691505092915050565b6000613a2083836139f6565b9150826002028217905092915050565b613a3982612df8565b67ffffffffffffffff811115613a5257613a5161301a565b5b613a5c8254613700565b613a678282856139a3565b600060209050601f831160018114613a9a5760008415613a88578287015190505b613a928582613a14565b865550613afa565b601f198416613aa886613884565b60005b82811015613ad057848901518255600182019150602085019450602081019050613aab565b86831015613aed5784890151613ae9601f8916826139f6565b8355505b6001600288020188555050505b505050505050565b7f456c20746f726e656f206573746120636f6d706c65746f000000000000000000600082015250565b6000613b38601783612e03565b9150613b4382613b02565b602082019050919050565b60006020820190508181036000830152613b6781613b2b565b9050919050565b7f4c61206661736520646520696e736372697063696f6e206861207369646f206360008201527f6572726164610000000000000000000000000000000000000000000000000000602082015250565b6000613bca602683612e03565b9150613bd582613b6e565b604082019050919050565b60006020820190508181036000830152613bf981613bbd565b9050919050565b7f4e6f20736520707565646520696e7363726962697220616c206d69736d6f206a60008201527f756761646f7220656e20756e206d69736d6f2065717569706f00000000000000602082015250565b6000613c5c603983612e03565b9150613c6782613c00565b604082019050919050565b60006020820190508181036000830152613c8b81613c4f565b9050919050565b7f416c67756e6f206465206c6f73206a756761646f72657320796120657374612060008201527f696e73637269746f20656e206f74726f2065717569706f000000000000000000602082015250565b6000613cee603783612e03565b9150613cf982613c92565b604082019050919050565b60006020820190508181036000830152613d1d81613ce1565b9050919050565b7f4e487b7100000000000000000000000000000000000000000000000000000000600052601160045260246000fd5b6000613d5e82612ebe565b91507fffffffffffffffffffffffffffffffffffffffffffffffffffffffffffffffff8203613d9057613d8f613d24565b5b600182019050919050565b600081905092915050565b60008154613db381613700565b613dbd8186613d9b565b94506001821660008114613dd85760018114613ded57613e20565b60ff1983168652811515820286019350613e20565b613df685613884565b60005b83811015613e1857815481890152600182019150602081019050613df9565b838801955050505b50505092915050565b6000613e358284613da6565b915081905092915050565b7f46696e616c000000000000000000000000000000000000000000000000000000600082015250565b6000613e76600583613d9b565b9150613e8182613e40565b600582019050919050565b6000613e9782613e69565b9150819050919050565b6000819050919050565b6000613ec6613ec1613ebc84613ea1565b613908565b612ebe565b9050919050565b613ed681613eab565b82525050565b6000819050919050565b6000613f01613efc613ef784613edc565b613908565b612ebe565b9050919050565b613f1181613ee6565b82525050565b600060a082019050613f2c6000830188612fca565b613f396020830187612fca565b613f466040830186612fca565b613f536060830185613ecd565b613f606080830184613f08565b9695505050505050565b6000613f7582612ebe565b9150613f8083612ebe565b9250828203905081811115613f9857613f97613d24565b5b92915050565b6000613fa982612ebe565b9150613fb483612ebe565b9250828201905080821115613fcc57613fcb613d24565b5b92915050565b6000613fdd82612ebe565b915060008203613ff057613fef613d24565b5b600182039050919050565b6000819050919050565b61401661401182612ebe565b613ffb565b82525050565b60008160601b9050919050565b60006140348261401c565b9050919050565b600061404682614029565b9050919050565b61405e61405982612fb8565b61403b565b82525050565b60006140708286614005565b602082019150614080828561404d565b6014820191506140908284614005565b602082019150819050949350505050565b7f4e487b7100000000000000000000000000000000000000000000000000000000600052601260045260246000fd5b60006140db82612ebe565b91506140e683612ebe565b9250826140f6576140f56140a1565b5b828206905092915050565b60008154905061411081613700565b9050919050565b8181036141255750506141fd565b61412e82614101565b67ffffffffffffffff8111156141475761414661301a565b5b6141518254613700565b61415c8282856139a3565b6000601f83116001811461418b5760008415614179578287015490505b6141838582613a14565b8655506141f6565b601f19841661419987613884565b96506141a486613884565b60005b828110156141cc578489015482556001820191506001850194506020810190506141a7565b868310156141e957848901546141e5601f8916826139f6565b8355505b6001600288020188555050505b5050505050505b565b600061420a82612ebe565b915061421583612ebe565b925082820261422381612ebe565b9150828204841483151761423a57614239613d24565b5b5092915050565b600061424d8286614005565b60208201915061425d8285614005565b60208201915061426d828461404d565b60148201915081905094935050505056fea2646970667358221220351d3f2cbdddc9a49f74cc6744416c8b073caa6423cb72ec4ed76c7d3801da0e64736f6c63430008130033",
  "immutableReferences": {},
  "source": "// SPDX-License-Identifier: GPL-3.0\r\npragma solidity ^0.8.19;\r\n\r\nimport \"./PadelToken.sol\";\r\n\r\ncontract Torneo {\r\n\r\n    PadelToken private padelToken;\r\n\r\n    address private tokenContract;\r\n\r\n    uint256 public constant MAX_EQUIPOS = 32;\r\n\r\n    uint constant BYE_ID = 34;\r\n\r\n    address creador;\r\n\r\n    struct Partida {\r\n        string ronda;\r\n        uint equipo1Id;\r\n        uint equipo2Id;\r\n        string resultado;\r\n        string horario;\r\n    }\r\n\r\n    struct NodoCuadro {\r\n        uint proximaPartidaId;\r\n        Partida partida;\r\n        bool cuadroArriba;\r\n    }\r\n\r\n    struct Equipo {\r\n        uint equipoId;\r\n        address jugador1;\r\n        address jugador2;\r\n    }\r\n\r\n    uint public numeroEquipos;\r\n    uint public totalPartidas;\r\n    bool faseInscripcion;\r\n\r\n    NodoCuadro[] public partidas;\r\n\r\n    Equipo[] public equipos;\r\n\r\n    string public nombreTorneo;\r\n\r\n    string public fechaInicio;\r\n\r\n    string public fechaFin;\r\n\r\n    constructor(address _tokenContract, string memory _nombreTorneo, string memory _fechaInicio, string memory _fechaFin) {\r\n        totalPartidas = 0;\r\n        faseInscripcion = true;\r\n        creador = msg.sender;\r\n        tokenContract = _tokenContract;\r\n        padelToken = PadelToken(_tokenContract);\r\n        nombreTorneo = _nombreTorneo;\r\n        fechaInicio = _fechaInicio;\r\n        fechaFin = _fechaFin;\r\n    }\r\n\r\n    function getFechaInicio() public view returns (string memory) {\r\n        return fechaInicio;\r\n    }\r\n\r\n    function getFechaFin() public view returns (string memory) {\r\n        return fechaFin;\r\n    }\r\n\r\n    function getNombreTorneo() public view returns (string memory) {\r\n        return nombreTorneo;\r\n    }\r\n\r\n    modifier onlyOwner() {\r\n        require(msg.sender == creador, \"No tienes permisos de administrador\");\r\n        _;\r\n    }\r\n\r\n    function equiposByPartida(uint numPartida) public view returns(uint, uint, string memory, string memory, string memory) {\r\n        require(!faseInscripcion, \"Aun no se han generado las partidas\");\r\n        Partida memory partida = partidas[numPartida].partida;\r\n        return (partida.equipo1Id, partida.equipo2Id, partida.horario, partida.resultado, partida.ronda);\r\n    }\r\n\r\n    function generarEmparejamientos() private {\r\n        uint numPartidosPrimeraRonda = numeroDePartidasByRonda(calcularRondas(numeroEquipos) - 1);\r\n        for(uint i = 0; i < numPartidosPrimeraRonda; i++){\r\n            Equipo memory equipo = equipos[i];\r\n            partidas[i].partida.equipo1Id = equipo.equipoId;\r\n        }\r\n        numPartidosPrimeraRonda = numeroDePartidasByRonda(calcularRondas(numeroEquipos) - 1);\r\n        addEquipos2(numPartidosPrimeraRonda);\r\n    }\r\n\r\n    function addEquipos2(uint numPartidosPrimeraRonda) private {\r\n        uint equipoRestante = numPartidosPrimeraRonda;\r\n        for(uint i = equipoRestante; i < numeroEquipos; i++){\r\n            Equipo memory equipo = equipos[i];\r\n            for(uint j = 0; j < numPartidosPrimeraRonda; j++){\r\n                if (partidas[j].partida.equipo2Id == BYE_ID) {\r\n                    partidas[j].partida.equipo2Id = equipo.equipoId;\r\n                    break;\r\n                }\r\n            }\r\n        }\r\n    }\r\n\r\n    function getEquipos() public view returns (Equipo[] memory) {\r\n        return equipos;\r\n    }\r\n\r\n    function sorteoEquipos() private {\r\n        Equipo[] memory tempArr = equipos;\r\n        uint n = equipos.length;\r\n\r\n        while (n > 0) {\r\n            n--;\r\n            uint randIndex = _random(n + 1);\r\n            Equipo memory temp = tempArr[randIndex];\r\n            tempArr[randIndex] = tempArr[n];\r\n            tempArr[n] = temp;\r\n        }\r\n\r\n        for (uint i = 0; i < equipos.length; i++) {\r\n            equipos[i] = tempArr[i];\r\n        }\r\n    }\r\n\r\n    function _random(uint _max) private view returns (uint) {\r\n        return uint(keccak256(abi.encodePacked(block.timestamp, block.difficulty, msg.sender))) % _max;\r\n    }\r\n\r\n\r\n    function addEquipo(address jugador1, address jugador2) public {\r\n        //TODO: ACTIVAR Y PROBAR ESTO: require(msg.sender == tokenContract, \"Debes realizar el pago antes de inscribirte\");\r\n        require(numeroEquipos < MAX_EQUIPOS, \"El torneo esta completo\");\r\n        require(faseInscripcion, \"La fase de inscripcion ha sido cerrada\");\r\n        require(jugador1 != jugador2, \"No se puede inscribir al mismo jugador en un mismo equipo\");\r\n        require(!isInscrito(jugador1, jugador2), \"Alguno de los jugadores ya esta inscrito en otro equipo\");\r\n\r\n        equipos.push(Equipo(numeroEquipos, jugador1, jugador2));\r\n        numeroEquipos++;\r\n        if (numeroEquipos == MAX_EQUIPOS) {\r\n            cerrarInscripciones();\r\n        }\r\n    }\r\n\r\n    function cerrarInscripciones() public onlyOwner {        \r\n        faseInscripcion = false;\r\n        inicializarPartidas();\r\n        sorteoEquipos();\r\n        generarEmparejamientos();\r\n        mezclarPartidas();\r\n        pasarDeRondaEquiposConBye();\r\n        totalPartidas = calcularTotalPartidas();\r\n    }\r\n\r\n    function pasarDeRondaEquiposConBye() private {\r\n        uint numPartidosPrimeraRonda = numeroDePartidasByRonda(calcularRondas(numeroEquipos) - 1);\r\n\r\n        for(uint i = 0; i < numPartidosPrimeraRonda; i++) {\r\n            NodoCuadro memory nodoCuadro = partidas[i];\r\n            if (nodoCuadro.partida.equipo2Id == BYE_ID) {\r\n            pasarDeRonda(1, i);\r\n            }\r\n        }\r\n\r\n    }\r\n\r\n    function pasarDeRonda(uint numEquipoEnPartida, uint numPartida) private {\r\n        NodoCuadro memory nodoCuadro = partidas[numPartida];\r\n        uint equipoId;\r\n        if (numEquipoEnPartida == 1) {\r\n            equipoId = nodoCuadro.partida.equipo1Id;\r\n        } else {\r\n            equipoId = nodoCuadro.partida.equipo2Id;\r\n        }\r\n\r\n        if (nodoCuadro.cuadroArriba) {\r\n            partidas[nodoCuadro.proximaPartidaId].partida.equipo1Id = equipoId;\r\n        } else {\r\n            partidas[nodoCuadro.proximaPartidaId].partida.equipo2Id = equipoId;\r\n        }\r\n    }\r\n\r\n    function mezclarPartidas() private {\r\n        uint n = numeroDePartidasByRonda(calcularRondas(numeroEquipos) - 1);\r\n\r\n        for (uint i = n - 1; i > 0; i--) {\r\n            uint j = uint(keccak256(abi.encodePacked(block.timestamp, msg.sender, i))) % (i + 1);\r\n            NodoCuadro memory temp = partidas[i];\r\n            partidas[i].partida = partidas[j].partida;\r\n            partidas[j].partida = temp.partida;\r\n        }\r\n    }\r\n\r\n    function inicializarPartidas() private {\r\n        uint numRondas = calcularRondas(numeroEquipos);\r\n        uint nextPartidoSiguienteRonda = 0;\r\n        for(uint i = numRondas; i > 0; i--){\r\n            uint partidaRellenada = 0;\r\n            nextPartidoSiguienteRonda += numeroDePartidasByRonda(i - 1);\r\n            uint siguienteRonda = nextPartidoSiguienteRonda;\r\n            bool cuadroArriba = true;\r\n            for(uint j = 0; j < numeroDePartidasByRonda(i - 1); j++) {   \r\n                if (partidaRellenada == 2) {\r\n                    siguienteRonda++;\r\n                    partidaRellenada = 0;\r\n                }\r\n\r\n                Partida memory partida = Partida(ronda(i - 1), BYE_ID, BYE_ID, \"\", \"\");\r\n                NodoCuadro memory nodoCuadro = NodoCuadro(siguienteRonda, partida, cuadroArriba);\r\n                partidas.push(nodoCuadro);\r\n                cuadroArriba = !cuadroArriba;\r\n                partidaRellenada++;\r\n            }\r\n        }\r\n    }\r\n\r\n    function isInscrito(address jugador1, address jugador2) private view returns (bool) {\r\n        for(uint i = 0; i < numeroEquipos; i++){\r\n            Equipo memory equipo = equipos[i];\r\n            if (equipo.jugador1 == jugador1 || equipo.jugador1 == jugador2\r\n                || equipo.jugador2 == jugador1 || equipo.jugador2 == jugador2){\r\n                return true;\r\n            }\r\n        }\r\n        return false;\r\n    }\r\n    \r\n    function numeroDePartidasByRonda (uint numRronda) private pure returns (uint) {\r\n        if (numRronda == 4) { // dieciseisavos\r\n            return 16;\r\n        } else if (numRronda == 3) { // octavos\r\n            return 8;\r\n        } else if (numRronda == 2) { // cuartos\r\n            return 4;\r\n        } else if (numRronda == 1) { // semis\r\n            return 2;\r\n        } else if (numRronda == 0) { // final\r\n            return 1;\r\n        }\r\n        return 0;\r\n    }\r\n\r\n    function ronda (uint numRonda) private pure returns (string memory) {\r\n        if (numRonda == 4) { // dieciseisavos\r\n            return \"Dieciseisavo\";\r\n        } else if (numRonda == 3) { // octavos\r\n            return \"Octavo\";\r\n        } else if (numRonda == 2) { // cuartos\r\n            return \"Cuarto\";\r\n        } else if (numRonda == 1) { // semis\r\n            return \"Semifinal\";\r\n        } else if (numRonda == 0) { // final\r\n            return \"Final\";\r\n        }\r\n        return \"\";\r\n    }\r\n\r\n    function isFinal(uint partida) public view returns (bool) {\r\n        bytes32 _ronda = keccak256(abi.encodePacked(partidas[partida].partida.ronda));\r\n        bytes32 _final = keccak256(abi.encodePacked(\"Final\"));\r\n        return _ronda == _final;\r\n    }\r\n\r\n    function calcularRondas(uint _equipos) private pure returns (uint) {\r\n        uint rondas = 0;\r\n        uint potenciaDeDos = 1;\r\n\r\n        while (potenciaDeDos < _equipos) {\r\n            potenciaDeDos *= 2;\r\n            rondas++;\r\n        }\r\n        return rondas;\r\n    }\r\n\r\n    function getPartidas() public view returns (NodoCuadro[] memory) {\r\n        return partidas;\r\n    }\r\n\r\n    function calcularTotalPartidas() private view returns (uint) {\r\n        uint res = 0;\r\n\r\n        for(uint i = 0; i < calcularRondas(numeroEquipos); i++) {\r\n            res += numeroDePartidasByRonda(i);\r\n        }\r\n        \r\n        return res;\r\n    }\r\n\r\n    function setResultado(uint numPartida, uint numEquipoPartidaGanador, string memory _resultado) public onlyOwner {\r\n        require(!faseInscripcion, \"Aun no se han generado las partidas\");\r\n\r\n        partidas[numPartida].partida.resultado = _resultado;\r\n\r\n        if(isFinal(numPartida)){\r\n            uint equipoId;\r\n            if(numEquipoPartidaGanador == 1){\r\n                equipoId = partidas[numPartida].partida.equipo1Id;\r\n            } else {\r\n                equipoId = partidas[numPartida].partida.equipo2Id;\r\n            }\r\n            Equipo memory equipoGanador = equipos[equipoId];\r\n            distribuirTokens(equipoGanador.jugador1, equipoGanador.jugador2);\r\n        } else {\r\n            pasarDeRonda(numEquipoPartidaGanador, numPartida);\r\n        }\r\n    }\r\n\r\n    function setHorario(uint numPartida, string memory _horario) public onlyOwner {\r\n        require(!faseInscripcion, \"Aun no se han generado las partidas\");\r\n\r\n        partidas[numPartida].partida.horario = _horario;\r\n    }\r\n\r\n    function distribuirTokens(address jugador1, address jugador2) private {\r\n        padelToken.recompensaTorneo(creador, jugador1, jugador2, 10, 40);\r\n    }\r\n\r\n}\r\n",
  "sourcePath": "C:\\Users\\Coti Hamo\\Desktop\\truffle\\contracts\\Torneo.sol",
  "compiler": {
    "name": "solc",
    "version": "0.8.19+commit.7dd6d404.Emscripten.clang"
  },
  "schemaVersion": "3.4.16",
  "updatedAt": "2024-04-20T14:01:48.974Z",
  "devdoc": {
    "kind": "dev",
    "methods": {},
    "version": 1
  },
  "userdoc": {
    "kind": "user",
    "methods": {},
    "version": 1
  }
}