{
  "contractName": "Torneo",
  "abi": [
    {
      "inputs": [
        {
          "internalType": "address",
          "name": "_tokenContract",
          "type": "address"
        },
        {
          "internalType": "string",
          "name": "_nombreTorneo",
          "type": "string"
        },
        {
          "internalType": "string",
          "name": "_fechaInicio",
          "type": "string"
        },
        {
          "internalType": "string",
          "name": "_fechaFin",
          "type": "string"
        }
      ],
      "stateMutability": "nonpayable",
      "type": "constructor"
    },
    {
      "inputs": [],
      "name": "MAX_EQUIPOS",
      "outputs": [
        {
          "internalType": "uint256",
          "name": "",
          "type": "uint256"
        }
      ],
      "stateMutability": "view",
      "type": "function",
      "constant": true
    },
    {
      "inputs": [
        {
          "internalType": "uint256",
          "name": "",
          "type": "uint256"
        }
      ],
      "name": "equipos",
      "outputs": [
        {
          "internalType": "uint256",
          "name": "equipoId",
          "type": "uint256"
        },
        {
          "internalType": "address",
          "name": "jugador1",
          "type": "address"
        },
        {
          "internalType": "address",
          "name": "jugador2",
          "type": "address"
        }
      ],
      "stateMutability": "view",
      "type": "function",
      "constant": true
    },
    {
      "inputs": [],
      "name": "fechaFin",
      "outputs": [
        {
          "internalType": "string",
          "name": "",
          "type": "string"
        }
      ],
      "stateMutability": "view",
      "type": "function",
      "constant": true
    },
    {
      "inputs": [],
      "name": "fechaInicio",
      "outputs": [
        {
          "internalType": "string",
          "name": "",
          "type": "string"
        }
      ],
      "stateMutability": "view",
      "type": "function",
      "constant": true
    },
    {
      "inputs": [],
      "name": "nombreTorneo",
      "outputs": [
        {
          "internalType": "string",
          "name": "",
          "type": "string"
        }
      ],
      "stateMutability": "view",
      "type": "function",
      "constant": true
    },
    {
      "inputs": [],
      "name": "numeroEquipos",
      "outputs": [
        {
          "internalType": "uint256",
          "name": "",
          "type": "uint256"
        }
      ],
      "stateMutability": "view",
      "type": "function",
      "constant": true
    },
    {
      "inputs": [
        {
          "internalType": "uint256",
          "name": "",
          "type": "uint256"
        }
      ],
      "name": "partidas",
      "outputs": [
        {
          "internalType": "uint256",
          "name": "proximaPartidaId",
          "type": "uint256"
        },
        {
          "components": [
            {
              "internalType": "bytes32",
              "name": "ronda",
              "type": "bytes32"
            },
            {
              "internalType": "uint256",
              "name": "equipo1Id",
              "type": "uint256"
            },
            {
              "internalType": "uint256",
              "name": "equipo2Id",
              "type": "uint256"
            },
            {
              "internalType": "bytes32",
              "name": "resultado",
              "type": "bytes32"
            },
            {
              "internalType": "bytes32",
              "name": "horario",
              "type": "bytes32"
            }
          ],
          "internalType": "struct Torneo.Partida",
          "name": "partida",
          "type": "tuple"
        },
        {
          "internalType": "bool",
          "name": "cuadroArriba",
          "type": "bool"
        }
      ],
      "stateMutability": "view",
      "type": "function",
      "constant": true
    },
    {
      "inputs": [],
      "name": "totalPartidas",
      "outputs": [
        {
          "internalType": "uint256",
          "name": "",
          "type": "uint256"
        }
      ],
      "stateMutability": "view",
      "type": "function",
      "constant": true
    },
    {
      "inputs": [],
      "name": "getFechaInicio",
      "outputs": [
        {
          "internalType": "string",
          "name": "",
          "type": "string"
        }
      ],
      "stateMutability": "view",
      "type": "function",
      "constant": true
    },
    {
      "inputs": [],
      "name": "getFechaFin",
      "outputs": [
        {
          "internalType": "string",
          "name": "",
          "type": "string"
        }
      ],
      "stateMutability": "view",
      "type": "function",
      "constant": true
    },
    {
      "inputs": [],
      "name": "getNombreTorneo",
      "outputs": [
        {
          "internalType": "string",
          "name": "",
          "type": "string"
        }
      ],
      "stateMutability": "view",
      "type": "function",
      "constant": true
    },
    {
      "inputs": [
        {
          "internalType": "uint256",
          "name": "numPartida",
          "type": "uint256"
        }
      ],
      "name": "equiposByPartida",
      "outputs": [
        {
          "internalType": "uint256",
          "name": "",
          "type": "uint256"
        },
        {
          "internalType": "uint256",
          "name": "",
          "type": "uint256"
        },
        {
          "internalType": "string",
          "name": "",
          "type": "string"
        },
        {
          "internalType": "string",
          "name": "",
          "type": "string"
        },
        {
          "internalType": "string",
          "name": "",
          "type": "string"
        }
      ],
      "stateMutability": "view",
      "type": "function",
      "constant": true
    },
    {
      "inputs": [],
      "name": "getEquipos",
      "outputs": [
        {
          "components": [
            {
              "internalType": "uint256",
              "name": "equipoId",
              "type": "uint256"
            },
            {
              "internalType": "address",
              "name": "jugador1",
              "type": "address"
            },
            {
              "internalType": "address",
              "name": "jugador2",
              "type": "address"
            }
          ],
          "internalType": "struct Torneo.Equipo[]",
          "name": "",
          "type": "tuple[]"
        }
      ],
      "stateMutability": "view",
      "type": "function",
      "constant": true
    },
    {
      "inputs": [
        {
          "internalType": "address",
          "name": "jugador1",
          "type": "address"
        },
        {
          "internalType": "address",
          "name": "jugador2",
          "type": "address"
        }
      ],
      "name": "addEquipo",
      "outputs": [],
      "stateMutability": "nonpayable",
      "type": "function"
    },
    {
      "inputs": [],
      "name": "cerrarInscripciones",
      "outputs": [],
      "stateMutability": "nonpayable",
      "type": "function"
    },
    {
      "inputs": [],
      "name": "getPartidas",
      "outputs": [
        {
          "components": [
            {
              "internalType": "uint256",
              "name": "proximaPartidaId",
              "type": "uint256"
            },
            {
              "components": [
                {
                  "internalType": "bytes32",
                  "name": "ronda",
                  "type": "bytes32"
                },
                {
                  "internalType": "uint256",
                  "name": "equipo1Id",
                  "type": "uint256"
                },
                {
                  "internalType": "uint256",
                  "name": "equipo2Id",
                  "type": "uint256"
                },
                {
                  "internalType": "bytes32",
                  "name": "resultado",
                  "type": "bytes32"
                },
                {
                  "internalType": "bytes32",
                  "name": "horario",
                  "type": "bytes32"
                }
              ],
              "internalType": "struct Torneo.Partida",
              "name": "partida",
              "type": "tuple"
            },
            {
              "internalType": "bool",
              "name": "cuadroArriba",
              "type": "bool"
            }
          ],
          "internalType": "struct Torneo.NodoCuadro[]",
          "name": "",
          "type": "tuple[]"
        }
      ],
      "stateMutability": "view",
      "type": "function",
      "constant": true
    },
    {
      "inputs": [
        {
          "internalType": "uint256",
          "name": "numPartida",
          "type": "uint256"
        },
        {
          "internalType": "uint256",
          "name": "numEquipoPartidaGanador",
          "type": "uint256"
        },
        {
          "internalType": "string",
          "name": "_resultado",
          "type": "string"
        }
      ],
      "name": "setResultado",
      "outputs": [],
      "stateMutability": "nonpayable",
      "type": "function"
    },
    {
      "inputs": [
        {
          "internalType": "uint256",
          "name": "numPartida",
          "type": "uint256"
        },
        {
          "internalType": "string",
          "name": "_horario",
          "type": "string"
        }
      ],
      "name": "setHorario",
      "outputs": [],
      "stateMutability": "nonpayable",
      "type": "function"
    }
  ],
  "bytecode": "0x60806040523480156200001157600080fd5b5060405162003bed38038062003bed833981810160405281019062000037919062000354565b60006004819055506001600560006101000a81548160ff02191690831515021790555033600260006101000a81548173ffffffffffffffffffffffffffffffffffffffff021916908373ffffffffffffffffffffffffffffffffffffffff16021790555083600160006101000a81548173ffffffffffffffffffffffffffffffffffffffff021916908373ffffffffffffffffffffffffffffffffffffffff160217905550836000806101000a81548173ffffffffffffffffffffffffffffffffffffffff021916908373ffffffffffffffffffffffffffffffffffffffff16021790555082600890816200012d91906200066e565b5081600990816200013f91906200066e565b5080600a90816200015191906200066e565b505050505062000755565b6000604051905090565b600080fd5b600080fd5b600073ffffffffffffffffffffffffffffffffffffffff82169050919050565b60006200019d8262000170565b9050919050565b620001af8162000190565b8114620001bb57600080fd5b50565b600081519050620001cf81620001a4565b92915050565b600080fd5b600080fd5b6000601f19601f8301169050919050565b7f4e487b7100000000000000000000000000000000000000000000000000000000600052604160045260246000fd5b6200022a82620001df565b810181811067ffffffffffffffff821117156200024c576200024b620001f0565b5b80604052505050565b6000620002616200015c565b90506200026f82826200021f565b919050565b600067ffffffffffffffff821115620002925762000291620001f0565b5b6200029d82620001df565b9050602081019050919050565b60005b83811015620002ca578082015181840152602081019050620002ad565b60008484015250505050565b6000620002ed620002e78462000274565b62000255565b9050828152602081018484840111156200030c576200030b620001da565b5b62000319848285620002aa565b509392505050565b600082601f830112620003395762000338620001d5565b5b81516200034b848260208601620002d6565b91505092915050565b6000806000806080858703121562000371576200037062000166565b5b60006200038187828801620001be565b945050602085015167ffffffffffffffff811115620003a557620003a46200016b565b5b620003b38782880162000321565b935050604085015167ffffffffffffffff811115620003d757620003d66200016b565b5b620003e58782880162000321565b925050606085015167ffffffffffffffff8111156200040957620004086200016b565b5b620004178782880162000321565b91505092959194509250565b600081519050919050565b7f4e487b7100000000000000000000000000000000000000000000000000000000600052602260045260246000fd5b600060028204905060018216806200047657607f821691505b6020821081036200048c576200048b6200042e565b5b50919050565b60008190508160005260206000209050919050565b60006020601f8301049050919050565b600082821b905092915050565b600060088302620004f67fffffffffffffffffffffffffffffffffffffffffffffffffffffffffffffffff82620004b7565b620005028683620004b7565b95508019841693508086168417925050509392505050565b6000819050919050565b6000819050919050565b60006200054f6200054962000543846200051a565b62000524565b6200051a565b9050919050565b6000819050919050565b6200056b836200052e565b620005836200057a8262000556565b848454620004c4565b825550505050565b600090565b6200059a6200058b565b620005a781848462000560565b505050565b5b81811015620005cf57620005c360008262000590565b600181019050620005ad565b5050565b601f8211156200061e57620005e88162000492565b620005f384620004a7565b8101602085101562000603578190505b6200061b6200061285620004a7565b830182620005ac565b50505b505050565b600082821c905092915050565b6000620006436000198460080262000623565b1980831691505092915050565b60006200065e838362000630565b9150826002028217905092915050565b620006798262000423565b67ffffffffffffffff811115620006955762000694620001f0565b5b620006a182546200045d565b620006ae828285620005d3565b600060209050601f831160018114620006e65760008415620006d1578287015190505b620006dd858262000650565b8655506200074d565b601f198416620006f68662000492565b60005b828110156200072057848901518255600182019150602085019450602081019050620006f9565b868310156200074057848901516200073c601f89168262000630565b8355505b6001600288020188555050505b505050505050565b61348880620007656000396000f3fe608060405234801561001057600080fd5b50600436106101165760003560e01c806339ec3c82116100a2578063c4c7ab5a11610071578063c4c7ab5a146102c7578063dc5ab3da146102f9578063de5ab07a14610315578063fc37317914610333578063ffb086d51461035157610116565b806339ec3c821461024f578063760ea2481461026d578063adac594f1461028b578063b5e628ce146102a957610116565b80631ffa92dc116100e95780631ffa92dc146101bd578063203ceaaf146101db57806328841f19146101f75780632e35585a1461021357806339d519cb1461023157610116565b80630b81e9e51461011b5780631234f23b14610139578063189f98231461016d5780631e21d7571461018b575b600080fd5b61012361035b565b604051610130919061254a565b60405180910390f35b610153600480360381019061014e91906125b6565b6103ed565b6040516101649594939291906125f2565b60405180910390f35b6101756104f0565b604051610182919061254a565b60405180910390f35b6101a560048036038101906101a091906125b6565b61057e565b6040516101b49392919061269b565b60405180910390f35b6101c56105f8565b6040516101d2919061254a565b60405180910390f35b6101f560048036038101906101f09190612807565b61068a565b005b610211600480360381019061020c91906128a2565b610925565b005b61021b610bae565b6040516102289190612a7e565b60405180910390f35b610239610c78565b604051610246919061254a565b60405180910390f35b610257610d0a565b6040516102649190612aa0565b60405180910390f35b610275610d0f565b6040516102829190612aa0565b60405180910390f35b610293610d15565b6040516102a09190612aa0565b60405180910390f35b6102b1610d1b565b6040516102be919061254a565b60405180910390f35b6102e160048036038101906102dc91906125b6565b610da9565b6040516102f093929190612b32565b60405180910390f35b610313600480360381019061030e9190612b69565b610e2c565b005b61031d610f47565b60405161032a9190612cc5565b60405180910390f35b61033b61105c565b604051610348919061254a565b60405180910390f35b6103596110ea565b005b60606009805461036a90612d16565b80601f016020809104026020016040519081016040528092919081815260200182805461039690612d16565b80156103e35780601f106103b8576101008083540402835291602001916103e3565b820191906000526020600020905b8154815290600101906020018083116103c657829003601f168201915b5050505050905090565b6000806060806060600560009054906101000a900460ff1615610445576040517f08c379a000000000000000000000000000000000000000000000000000000000815260040161043c90612db9565b60405180910390fd5b60006006878154811061045b5761045a612dd9565b5b90600052602060002090600702016001016040518060a0016040529081600082015481526020016001820154815260200160028201548152602001600382015481526020016004820154815250509050806020015181604001516104c283608001516111cd565b6104cf84606001516111cd565b6104dc85600001516111cd565b955095509550955095505091939590929450565b600a80546104fd90612d16565b80601f016020809104026020016040519081016040528092919081815260200182805461052990612d16565b80156105765780601f1061054b57610100808354040283529160200191610576565b820191906000526020600020905b81548152906001019060200180831161055957829003601f168201915b505050505081565b6007818154811061058e57600080fd5b90600052602060002090600302016000915090508060000154908060010160009054906101000a900473ffffffffffffffffffffffffffffffffffffffff16908060020160009054906101000a900473ffffffffffffffffffffffffffffffffffffffff16905083565b6060600a805461060790612d16565b80601f016020809104026020016040519081016040528092919081815260200182805461063390612d16565b80156106805780601f1061065557610100808354040283529160200191610680565b820191906000526020600020905b81548152906001019060200180831161066357829003601f168201915b5050505050905090565b600260009054906101000a900473ffffffffffffffffffffffffffffffffffffffff1673ffffffffffffffffffffffffffffffffffffffff163373ffffffffffffffffffffffffffffffffffffffff161461071a576040517f08c379a000000000000000000000000000000000000000000000000000000000815260040161071190612e7a565b60405180910390fd5b600560009054906101000a900460ff161561076a576040517f08c379a000000000000000000000000000000000000000000000000000000000815260040161076190612db9565b60405180910390fd5b600060208201519050806006858154811061078857610787612dd9565b5b9060005260206000209060070201600101600301819055506107a984611368565b15610914576000600184036107e857600685815481106107cc576107cb612dd9565b5b9060005260206000209060070201600101600101549050610814565b600685815481106107fc576107fb612dd9565b5b90600052602060002090600702016001016002015490505b60006007828154811061082a57610829612dd9565b5b9060005260206000209060030201604051806060016040529081600082015481526020016001820160009054906101000a900473ffffffffffffffffffffffffffffffffffffffff1673ffffffffffffffffffffffffffffffffffffffff1673ffffffffffffffffffffffffffffffffffffffff1681526020016002820160009054906101000a900473ffffffffffffffffffffffffffffffffffffffff1673ffffffffffffffffffffffffffffffffffffffff1673ffffffffffffffffffffffffffffffffffffffff1681525050905061090d816020015182604001516113bc565b505061091f565b61091e8385611477565b5b50505050565b60206003541061096a576040517f08c379a000000000000000000000000000000000000000000000000000000000815260040161096190612ee6565b60405180910390fd5b600560009054906101000a900460ff166109b9576040517f08c379a00000000000000000000000000000000000000000000000000000000081526004016109b090612f78565b60405180910390fd5b8073ffffffffffffffffffffffffffffffffffffffff168273ffffffffffffffffffffffffffffffffffffffff1603610a27576040517f08c379a0000000000000000000000000000000000000000000000000000000008152600401610a1e9061300a565b60405180910390fd5b610a3182826115b1565b15610a71576040517f08c379a0000000000000000000000000000000000000000000000000000000008152600401610a689061309c565b60405180910390fd5b6007604051806060016040528060035481526020018473ffffffffffffffffffffffffffffffffffffffff1681526020018373ffffffffffffffffffffffffffffffffffffffff1681525090806001815401808255809150506001900390600052602060002090600302016000909190919091506000820151816000015560208201518160010160006101000a81548173ffffffffffffffffffffffffffffffffffffffff021916908373ffffffffffffffffffffffffffffffffffffffff16021790555060408201518160020160006101000a81548173ffffffffffffffffffffffffffffffffffffffff021916908373ffffffffffffffffffffffffffffffffffffffff160217905550505060036000815480929190610b92906130eb565b9190505550602060035403610baa57610ba96110ea565b5b5050565b60606006805480602002602001604051908101604052809291908181526020016000905b82821015610c6f578382906000526020600020906007020160405180606001604052908160008201548152602001600182016040518060a00160405290816000820154815260200160018201548152602001600282015481526020016003820154815260200160048201548152505081526020016006820160009054906101000a900460ff16151515158152505081526020019060010190610bd2565b50505050905090565b606060088054610c8790612d16565b80601f0160208091040260200160405190810160405280929190818152602001828054610cb390612d16565b8015610d005780601f10610cd557610100808354040283529160200191610d00565b820191906000526020600020905b815481529060010190602001808311610ce357829003601f168201915b5050505050905090565b602081565b60035481565b60045481565b60088054610d2890612d16565b80601f0160208091040260200160405190810160405280929190818152602001828054610d5490612d16565b8015610da15780601f10610d7657610100808354040283529160200191610da1565b820191906000526020600020905b815481529060010190602001808311610d8457829003601f168201915b505050505081565b60068181548110610db957600080fd5b9060005260206000209060070201600091509050806000015490806001016040518060a001604052908160008201548152602001600182015481526020016002820154815260200160038201548152602001600482015481525050908060060160009054906101000a900460ff16905083565b600260009054906101000a900473ffffffffffffffffffffffffffffffffffffffff1673ffffffffffffffffffffffffffffffffffffffff163373ffffffffffffffffffffffffffffffffffffffff1614610ebc576040517f08c379a0000000000000000000000000000000000000000000000000000000008152600401610eb390612e7a565b60405180910390fd5b600560009054906101000a900460ff1615610f0c576040517f08c379a0000000000000000000000000000000000000000000000000000000008152600401610f0390612db9565b60405180910390fd5b6000602082015190508060068481548110610f2a57610f29612dd9565b5b906000526020600020906007020160010160040181905550505050565b60606007805480602002602001604051908101604052809291908181526020016000905b828210156110535783829060005260206000209060030201604051806060016040529081600082015481526020016001820160009054906101000a900473ffffffffffffffffffffffffffffffffffffffff1673ffffffffffffffffffffffffffffffffffffffff1673ffffffffffffffffffffffffffffffffffffffff1681526020016002820160009054906101000a900473ffffffffffffffffffffffffffffffffffffffff1673ffffffffffffffffffffffffffffffffffffffff1673ffffffffffffffffffffffffffffffffffffffff168152505081526020019060010190610f6b565b50505050905090565b6009805461106990612d16565b80601f016020809104026020016040519081016040528092919081815260200182805461109590612d16565b80156110e25780601f106110b7576101008083540402835291602001916110e2565b820191906000526020600020905b8154815290600101906020018083116110c557829003601f168201915b505050505081565b600260009054906101000a900473ffffffffffffffffffffffffffffffffffffffff1673ffffffffffffffffffffffffffffffffffffffff163373ffffffffffffffffffffffffffffffffffffffff161461117a576040517f08c379a000000000000000000000000000000000000000000000000000000000815260040161117190612e7a565b60405180910390fd5b6000600560006101000a81548160ff02191690831515021790555061119d6117bb565b6111a5611985565b6111ad611c50565b6111b5611dd8565b6111bd611ff2565b6111c56120f0565b600481905550565b606060005b60208160ff161080156112245750600060f81b838260ff16602081106111fb576111fa612dd9565b5b1a60f81b7effffffffffffffffffffffffffffffffffffffffffffffffffffffffffffff191614155b1561123c57808061123490613140565b9150506111d2565b60008160ff1667ffffffffffffffff81111561125b5761125a6126dc565b5b6040519080825280601f01601f19166020018201604052801561128d5781602001600182028036833780820191505090505b509050600091505b60208260ff161080156112e75750600060f81b848360ff16602081106112be576112bd612dd9565b5b1a60f81b7effffffffffffffffffffffffffffffffffffffffffffffffffffffffffffff191614155b1561135e57838260ff166020811061130257611301612dd9565b5b1a60f81b818360ff168151811061131c5761131b612dd9565b5b60200101907effffffffffffffffffffffffffffffffffffffffffffffffffffffffffffff1916908160001a905350818061135690613140565b925050611295565b8092505050919050565b60007f46696e616c0000000000000000000000000000000000000000000000000000006006838154811061139f5761139e612dd9565b5b906000526020600020906007020160010160000154149050919050565b60008054906101000a900473ffffffffffffffffffffffffffffffffffffffff1673ffffffffffffffffffffffffffffffffffffffff1663f31a038c600260009054906101000a900473ffffffffffffffffffffffffffffffffffffffff168484600a60286040518663ffffffff1660e01b81526004016114419594939291906131e9565b600060405180830381600087803b15801561145b57600080fd5b505af115801561146f573d6000803e3d6000fd5b505050505050565b60006006828154811061148d5761148c612dd9565b5b906000526020600020906007020160405180606001604052908160008201548152602001600182016040518060a00160405290816000820154815260200160018201548152602001600282015481526020016003820154815260200160048201548152505081526020016006820160009054906101000a900460ff161515151581525050905060006001840361152d578160200151602001519050611539565b81602001516040015190505b8160400151156115795780600683600001518154811061155c5761155b612dd9565b5b9060005260206000209060070201600101600101819055506115ab565b80600683600001518154811061159257611591612dd9565b5b9060005260206000209060070201600101600201819055505b50505050565b600080600090505b6003548110156117af576000600782815481106115d9576115d8612dd9565b5b9060005260206000209060030201604051806060016040529081600082015481526020016001820160009054906101000a900473ffffffffffffffffffffffffffffffffffffffff1673ffffffffffffffffffffffffffffffffffffffff1673ffffffffffffffffffffffffffffffffffffffff1681526020016002820160009054906101000a900473ffffffffffffffffffffffffffffffffffffffff1673ffffffffffffffffffffffffffffffffffffffff1673ffffffffffffffffffffffffffffffffffffffff168152505090508473ffffffffffffffffffffffffffffffffffffffff16816020015173ffffffffffffffffffffffffffffffffffffffff16148061171757508373ffffffffffffffffffffffffffffffffffffffff16816020015173ffffffffffffffffffffffffffffffffffffffff16145b8061175157508473ffffffffffffffffffffffffffffffffffffffff16816040015173ffffffffffffffffffffffffffffffffffffffff16145b8061178b57508373ffffffffffffffffffffffffffffffffffffffff16816040015173ffffffffffffffffffffffffffffffffffffffff16145b1561179b576001925050506117b5565b5080806117a7906130eb565b9150506115b9565b50600090505b92915050565b60006117c860035461213d565b90506000808290505b60008111156119805760006117f16001836117ec919061323c565b61217f565b836117fc9190613270565b9250600083905060006001905060005b61182160018661181c919061323c565b61217f565b811015611969576002840361184357828061183b906130eb565b935050600093505b60006040518060a00160405280611865600189611860919061323c565b6121e0565b8152602001602281526020016022815260200160008019168152602001600080191681525090506000604051806060016040528086815260200183815260200185151581525090506006819080600181540180825580915050600190039060005260206000209060070201600090919091909150600082015181600001556020820151816001016000820151816000015560208201518160010155604082015181600201556060820151816003015560808201518160040155505060408201518160060160006101000a81548160ff0219169083151502179055505050831593508580611951906130eb565b96505050508080611961906130eb565b91505061180c565b505050508080611978906132a4565b9150506117d1565b505050565b60006007805480602002602001604051908101604052809291908181526020016000905b82821015611a915783829060005260206000209060030201604051806060016040529081600082015481526020016001820160009054906101000a900473ffffffffffffffffffffffffffffffffffffffff1673ffffffffffffffffffffffffffffffffffffffff1673ffffffffffffffffffffffffffffffffffffffff1681526020016002820160009054906101000a900473ffffffffffffffffffffffffffffffffffffffff1673ffffffffffffffffffffffffffffffffffffffff1673ffffffffffffffffffffffffffffffffffffffff1681525050815260200190600101906119a9565b505050509050600060078054905090505b6000811115611b50578080611ab6906132a4565b9150506000611ad0600183611acb9190613270565b6122de565b90506000838281518110611ae757611ae6612dd9565b5b60200260200101519050838381518110611b0457611b03612dd9565b5b6020026020010151848381518110611b1f57611b1e612dd9565b5b602002602001018190525080848481518110611b3e57611b3d612dd9565b5b60200260200101819052505050611aa2565b60005b600780549050811015611c4b57828181518110611b7357611b72612dd9565b5b602002602001015160078281548110611b8f57611b8e612dd9565b5b90600052602060002090600302016000820151816000015560208201518160010160006101000a81548173ffffffffffffffffffffffffffffffffffffffff021916908373ffffffffffffffffffffffffffffffffffffffff16021790555060408201518160020160006101000a81548173ffffffffffffffffffffffffffffffffffffffff021916908373ffffffffffffffffffffffffffffffffffffffff1602179055509050508080611c43906130eb565b915050611b53565b505050565b6000611c716001611c6260035461213d565b611c6c919061323c565b61217f565b905060005b81811015611daa57600060078281548110611c9457611c93612dd9565b5b9060005260206000209060030201604051806060016040529081600082015481526020016001820160009054906101000a900473ffffffffffffffffffffffffffffffffffffffff1673ffffffffffffffffffffffffffffffffffffffff1673ffffffffffffffffffffffffffffffffffffffff1681526020016002820160009054906101000a900473ffffffffffffffffffffffffffffffffffffffff1673ffffffffffffffffffffffffffffffffffffffff1673ffffffffffffffffffffffffffffffffffffffff16815250509050806000015160068381548110611d7e57611d7d612dd9565b5b906000526020600020906007020160010160010181905550508080611da2906130eb565b915050611c76565b50611dca6001611dbb60035461213d565b611dc5919061323c565b61217f565b9050611dd581612320565b50565b6000611df96001611dea60035461213d565b611df4919061323c565b61217f565b90506000600182611e0a919061323c565b90505b6000811115611fee576000600182611e259190613270565b423384604051602001611e3a93929190613336565b6040516020818303038152906040528051906020012060001c611e5d91906133a2565b9050600060068381548110611e7557611e74612dd9565b5b906000526020600020906007020160405180606001604052908160008201548152602001600182016040518060a00160405290816000820154815260200160018201548152602001600282015481526020016003820154815260200160048201548152505081526020016006820160009054906101000a900460ff161515151581525050905060068281548110611f0f57611f0e612dd9565b5b906000526020600020906007020160010160068481548110611f3457611f33612dd9565b5b90600052602060002090600702016001016000820154816000015560018201548160010155600282015481600201556003820154816003015560048201548160040155905050806020015160068381548110611f9357611f92612dd9565b5b9060005260206000209060070201600101600082015181600001556020820151816001015560408201518160020155606082015181600301556080820151816004015590505050508080611fe6906132a4565b915050611e0d565b5050565b6000612013600161200460035461213d565b61200e919061323c565b61217f565b905060005b818110156120ec5760006006828154811061203657612035612dd9565b5b906000526020600020906007020160405180606001604052908160008201548152602001600182016040518060a00160405290816000820154815260200160018201548152602001600282015481526020016003820154815260200160048201548152505081526020016006820160009054906101000a900460ff16151515158152505090506022816020015160400151036120d8576120d7600183611477565b5b5080806120e4906130eb565b915050612018565b5050565b6000806000905060005b61210560035461213d565b811015612135576121158161217f565b826121209190613270565b9150808061212d906130eb565b9150506120fa565b508091505090565b600080600090506000600190505b838110156121755760028161216091906133d3565b9050818061216d906130eb565b92505061214b565b8192505050919050565b60006004820361219257601090506121db565b600382036121a357600890506121db565b600282036121b457600490506121db565b600182036121c557600290506121db565b600082036121d657600190506121db565b600090505b919050565b600060048203612212577f44696563697365697361766f000000000000000000000000000000000000000090506122d9565b60038203612242577f4f637461766f000000000000000000000000000000000000000000000000000090506122d9565b60028203612272577f43756172746f000000000000000000000000000000000000000000000000000090506122d9565b600182036122a2577f53656d6966696e616c000000000000000000000000000000000000000000000090506122d9565b600082036122d2577f46696e616c00000000000000000000000000000000000000000000000000000090506122d9565b6000801b90505b919050565b6000814244336040516020016122f693929190613415565b6040516020818303038152906040528051906020012060001c61231991906133a2565b9050919050565b600081905060008190505b6003548110156124b55760006007828154811061234b5761234a612dd9565b5b9060005260206000209060030201604051806060016040529081600082015481526020016001820160009054906101000a900473ffffffffffffffffffffffffffffffffffffffff1673ffffffffffffffffffffffffffffffffffffffff1673ffffffffffffffffffffffffffffffffffffffff1681526020016002820160009054906101000a900473ffffffffffffffffffffffffffffffffffffffff1673ffffffffffffffffffffffffffffffffffffffff1673ffffffffffffffffffffffffffffffffffffffff1681525050905060005b848110156124a05760226006828154811061243d5761243c612dd9565b5b9060005260206000209060070201600101600201540361248d578160000151600682815481106124705761246f612dd9565b5b9060005260206000209060070201600101600201819055506124a0565b8080612498906130eb565b91505061241f565b505080806124ad906130eb565b91505061232b565b505050565b600081519050919050565b600082825260208201905092915050565b60005b838110156124f45780820151818401526020810190506124d9565b60008484015250505050565b6000601f19601f8301169050919050565b600061251c826124ba565b61252681856124c5565b93506125368185602086016124d6565b61253f81612500565b840191505092915050565b600060208201905081810360008301526125648184612511565b905092915050565b6000604051905090565b600080fd5b600080fd5b6000819050919050565b61259381612580565b811461259e57600080fd5b50565b6000813590506125b08161258a565b92915050565b6000602082840312156125cc576125cb612576565b5b60006125da848285016125a1565b91505092915050565b6125ec81612580565b82525050565b600060a08201905061260760008301886125e3565b61261460208301876125e3565b81810360408301526126268186612511565b9050818103606083015261263a8185612511565b9050818103608083015261264e8184612511565b90509695505050505050565b600073ffffffffffffffffffffffffffffffffffffffff82169050919050565b60006126858261265a565b9050919050565b6126958161267a565b82525050565b60006060820190506126b060008301866125e3565b6126bd602083018561268c565b6126ca604083018461268c565b949350505050565b600080fd5b600080fd5b7f4e487b7100000000000000000000000000000000000000000000000000000000600052604160045260246000fd5b61271482612500565b810181811067ffffffffffffffff82111715612733576127326126dc565b5b80604052505050565b600061274661256c565b9050612752828261270b565b919050565b600067ffffffffffffffff821115612772576127716126dc565b5b61277b82612500565b9050602081019050919050565b82818337600083830152505050565b60006127aa6127a584612757565b61273c565b9050828152602081018484840111156127c6576127c56126d7565b5b6127d1848285612788565b509392505050565b600082601f8301126127ee576127ed6126d2565b5b81356127fe848260208601612797565b91505092915050565b6000806000606084860312156128205761281f612576565b5b600061282e868287016125a1565b935050602061283f868287016125a1565b925050604084013567ffffffffffffffff8111156128605761285f61257b565b5b61286c868287016127d9565b9150509250925092565b61287f8161267a565b811461288a57600080fd5b50565b60008135905061289c81612876565b92915050565b600080604083850312156128b9576128b8612576565b5b60006128c78582860161288d565b92505060206128d88582860161288d565b9150509250929050565b600081519050919050565b600082825260208201905092915050565b6000819050602082019050919050565b61291781612580565b82525050565b6000819050919050565b6129308161291d565b82525050565b60a08201600082015161294c6000850182612927565b50602082015161295f602085018261290e565b506040820151612972604085018261290e565b5060608201516129856060850182612927565b5060808201516129986080850182612927565b50505050565b60008115159050919050565b6129b38161299e565b82525050565b60e0820160008201516129cf600085018261290e565b5060208201516129e26020850182612936565b5060408201516129f560c08501826129aa565b50505050565b6000612a0783836129b9565b60e08301905092915050565b6000602082019050919050565b6000612a2b826128e2565b612a3581856128ed565b9350612a40836128fe565b8060005b83811015612a71578151612a5888826129fb565b9750612a6383612a13565b925050600181019050612a44565b5085935050505092915050565b60006020820190508181036000830152612a988184612a20565b905092915050565b6000602082019050612ab560008301846125e3565b92915050565b60a082016000820151612ad16000850182612927565b506020820151612ae4602085018261290e565b506040820151612af7604085018261290e565b506060820151612b0a6060850182612927565b506080820151612b1d6080850182612927565b50505050565b612b2c8161299e565b82525050565b600060e082019050612b4760008301866125e3565b612b546020830185612abb565b612b6160c0830184612b23565b949350505050565b60008060408385031215612b8057612b7f612576565b5b6000612b8e858286016125a1565b925050602083013567ffffffffffffffff811115612baf57612bae61257b565b5b612bbb858286016127d9565b9150509250929050565b600081519050919050565b600082825260208201905092915050565b6000819050602082019050919050565b612bfa8161267a565b82525050565b606082016000820151612c16600085018261290e565b506020820151612c296020850182612bf1565b506040820151612c3c6040850182612bf1565b50505050565b6000612c4e8383612c00565b60608301905092915050565b6000602082019050919050565b6000612c7282612bc5565b612c7c8185612bd0565b9350612c8783612be1565b8060005b83811015612cb8578151612c9f8882612c42565b9750612caa83612c5a565b925050600181019050612c8b565b5085935050505092915050565b60006020820190508181036000830152612cdf8184612c67565b905092915050565b7f4e487b7100000000000000000000000000000000000000000000000000000000600052602260045260246000fd5b60006002820490506001821680612d2e57607f821691505b602082108103612d4157612d40612ce7565b5b50919050565b7f41756e206e6f2073652068616e2067656e657261646f206c617320706172746960008201527f6461730000000000000000000000000000000000000000000000000000000000602082015250565b6000612da36023836124c5565b9150612dae82612d47565b604082019050919050565b60006020820190508181036000830152612dd281612d96565b9050919050565b7f4e487b7100000000000000000000000000000000000000000000000000000000600052603260045260246000fd5b7f4e6f207469656e6573207065726d69736f732064652061646d696e697374726160008201527f646f720000000000000000000000000000000000000000000000000000000000602082015250565b6000612e646023836124c5565b9150612e6f82612e08565b604082019050919050565b60006020820190508181036000830152612e9381612e57565b9050919050565b7f456c20746f726e656f206573746120636f6d706c65746f000000000000000000600082015250565b6000612ed06017836124c5565b9150612edb82612e9a565b602082019050919050565b60006020820190508181036000830152612eff81612ec3565b9050919050565b7f4c61206661736520646520696e736372697063696f6e206861207369646f206360008201527f6572726164610000000000000000000000000000000000000000000000000000602082015250565b6000612f626026836124c5565b9150612f6d82612f06565b604082019050919050565b60006020820190508181036000830152612f9181612f55565b9050919050565b7f4e6f20736520707565646520696e7363726962697220616c206d69736d6f206a60008201527f756761646f7220656e20756e206d69736d6f2065717569706f00000000000000602082015250565b6000612ff46039836124c5565b9150612fff82612f98565b604082019050919050565b6000602082019050818103600083015261302381612fe7565b9050919050565b7f416c67756e6f206465206c6f73206a756761646f72657320796120657374612060008201527f696e73637269746f20656e206f74726f2065717569706f000000000000000000602082015250565b60006130866037836124c5565b91506130918261302a565b604082019050919050565b600060208201905081810360008301526130b581613079565b9050919050565b7f4e487b7100000000000000000000000000000000000000000000000000000000600052601160045260246000fd5b60006130f682612580565b91507fffffffffffffffffffffffffffffffffffffffffffffffffffffffffffffffff8203613128576131276130bc565b5b600182019050919050565b600060ff82169050919050565b600061314b82613133565b915060ff820361315e5761315d6130bc565b5b600182019050919050565b6000819050919050565b6000819050919050565b600061319861319361318e84613169565b613173565b612580565b9050919050565b6131a88161317d565b82525050565b6000819050919050565b60006131d36131ce6131c9846131ae565b613173565b612580565b9050919050565b6131e3816131b8565b82525050565b600060a0820190506131fe600083018861268c565b61320b602083018761268c565b613218604083018661268c565b613225606083018561319f565b61323260808301846131da565b9695505050505050565b600061324782612580565b915061325283612580565b925082820390508181111561326a576132696130bc565b5b92915050565b600061327b82612580565b915061328683612580565b925082820190508082111561329e5761329d6130bc565b5b92915050565b60006132af82612580565b9150600082036132c2576132c16130bc565b5b600182039050919050565b6000819050919050565b6132e86132e382612580565b6132cd565b82525050565b60008160601b9050919050565b6000613306826132ee565b9050919050565b6000613318826132fb565b9050919050565b61333061332b8261267a565b61330d565b82525050565b600061334282866132d7565b602082019150613352828561331f565b60148201915061336282846132d7565b602082019150819050949350505050565b7f4e487b7100000000000000000000000000000000000000000000000000000000600052601260045260246000fd5b60006133ad82612580565b91506133b883612580565b9250826133c8576133c7613373565b5b828206905092915050565b60006133de82612580565b91506133e983612580565b92508282026133f781612580565b9150828204841483151761340e5761340d6130bc565b5b5092915050565b600061342182866132d7565b60208201915061343182856132d7565b602082019150613441828461331f565b60148201915081905094935050505056fea264697066735822122089cff0fca7fb7b9f348ff8f7bf74480101939310bee67c99c62f360e88b0f40864736f6c63430008130033",
  "immutableReferences": {},
  "source": "// SPDX-License-Identifier: GPL-3.0\r\npragma solidity ^0.8.19;\r\n\r\nimport \"./PadelToken.sol\";\r\n\r\ncontract Torneo {\r\n\r\n    PadelToken private padelToken;\r\n\r\n    address private tokenContract;\r\n\r\n    uint256 public constant MAX_EQUIPOS = 32;\r\n\r\n    uint constant BYE_ID = 34;\r\n\r\n    address creador;\r\n\r\n    struct Partida {\r\n        bytes32 ronda;\r\n        uint equipo1Id;\r\n        uint equipo2Id;\r\n        bytes32 resultado;\r\n        bytes32 horario;\r\n    }\r\n\r\n    struct NodoCuadro {\r\n        uint proximaPartidaId;\r\n        Partida partida;\r\n        bool cuadroArriba;\r\n    }\r\n\r\n    struct Equipo {\r\n        uint equipoId;\r\n        address jugador1;\r\n        address jugador2;\r\n    }\r\n\r\n    uint public numeroEquipos;\r\n    uint public totalPartidas;\r\n    bool faseInscripcion;\r\n\r\n    NodoCuadro[] public partidas;\r\n\r\n    Equipo[] public equipos;\r\n\r\n    string public nombreTorneo;\r\n\r\n    string public fechaInicio;\r\n\r\n    string public fechaFin;\r\n\r\n    constructor(address _tokenContract, string memory _nombreTorneo, string memory _fechaInicio, string memory _fechaFin) {\r\n        totalPartidas = 0;\r\n        faseInscripcion = true;\r\n        creador = msg.sender;\r\n        tokenContract = _tokenContract;\r\n        padelToken = PadelToken(_tokenContract);\r\n        nombreTorneo = _nombreTorneo;\r\n        fechaInicio = _fechaInicio;\r\n        fechaFin = _fechaFin;\r\n    }\r\n\r\n    function getFechaInicio() public view returns (string memory) {\r\n        return fechaInicio;\r\n    }\r\n\r\n    function getFechaFin() public view returns (string memory) {\r\n        return fechaFin;\r\n    }\r\n\r\n    function getNombreTorneo() public view returns (string memory) {\r\n        return nombreTorneo;\r\n    }\r\n\r\n    modifier onlyOwner() {\r\n        require(msg.sender == creador, \"No tienes permisos de administrador\");\r\n        _;\r\n    }\r\n\r\n    function equiposByPartida(uint numPartida) public view returns(uint, uint, string memory, string memory, string memory) {\r\n        require(!faseInscripcion, \"Aun no se han generado las partidas\");\r\n        Partida memory partida = partidas[numPartida].partida;\r\n        return (partida.equipo1Id, partida.equipo2Id, toString(partida.horario), toString(partida.resultado), toString(partida.ronda));\r\n    }\r\n\r\n    function generarEmparejamientos() private {\r\n        uint numPartidosPrimeraRonda = numeroDePartidasByRonda(calcularRondas(numeroEquipos) - 1);\r\n        for(uint i = 0; i < numPartidosPrimeraRonda; i++){\r\n            Equipo memory equipo = equipos[i];\r\n            partidas[i].partida.equipo1Id = equipo.equipoId;\r\n        }\r\n        numPartidosPrimeraRonda = numeroDePartidasByRonda(calcularRondas(numeroEquipos) - 1);\r\n        addEquipos2(numPartidosPrimeraRonda);\r\n    }\r\n\r\n    function addEquipos2(uint numPartidosPrimeraRonda) private {\r\n        uint equipoRestante = numPartidosPrimeraRonda;\r\n        for(uint i = equipoRestante; i < numeroEquipos; i++){\r\n            Equipo memory equipo = equipos[i];\r\n            for(uint j = 0; j < numPartidosPrimeraRonda; j++){\r\n                if (partidas[j].partida.equipo2Id == BYE_ID) {\r\n                    partidas[j].partida.equipo2Id = equipo.equipoId;\r\n                    break;\r\n                }\r\n            }\r\n        }\r\n    }\r\n\r\n    function getEquipos() public view returns (Equipo[] memory) {\r\n        return equipos;\r\n    }\r\n\r\n    function sorteoEquipos() private {\r\n        Equipo[] memory tempArr = equipos;\r\n        uint n = equipos.length;\r\n\r\n        while (n > 0) {\r\n            n--;\r\n            uint randIndex = _random(n + 1);\r\n            Equipo memory temp = tempArr[randIndex];\r\n            tempArr[randIndex] = tempArr[n];\r\n            tempArr[n] = temp;\r\n        }\r\n\r\n        for (uint i = 0; i < equipos.length; i++) {\r\n            equipos[i] = tempArr[i];\r\n        }\r\n    }\r\n\r\n    function _random(uint _max) private view returns (uint) {\r\n        return uint(keccak256(abi.encodePacked(block.timestamp, block.difficulty, msg.sender))) % _max;\r\n    }\r\n\r\n\r\n    function addEquipo(address jugador1, address jugador2) public {\r\n        //TODO: ACTIVAR Y PROBAR ESTO: require(msg.sender == tokenContract, \"Debes realizar el pago antes de inscribirte\");\r\n        require(numeroEquipos < MAX_EQUIPOS, \"El torneo esta completo\");\r\n        require(faseInscripcion, \"La fase de inscripcion ha sido cerrada\");\r\n        require(jugador1 != jugador2, \"No se puede inscribir al mismo jugador en un mismo equipo\");\r\n        require(!isInscrito(jugador1, jugador2), \"Alguno de los jugadores ya esta inscrito en otro equipo\");\r\n\r\n        equipos.push(Equipo(numeroEquipos, jugador1, jugador2));\r\n        numeroEquipos++;\r\n        if (numeroEquipos == MAX_EQUIPOS) {\r\n            cerrarInscripciones();\r\n        }\r\n    }\r\n\r\n    function cerrarInscripciones() public onlyOwner {        \r\n        faseInscripcion = false;\r\n        inicializarPartidas();\r\n        sorteoEquipos();\r\n        generarEmparejamientos();\r\n        mezclarPartidas();\r\n        pasarDeRondaEquiposConBye();\r\n        totalPartidas = calcularTotalPartidas();\r\n    }\r\n\r\n    function pasarDeRondaEquiposConBye() private {\r\n        uint numPartidosPrimeraRonda = numeroDePartidasByRonda(calcularRondas(numeroEquipos) - 1);\r\n\r\n        for(uint i = 0; i < numPartidosPrimeraRonda; i++) {\r\n            NodoCuadro memory nodoCuadro = partidas[i];\r\n            if (nodoCuadro.partida.equipo2Id == BYE_ID) {\r\n            pasarDeRonda(1, i);\r\n            }\r\n        }\r\n\r\n    }\r\n\r\n    function pasarDeRonda(uint numEquipoEnPartida, uint numPartida) private {\r\n        NodoCuadro memory nodoCuadro = partidas[numPartida];\r\n        uint equipoId;\r\n        if (numEquipoEnPartida == 1) {\r\n            equipoId = nodoCuadro.partida.equipo1Id;\r\n        } else {\r\n            equipoId = nodoCuadro.partida.equipo2Id;\r\n        }\r\n\r\n        if (nodoCuadro.cuadroArriba) {\r\n            partidas[nodoCuadro.proximaPartidaId].partida.equipo1Id = equipoId;\r\n        } else {\r\n            partidas[nodoCuadro.proximaPartidaId].partida.equipo2Id = equipoId;\r\n        }\r\n    }\r\n\r\n    function mezclarPartidas() private {\r\n        uint n = numeroDePartidasByRonda(calcularRondas(numeroEquipos) - 1);\r\n\r\n        for (uint i = n - 1; i > 0; i--) {\r\n            uint j = uint(keccak256(abi.encodePacked(block.timestamp, msg.sender, i))) % (i + 1);\r\n            NodoCuadro memory temp = partidas[i];\r\n            partidas[i].partida = partidas[j].partida;\r\n            partidas[j].partida = temp.partida;\r\n        }\r\n    }\r\n\r\n    function inicializarPartidas() private {\r\n        uint numRondas = calcularRondas(numeroEquipos);\r\n        uint nextPartidoSiguienteRonda = 0;\r\n        for(uint i = numRondas; i > 0; i--){\r\n            uint partidaRellenada = 0;\r\n            nextPartidoSiguienteRonda += numeroDePartidasByRonda(i - 1);\r\n            uint siguienteRonda = nextPartidoSiguienteRonda;\r\n            bool cuadroArriba = true;\r\n            for(uint j = 0; j < numeroDePartidasByRonda(i - 1); j++) {   \r\n                if (partidaRellenada == 2) {\r\n                    siguienteRonda++;\r\n                    partidaRellenada = 0;\r\n                }\r\n\r\n                Partida memory partida = Partida(ronda(i - 1), BYE_ID, BYE_ID, \"\", \"\");\r\n                NodoCuadro memory nodoCuadro = NodoCuadro(siguienteRonda, partida, cuadroArriba);\r\n                partidas.push(nodoCuadro);\r\n                cuadroArriba = !cuadroArriba;\r\n                partidaRellenada++;\r\n            }\r\n        }\r\n    }\r\n\r\n    function isInscrito(address jugador1, address jugador2) private view returns (bool) {\r\n        for(uint i = 0; i < numeroEquipos; i++){\r\n            Equipo memory equipo = equipos[i];\r\n            if (equipo.jugador1 == jugador1 || equipo.jugador1 == jugador2\r\n                || equipo.jugador2 == jugador1 || equipo.jugador2 == jugador2){\r\n                return true;\r\n            }\r\n        }\r\n        return false;\r\n    }\r\n    \r\n    function numeroDePartidasByRonda (uint numRronda) private pure returns (uint) {\r\n        if (numRronda == 4) { // dieciseisavos\r\n            return 16;\r\n        } else if (numRronda == 3) { // octavos\r\n            return 8;\r\n        } else if (numRronda == 2) { // cuartos\r\n            return 4;\r\n        } else if (numRronda == 1) { // semis\r\n            return 2;\r\n        } else if (numRronda == 0) { // final\r\n            return 1;\r\n        }\r\n        return 0;\r\n    }\r\n\r\n    function ronda (uint numRonda) private pure returns (bytes32) {\r\n        if (numRonda == 4) { // dieciseisavos\r\n            return \"Dieciseisavo\";\r\n        } else if (numRonda == 3) { // octavos\r\n            return \"Octavo\";\r\n        } else if (numRonda == 2) { // cuartos\r\n            return \"Cuarto\";\r\n        } else if (numRonda == 1) { // semis\r\n            return \"Semifinal\";\r\n        } else if (numRonda == 0) { // final\r\n            return \"Final\";\r\n        }\r\n        return 0;\r\n    }\r\n\r\n    function isFinal(uint partida) private view returns (bool) {\r\n        return partidas[partida].partida.ronda == \"Final\";\r\n    }\r\n\r\n    function calcularRondas(uint _equipos) private pure returns (uint) {\r\n        uint rondas = 0;\r\n        uint potenciaDeDos = 1;\r\n\r\n        while (potenciaDeDos < _equipos) {\r\n            potenciaDeDos *= 2;\r\n            rondas++;\r\n        }\r\n        return rondas;\r\n    }\r\n\r\n    function getPartidas() public view returns (NodoCuadro[] memory) {\r\n        return partidas;\r\n    }\r\n\r\n    function calcularTotalPartidas() private view returns (uint) {\r\n        uint res = 0;\r\n\r\n        for(uint i = 0; i < calcularRondas(numeroEquipos); i++) {\r\n            res += numeroDePartidasByRonda(i);\r\n        }\r\n        \r\n        return res;\r\n    }\r\n\r\n    function setResultado(uint numPartida, uint numEquipoPartidaGanador, string memory _resultado) public onlyOwner {\r\n        require(!faseInscripcion, \"Aun no se han generado las partidas\");\r\n        bytes32 resultado;\r\n        assembly {\r\n            resultado := mload(add(_resultado, 32))\r\n        }\r\n        partidas[numPartida].partida.resultado = resultado;\r\n\r\n        if(isFinal(numPartida)){\r\n            uint equipoId;\r\n            if(numEquipoPartidaGanador == 1){\r\n                equipoId = partidas[numPartida].partida.equipo1Id;\r\n            } else {\r\n                equipoId = partidas[numPartida].partida.equipo2Id;\r\n            }\r\n            Equipo memory equipoGanador = equipos[equipoId];\r\n            distribuirTokens(equipoGanador.jugador1, equipoGanador.jugador2);\r\n        } else {\r\n            pasarDeRonda(numEquipoPartidaGanador, numPartida);\r\n        }\r\n    }\r\n\r\n    function setHorario(uint numPartida, string memory _horario) public onlyOwner {\r\n        require(!faseInscripcion, \"Aun no se han generado las partidas\");\r\n        bytes32 horario;\r\n        assembly {\r\n            horario := mload(add(_horario, 32))\r\n        }\r\n        partidas[numPartida].partida.horario = horario;\r\n    }\r\n\r\n    function distribuirTokens(address jugador1, address jugador2) private {\r\n        padelToken.recompensaTorneo(creador, jugador1, jugador2, 10, 40);\r\n    }\r\n\r\n    function toString(bytes32 _bytes32) private pure returns (string memory) {\r\n        uint8 i = 0;\r\n        while(i < 32 && _bytes32[i] != 0) {\r\n            i++;\r\n        }\r\n        bytes memory bytesArray = new bytes(i);\r\n        for (i = 0; i < 32 && _bytes32[i] != 0; i++) {\r\n            bytesArray[i] = _bytes32[i];\r\n        }\r\n        return string(bytesArray);\r\n    }\r\n\r\n}\r\n",
  "sourcePath": "C:\\Users\\Coti Hamo\\Desktop\\truffle\\contracts\\Torneo.sol",
  "compiler": {
    "name": "solc",
    "version": "0.8.19+commit.7dd6d404.Emscripten.clang"
  },
  "schemaVersion": "3.4.16",
  "updatedAt": "2024-04-08T15:54:10.467Z",
  "networkType": "ethereum",
  "devdoc": {
    "kind": "dev",
    "methods": {},
    "version": 1
  },
  "userdoc": {
    "kind": "user",
    "methods": {},
    "version": 1
  }
}