{
  "contractName": "Torneo",
  "abi": [
    {
      "inputs": [
        {
          "internalType": "address",
          "name": "_tokenContract",
          "type": "address"
        },
        {
          "internalType": "string",
          "name": "_nombreTorneo",
          "type": "string"
        },
        {
          "internalType": "string",
          "name": "_fechaInicio",
          "type": "string"
        },
        {
          "internalType": "string",
          "name": "_fechaFin",
          "type": "string"
        }
      ],
      "stateMutability": "nonpayable",
      "type": "constructor"
    },
    {
      "inputs": [],
      "name": "MAX_EQUIPOS",
      "outputs": [
        {
          "internalType": "uint256",
          "name": "",
          "type": "uint256"
        }
      ],
      "stateMutability": "view",
      "type": "function"
    },
    {
      "inputs": [
        {
          "internalType": "uint256",
          "name": "",
          "type": "uint256"
        }
      ],
      "name": "equipos",
      "outputs": [
        {
          "internalType": "uint256",
          "name": "equipoId",
          "type": "uint256"
        },
        {
          "internalType": "address",
          "name": "jugador1",
          "type": "address"
        },
        {
          "internalType": "address",
          "name": "jugador2",
          "type": "address"
        }
      ],
      "stateMutability": "view",
      "type": "function"
    },
    {
      "inputs": [],
      "name": "fechaFin",
      "outputs": [
        {
          "internalType": "string",
          "name": "",
          "type": "string"
        }
      ],
      "stateMutability": "view",
      "type": "function"
    },
    {
      "inputs": [],
      "name": "fechaInicio",
      "outputs": [
        {
          "internalType": "string",
          "name": "",
          "type": "string"
        }
      ],
      "stateMutability": "view",
      "type": "function"
    },
    {
      "inputs": [],
      "name": "nombreTorneo",
      "outputs": [
        {
          "internalType": "string",
          "name": "",
          "type": "string"
        }
      ],
      "stateMutability": "view",
      "type": "function"
    },
    {
      "inputs": [],
      "name": "numeroEquipos",
      "outputs": [
        {
          "internalType": "uint256",
          "name": "",
          "type": "uint256"
        }
      ],
      "stateMutability": "view",
      "type": "function"
    },
    {
      "inputs": [
        {
          "internalType": "uint256",
          "name": "",
          "type": "uint256"
        }
      ],
      "name": "partidas",
      "outputs": [
        {
          "internalType": "uint256",
          "name": "proximaPartidaId",
          "type": "uint256"
        },
        {
          "components": [
            {
              "internalType": "string",
              "name": "ronda",
              "type": "string"
            },
            {
              "internalType": "uint256",
              "name": "equipo1Id",
              "type": "uint256"
            },
            {
              "internalType": "uint256",
              "name": "equipo2Id",
              "type": "uint256"
            },
            {
              "internalType": "string",
              "name": "resultado",
              "type": "string"
            },
            {
              "internalType": "string",
              "name": "horario",
              "type": "string"
            },
            {
              "internalType": "uint256",
              "name": "ganador",
              "type": "uint256"
            }
          ],
          "internalType": "struct Torneo.Partida",
          "name": "partida",
          "type": "tuple"
        },
        {
          "internalType": "bool",
          "name": "cuadroArriba",
          "type": "bool"
        }
      ],
      "stateMutability": "view",
      "type": "function"
    },
    {
      "inputs": [],
      "name": "totalPartidas",
      "outputs": [
        {
          "internalType": "uint256",
          "name": "",
          "type": "uint256"
        }
      ],
      "stateMutability": "view",
      "type": "function"
    },
    {
      "inputs": [],
      "name": "getFechaInicio",
      "outputs": [
        {
          "internalType": "string",
          "name": "",
          "type": "string"
        }
      ],
      "stateMutability": "view",
      "type": "function"
    },
    {
      "inputs": [],
      "name": "getFechaFin",
      "outputs": [
        {
          "internalType": "string",
          "name": "",
          "type": "string"
        }
      ],
      "stateMutability": "view",
      "type": "function"
    },
    {
      "inputs": [],
      "name": "getNombreTorneo",
      "outputs": [
        {
          "internalType": "string",
          "name": "",
          "type": "string"
        }
      ],
      "stateMutability": "view",
      "type": "function"
    },
    {
      "inputs": [
        {
          "internalType": "uint256",
          "name": "numPartida",
          "type": "uint256"
        }
      ],
      "name": "equiposByPartida",
      "outputs": [
        {
          "internalType": "uint256",
          "name": "",
          "type": "uint256"
        },
        {
          "internalType": "uint256",
          "name": "",
          "type": "uint256"
        },
        {
          "internalType": "string",
          "name": "",
          "type": "string"
        },
        {
          "internalType": "string",
          "name": "",
          "type": "string"
        },
        {
          "internalType": "string",
          "name": "",
          "type": "string"
        }
      ],
      "stateMutability": "view",
      "type": "function"
    },
    {
      "inputs": [],
      "name": "getEquipos",
      "outputs": [
        {
          "components": [
            {
              "internalType": "uint256",
              "name": "equipoId",
              "type": "uint256"
            },
            {
              "internalType": "address",
              "name": "jugador1",
              "type": "address"
            },
            {
              "internalType": "address",
              "name": "jugador2",
              "type": "address"
            }
          ],
          "internalType": "struct Torneo.Equipo[]",
          "name": "",
          "type": "tuple[]"
        }
      ],
      "stateMutability": "view",
      "type": "function"
    },
    {
      "inputs": [
        {
          "internalType": "address",
          "name": "jugador1",
          "type": "address"
        },
        {
          "internalType": "address",
          "name": "jugador2",
          "type": "address"
        }
      ],
      "name": "addEquipo",
      "outputs": [],
      "stateMutability": "nonpayable",
      "type": "function"
    },
    {
      "inputs": [],
      "name": "cerrarInscripciones",
      "outputs": [],
      "stateMutability": "nonpayable",
      "type": "function"
    },
    {
      "inputs": [],
      "name": "getPartidas",
      "outputs": [
        {
          "components": [
            {
              "internalType": "uint256",
              "name": "proximaPartidaId",
              "type": "uint256"
            },
            {
              "components": [
                {
                  "internalType": "string",
                  "name": "ronda",
                  "type": "string"
                },
                {
                  "internalType": "uint256",
                  "name": "equipo1Id",
                  "type": "uint256"
                },
                {
                  "internalType": "uint256",
                  "name": "equipo2Id",
                  "type": "uint256"
                },
                {
                  "internalType": "string",
                  "name": "resultado",
                  "type": "string"
                },
                {
                  "internalType": "string",
                  "name": "horario",
                  "type": "string"
                },
                {
                  "internalType": "uint256",
                  "name": "ganador",
                  "type": "uint256"
                }
              ],
              "internalType": "struct Torneo.Partida",
              "name": "partida",
              "type": "tuple"
            },
            {
              "internalType": "bool",
              "name": "cuadroArriba",
              "type": "bool"
            }
          ],
          "internalType": "struct Torneo.NodoCuadro[]",
          "name": "",
          "type": "tuple[]"
        }
      ],
      "stateMutability": "view",
      "type": "function"
    },
    {
      "inputs": [
        {
          "internalType": "uint256",
          "name": "numPartida",
          "type": "uint256"
        },
        {
          "internalType": "uint256",
          "name": "numEquipoPartidaGanador",
          "type": "uint256"
        },
        {
          "internalType": "string",
          "name": "_resultado",
          "type": "string"
        }
      ],
      "name": "setResultado",
      "outputs": [],
      "stateMutability": "nonpayable",
      "type": "function"
    },
    {
      "inputs": [
        {
          "internalType": "uint256",
          "name": "numPartida",
          "type": "uint256"
        },
        {
          "internalType": "string",
          "name": "_horario",
          "type": "string"
        }
      ],
      "name": "setHorario",
      "outputs": [],
      "stateMutability": "nonpayable",
      "type": "function"
    }
  ],
  "bytecode": "0x60806040523480156200001157600080fd5b5060405162004e8738038062004e87833981810160405281019062000037919062000354565b60006004819055506001600560006101000a81548160ff02191690831515021790555033600260006101000a81548173ffffffffffffffffffffffffffffffffffffffff021916908373ffffffffffffffffffffffffffffffffffffffff16021790555083600160006101000a81548173ffffffffffffffffffffffffffffffffffffffff021916908373ffffffffffffffffffffffffffffffffffffffff160217905550836000806101000a81548173ffffffffffffffffffffffffffffffffffffffff021916908373ffffffffffffffffffffffffffffffffffffffff16021790555082600890816200012d91906200066e565b5081600990816200013f91906200066e565b5080600a90816200015191906200066e565b505050505062000755565b6000604051905090565b600080fd5b600080fd5b600073ffffffffffffffffffffffffffffffffffffffff82169050919050565b60006200019d8262000170565b9050919050565b620001af8162000190565b8114620001bb57600080fd5b50565b600081519050620001cf81620001a4565b92915050565b600080fd5b600080fd5b6000601f19601f8301169050919050565b7f4e487b7100000000000000000000000000000000000000000000000000000000600052604160045260246000fd5b6200022a82620001df565b810181811067ffffffffffffffff821117156200024c576200024b620001f0565b5b80604052505050565b6000620002616200015c565b90506200026f82826200021f565b919050565b600067ffffffffffffffff821115620002925762000291620001f0565b5b6200029d82620001df565b9050602081019050919050565b60005b83811015620002ca578082015181840152602081019050620002ad565b60008484015250505050565b6000620002ed620002e78462000274565b62000255565b9050828152602081018484840111156200030c576200030b620001da565b5b62000319848285620002aa565b509392505050565b600082601f830112620003395762000338620001d5565b5b81516200034b848260208601620002d6565b91505092915050565b6000806000806080858703121562000371576200037062000166565b5b60006200038187828801620001be565b945050602085015167ffffffffffffffff811115620003a557620003a46200016b565b5b620003b38782880162000321565b935050604085015167ffffffffffffffff811115620003d757620003d66200016b565b5b620003e58782880162000321565b925050606085015167ffffffffffffffff8111156200040957620004086200016b565b5b620004178782880162000321565b91505092959194509250565b600081519050919050565b7f4e487b7100000000000000000000000000000000000000000000000000000000600052602260045260246000fd5b600060028204905060018216806200047657607f821691505b6020821081036200048c576200048b6200042e565b5b50919050565b60008190508160005260206000209050919050565b60006020601f8301049050919050565b600082821b905092915050565b600060088302620004f67fffffffffffffffffffffffffffffffffffffffffffffffffffffffffffffffff82620004b7565b620005028683620004b7565b95508019841693508086168417925050509392505050565b6000819050919050565b6000819050919050565b60006200054f6200054962000543846200051a565b62000524565b6200051a565b9050919050565b6000819050919050565b6200056b836200052e565b620005836200057a8262000556565b848454620004c4565b825550505050565b600090565b6200059a6200058b565b620005a781848462000560565b505050565b5b81811015620005cf57620005c360008262000590565b600181019050620005ad565b5050565b601f8211156200061e57620005e88162000492565b620005f384620004a7565b8101602085101562000603578190505b6200061b6200061285620004a7565b830182620005ac565b50505b505050565b600082821c905092915050565b6000620006436000198460080262000623565b1980831691505092915050565b60006200065e838362000630565b9150826002028217905092915050565b620006798262000423565b67ffffffffffffffff811115620006955762000694620001f0565b5b620006a182546200045d565b620006ae828285620005d3565b600060209050601f831160018114620006e65760008415620006d1578287015190505b620006dd858262000650565b8655506200074d565b601f198416620006f68662000492565b60005b828110156200072057848901518255600182019150602085019450602081019050620006f9565b868310156200074057848901516200073c601f89168262000630565b8355505b6001600288020188555050505b505050505050565b61472280620007656000396000f3fe608060405234801561001057600080fd5b50600436106101165760003560e01c806339ec3c82116100a2578063c4c7ab5a11610071578063c4c7ab5a146102c7578063dc5ab3da146102f9578063de5ab07a14610315578063fc37317914610333578063ffb086d51461035157610116565b806339ec3c821461024f578063760ea2481461026d578063adac594f1461028b578063b5e628ce146102a957610116565b80631ffa92dc116100e95780631ffa92dc146101bd578063203ceaaf146101db57806328841f19146101f75780632e35585a1461021357806339d519cb1461023157610116565b80630b81e9e51461011b5780631234f23b14610139578063189f98231461016d5780631e21d7571461018b575b600080fd5b61012361035b565b6040516101309190613135565b60405180910390f35b610153600480360381019061014e91906131a1565b6103ed565b6040516101649594939291906131dd565b60405180910390f35b61017561067a565b6040516101829190613135565b60405180910390f35b6101a560048036038101906101a091906131a1565b610708565b6040516101b493929190613286565b60405180910390f35b6101c5610782565b6040516101d29190613135565b60405180910390f35b6101f560048036038101906101f091906133f2565b610814565b005b610211600480360381019061020c919061348d565b610a01565b005b61021b610d1a565b60405161022891906136ea565b60405180910390f35b610239610f86565b6040516102469190613135565b60405180910390f35b610257611018565b604051610264919061370c565b60405180910390f35b61027561101d565b604051610282919061370c565b60405180910390f35b610293611023565b6040516102a0919061370c565b60405180910390f35b6102b1611029565b6040516102be9190613135565b60405180910390f35b6102e160048036038101906102dc91906131a1565b6110b7565b6040516102f0939291906137cd565b60405180910390f35b610313600480360381019061030e919061380b565b6112dc565b005b61031d6113f6565b60405161032a9190613967565b60405180910390f35b61033b61150b565b6040516103489190613135565b60405180910390f35b610359611599565b005b60606009805461036a906139b8565b80601f0160208091040260200160405190810160405280929190818152602001828054610396906139b8565b80156103e35780601f106103b8576101008083540402835291602001916103e3565b820191906000526020600020905b8154815290600101906020018083116103c657829003601f168201915b5050505050905090565b6000806060806060600560009054906101000a900460ff1615610445576040517f08c379a000000000000000000000000000000000000000000000000000000000815260040161043c90613a5b565b60405180910390fd5b60006006878154811061045b5761045a613a7b565b5b90600052602060002090600802016001016040518060c0016040529081600082018054610487906139b8565b80601f01602080910402602001604051908101604052809291908181526020018280546104b3906139b8565b80156105005780601f106104d557610100808354040283529160200191610500565b820191906000526020600020905b8154815290600101906020018083116104e357829003601f168201915b50505050508152602001600182015481526020016002820154815260200160038201805461052d906139b8565b80601f0160208091040260200160405190810160405280929190818152602001828054610559906139b8565b80156105a65780601f1061057b576101008083540402835291602001916105a6565b820191906000526020600020905b81548152906001019060200180831161058957829003601f168201915b505050505081526020016004820180546105bf906139b8565b80601f01602080910402602001604051908101604052809291908181526020018280546105eb906139b8565b80156106385780601f1061060d57610100808354040283529160200191610638565b820191906000526020600020905b81548152906001019060200180831161061b57829003601f168201915b50505050508152602001600582015481525050905080602001518160400151826080015183606001518460000151955095509550955095505091939590929450565b600a8054610687906139b8565b80601f01602080910402602001604051908101604052809291908181526020018280546106b3906139b8565b80156107005780601f106106d557610100808354040283529160200191610700565b820191906000526020600020905b8154815290600101906020018083116106e357829003601f168201915b505050505081565b6007818154811061071857600080fd5b90600052602060002090600302016000915090508060000154908060010160009054906101000a900473ffffffffffffffffffffffffffffffffffffffff16908060020160009054906101000a900473ffffffffffffffffffffffffffffffffffffffff16905083565b6060600a8054610791906139b8565b80601f01602080910402602001604051908101604052809291908181526020018280546107bd906139b8565b801561080a5780601f106107df5761010080835404028352916020019161080a565b820191906000526020600020905b8154815290600101906020018083116107ed57829003601f168201915b5050505050905090565b600260009054906101000a900473ffffffffffffffffffffffffffffffffffffffff1673ffffffffffffffffffffffffffffffffffffffff163373ffffffffffffffffffffffffffffffffffffffff16146108a4576040517f08c379a000000000000000000000000000000000000000000000000000000000815260040161089b90613b1c565b60405180910390fd5b600560009054906101000a900460ff16156108f4576040517f08c379a00000000000000000000000000000000000000000000000000000000081526004016108eb90613a5b565b60405180910390fd5b806006848154811061090957610908613a7b565b5b906000526020600020906008020160010160030190816109299190613ce8565b50816006848154811061093f5761093e613a7b565b5b90600052602060002090600802016001016005018190555061096083611710565b156109f15760006001830361099f576006848154811061098357610982613a7b565b5b90600052602060002090600802016001016001015490506109cb565b600684815481106109b3576109b2613a7b565b5b90600052602060002090600802016001016002015490505b60006109d682611798565b90506109ea8160200151826040015161192d565b50506109fc565b6109fb82846119e8565b5b505050565b600160009054906101000a900473ffffffffffffffffffffffffffffffffffffffff1673ffffffffffffffffffffffffffffffffffffffff163373ffffffffffffffffffffffffffffffffffffffff1614610a91576040517f08c379a0000000000000000000000000000000000000000000000000000000008152600401610a8890613e2c565b60405180910390fd5b602060035410610ad6576040517f08c379a0000000000000000000000000000000000000000000000000000000008152600401610acd90613e98565b60405180910390fd5b600560009054906101000a900460ff16610b25576040517f08c379a0000000000000000000000000000000000000000000000000000000008152600401610b1c90613f2a565b60405180910390fd5b8073ffffffffffffffffffffffffffffffffffffffff168273ffffffffffffffffffffffffffffffffffffffff1603610b93576040517f08c379a0000000000000000000000000000000000000000000000000000000008152600401610b8a90613fbc565b60405180910390fd5b610b9d8282611cc4565b15610bdd576040517f08c379a0000000000000000000000000000000000000000000000000000000008152600401610bd49061404e565b60405180910390fd5b6007604051806060016040528060035481526020018473ffffffffffffffffffffffffffffffffffffffff1681526020018373ffffffffffffffffffffffffffffffffffffffff1681525090806001815401808255809150506001900390600052602060002090600302016000909190919091506000820151816000015560208201518160010160006101000a81548173ffffffffffffffffffffffffffffffffffffffff021916908373ffffffffffffffffffffffffffffffffffffffff16021790555060408201518160020160006101000a81548173ffffffffffffffffffffffffffffffffffffffff021916908373ffffffffffffffffffffffffffffffffffffffff160217905550505060036000815480929190610cfe9061409d565b9190505550602060035403610d1657610d15611599565b5b5050565b60606006805480602002602001604051908101604052809291908181526020016000905b82821015610f7d578382906000526020600020906008020160405180606001604052908160008201548152602001600182016040518060c0016040529081600082018054610d8b906139b8565b80601f0160208091040260200160405190810160405280929190818152602001828054610db7906139b8565b8015610e045780601f10610dd957610100808354040283529160200191610e04565b820191906000526020600020905b815481529060010190602001808311610de757829003601f168201915b505050505081526020016001820154815260200160028201548152602001600382018054610e31906139b8565b80601f0160208091040260200160405190810160405280929190818152602001828054610e5d906139b8565b8015610eaa5780601f10610e7f57610100808354040283529160200191610eaa565b820191906000526020600020905b815481529060010190602001808311610e8d57829003601f168201915b50505050508152602001600482018054610ec3906139b8565b80601f0160208091040260200160405190810160405280929190818152602001828054610eef906139b8565b8015610f3c5780601f10610f1157610100808354040283529160200191610f3c565b820191906000526020600020905b815481529060010190602001808311610f1f57829003601f168201915b5050505050815260200160058201548152505081526020016007820160009054906101000a900460ff16151515158152505081526020019060010190610d3e565b50505050905090565b606060088054610f95906139b8565b80601f0160208091040260200160405190810160405280929190818152602001828054610fc1906139b8565b801561100e5780601f10610fe35761010080835404028352916020019161100e565b820191906000526020600020905b815481529060010190602001808311610ff157829003601f168201915b5050505050905090565b602081565b60035481565b60045481565b60088054611036906139b8565b80601f0160208091040260200160405190810160405280929190818152602001828054611062906139b8565b80156110af5780601f10611084576101008083540402835291602001916110af565b820191906000526020600020905b81548152906001019060200180831161109257829003601f168201915b505050505081565b600681815481106110c757600080fd5b9060005260206000209060080201600091509050806000015490806001016040518060c0016040529081600082018054611100906139b8565b80601f016020809104026020016040519081016040528092919081815260200182805461112c906139b8565b80156111795780601f1061114e57610100808354040283529160200191611179565b820191906000526020600020905b81548152906001019060200180831161115c57829003601f168201915b5050505050815260200160018201548152602001600282015481526020016003820180546111a6906139b8565b80601f01602080910402602001604051908101604052809291908181526020018280546111d2906139b8565b801561121f5780601f106111f45761010080835404028352916020019161121f565b820191906000526020600020905b81548152906001019060200180831161120257829003601f168201915b50505050508152602001600482018054611238906139b8565b80601f0160208091040260200160405190810160405280929190818152602001828054611264906139b8565b80156112b15780601f10611286576101008083540402835291602001916112b1565b820191906000526020600020905b81548152906001019060200180831161129457829003601f168201915b50505050508152602001600582015481525050908060070160009054906101000a900460ff16905083565b600260009054906101000a900473ffffffffffffffffffffffffffffffffffffffff1673ffffffffffffffffffffffffffffffffffffffff163373ffffffffffffffffffffffffffffffffffffffff161461136c576040517f08c379a000000000000000000000000000000000000000000000000000000000815260040161136390613b1c565b60405180910390fd5b600560009054906101000a900460ff16156113bc576040517f08c379a00000000000000000000000000000000000000000000000000000000081526004016113b390613a5b565b60405180910390fd5b80600683815481106113d1576113d0613a7b565b5b906000526020600020906008020160010160040190816113f19190613ce8565b505050565b60606007805480602002602001604051908101604052809291908181526020016000905b828210156115025783829060005260206000209060030201604051806060016040529081600082015481526020016001820160009054906101000a900473ffffffffffffffffffffffffffffffffffffffff1673ffffffffffffffffffffffffffffffffffffffff1673ffffffffffffffffffffffffffffffffffffffff1681526020016002820160009054906101000a900473ffffffffffffffffffffffffffffffffffffffff1673ffffffffffffffffffffffffffffffffffffffff1673ffffffffffffffffffffffffffffffffffffffff16815250508152602001906001019061141a565b50505050905090565b60098054611518906139b8565b80601f0160208091040260200160405190810160405280929190818152602001828054611544906139b8565b80156115915780601f1061156657610100808354040283529160200191611591565b820191906000526020600020905b81548152906001019060200180831161157457829003601f168201915b505050505081565b600260009054906101000a900473ffffffffffffffffffffffffffffffffffffffff1673ffffffffffffffffffffffffffffffffffffffff163373ffffffffffffffffffffffffffffffffffffffff1614611629576040517f08c379a000000000000000000000000000000000000000000000000000000000815260040161162090613b1c565b60405180910390fd5b600560009054906101000a900460ff16611678576040517f08c379a000000000000000000000000000000000000000000000000000000000815260040161166f90614157565b60405180910390fd5b6001600354116116bd576040517f08c379a00000000000000000000000000000000000000000000000000000000081526004016116b4906141e9565b60405180910390fd5b6000600560006101000a81548160ff0219169083151502179055506116e0611ece565b6116e86120e3565b6116f06123ae565b6116f8612536565b61170061294b565b611708612c19565b600481905550565b6000806006838154811061172757611726613a7b565b5b906000526020600020906008020160010160000160405160200161174b9190614297565b6040516020818303038152906040528051906020012090506000604051602001611774906142fa565b60405160208183030381529060405280519060200120905080821492505050919050565b6117a0613058565b60005b6007805490508110156118da5782600782815481106117c5576117c4613a7b565b5b906000526020600020906003020160000154036118c757600781815481106117f0576117ef613a7b565b5b9060005260206000209060030201604051806060016040529081600082015481526020016001820160009054906101000a900473ffffffffffffffffffffffffffffffffffffffff1673ffffffffffffffffffffffffffffffffffffffff1673ffffffffffffffffffffffffffffffffffffffff1681526020016002820160009054906101000a900473ffffffffffffffffffffffffffffffffffffffff1673ffffffffffffffffffffffffffffffffffffffff1673ffffffffffffffffffffffffffffffffffffffff1681525050915050611928565b80806118d29061409d565b9150506117a3565b50604051806060016040528060008152602001600073ffffffffffffffffffffffffffffffffffffffff168152602001600073ffffffffffffffffffffffffffffffffffffffff1681525090505b919050565b60008054906101000a900473ffffffffffffffffffffffffffffffffffffffff1673ffffffffffffffffffffffffffffffffffffffff1663f31a038c600260009054906101000a900473ffffffffffffffffffffffffffffffffffffffff168484601e60146040518663ffffffff1660e01b81526004016119b2959493929190614385565b600060405180830381600087803b1580156119cc57600080fd5b505af11580156119e0573d6000803e3d6000fd5b505050505050565b6000600682815481106119fe576119fd613a7b565b5b906000526020600020906008020160405180606001604052908160008201548152602001600182016040518060c0016040529081600082018054611a41906139b8565b80601f0160208091040260200160405190810160405280929190818152602001828054611a6d906139b8565b8015611aba5780601f10611a8f57610100808354040283529160200191611aba565b820191906000526020600020905b815481529060010190602001808311611a9d57829003601f168201915b505050505081526020016001820154815260200160028201548152602001600382018054611ae7906139b8565b80601f0160208091040260200160405190810160405280929190818152602001828054611b13906139b8565b8015611b605780601f10611b3557610100808354040283529160200191611b60565b820191906000526020600020905b815481529060010190602001808311611b4357829003601f168201915b50505050508152602001600482018054611b79906139b8565b80601f0160208091040260200160405190810160405280929190818152602001828054611ba5906139b8565b8015611bf25780601f10611bc757610100808354040283529160200191611bf2565b820191906000526020600020905b815481529060010190602001808311611bd557829003601f168201915b5050505050815260200160058201548152505081526020016007820160009054906101000a900460ff1615151515815250509050600060018403611c40578160200151602001519050611c4c565b81602001516040015190505b816040015115611c8c57806006836000015181548110611c6f57611c6e613a7b565b5b906000526020600020906008020160010160010181905550611cbe565b806006836000015181548110611ca557611ca4613a7b565b5b9060005260206000209060080201600101600201819055505b50505050565b600080600090505b600354811015611ec257600060078281548110611cec57611ceb613a7b565b5b9060005260206000209060030201604051806060016040529081600082015481526020016001820160009054906101000a900473ffffffffffffffffffffffffffffffffffffffff1673ffffffffffffffffffffffffffffffffffffffff1673ffffffffffffffffffffffffffffffffffffffff1681526020016002820160009054906101000a900473ffffffffffffffffffffffffffffffffffffffff1673ffffffffffffffffffffffffffffffffffffffff1673ffffffffffffffffffffffffffffffffffffffff168152505090508473ffffffffffffffffffffffffffffffffffffffff16816020015173ffffffffffffffffffffffffffffffffffffffff161480611e2a57508373ffffffffffffffffffffffffffffffffffffffff16816020015173ffffffffffffffffffffffffffffffffffffffff16145b80611e6457508473ffffffffffffffffffffffffffffffffffffffff16816040015173ffffffffffffffffffffffffffffffffffffffff16145b80611e9e57508373ffffffffffffffffffffffffffffffffffffffff16816040015173ffffffffffffffffffffffffffffffffffffffff16145b15611eae57600192505050611ec8565b508080611eba9061409d565b915050611ccc565b50600090505b92915050565b6000611edb600354612c66565b90506000808290505b60008111156120de576000611f04600183611eff91906143d8565b612ca8565b83611f0f919061440c565b9250600083905060006001905060005b611f34600186611f2f91906143d8565b612ca8565b8110156120c75760028403611f56578280611f4e9061409d565b935050600093505b60006040518060c00160405280611f78600189611f7391906143d8565b612d09565b815260200160228152602001602281526020016040518060200160405280600081525081526020016040518060200160405280600081525081526020016000815250905060006040518060600160405280868152602001838152602001851515815250905060068190806001815401808255809150506001900390600052602060002090600802016000909190919091506000820151816000015560208201518160010160008201518160000190816120319190613ce8565b506020820151816001015560408201518160020155606082015181600301908161205b9190613ce8565b5060808201518160040190816120719190613ce8565b5060a08201518160050155505060408201518160070160006101000a81548160ff02191690831515021790555050508315935085806120af9061409d565b965050505080806120bf9061409d565b915050611f1f565b5050505080806120d690614440565b915050611ee4565b505050565b60006007805480602002602001604051908101604052809291908181526020016000905b828210156121ef5783829060005260206000209060030201604051806060016040529081600082015481526020016001820160009054906101000a900473ffffffffffffffffffffffffffffffffffffffff1673ffffffffffffffffffffffffffffffffffffffff1673ffffffffffffffffffffffffffffffffffffffff1681526020016002820160009054906101000a900473ffffffffffffffffffffffffffffffffffffffff1673ffffffffffffffffffffffffffffffffffffffff1673ffffffffffffffffffffffffffffffffffffffff168152505081526020019060010190612107565b505050509050600060078054905090505b60008111156122ae57808061221490614440565b915050600061222e600183612229919061440c565b612e7c565b9050600083828151811061224557612244613a7b565b5b6020026020010151905083838151811061226257612261613a7b565b5b602002602001015184838151811061227d5761227c613a7b565b5b60200260200101819052508084848151811061229c5761229b613a7b565b5b60200260200101819052505050612200565b60005b6007805490508110156123a9578281815181106122d1576122d0613a7b565b5b6020026020010151600782815481106122ed576122ec613a7b565b5b90600052602060002090600302016000820151816000015560208201518160010160006101000a81548173ffffffffffffffffffffffffffffffffffffffff021916908373ffffffffffffffffffffffffffffffffffffffff16021790555060408201518160020160006101000a81548173ffffffffffffffffffffffffffffffffffffffff021916908373ffffffffffffffffffffffffffffffffffffffff16021790555090505080806123a19061409d565b9150506122b1565b505050565b60006123cf60016123c0600354612c66565b6123ca91906143d8565b612ca8565b905060005b81811015612508576000600782815481106123f2576123f1613a7b565b5b9060005260206000209060030201604051806060016040529081600082015481526020016001820160009054906101000a900473ffffffffffffffffffffffffffffffffffffffff1673ffffffffffffffffffffffffffffffffffffffff1673ffffffffffffffffffffffffffffffffffffffff1681526020016002820160009054906101000a900473ffffffffffffffffffffffffffffffffffffffff1673ffffffffffffffffffffffffffffffffffffffff1673ffffffffffffffffffffffffffffffffffffffff168152505090508060000151600683815481106124dc576124db613a7b565b5b9060005260206000209060080201600101600101819055505080806125009061409d565b9150506123d4565b506125286001612519600354612c66565b61252391906143d8565b612ca8565b905061253381612ebe565b50565b60006125576001612548600354612c66565b61255291906143d8565b612ca8565b9050600060018261256891906143d8565b90505b6000811115612947576000600182612583919061440c565b423384604051602001612598939291906144d2565b6040516020818303038152906040528051906020012060001c6125bb919061453e565b90506000600683815481106125d3576125d2613a7b565b5b906000526020600020906008020160405180606001604052908160008201548152602001600182016040518060c0016040529081600082018054612616906139b8565b80601f0160208091040260200160405190810160405280929190818152602001828054612642906139b8565b801561268f5780601f106126645761010080835404028352916020019161268f565b820191906000526020600020905b81548152906001019060200180831161267257829003601f168201915b5050505050815260200160018201548152602001600282015481526020016003820180546126bc906139b8565b80601f01602080910402602001604051908101604052809291908181526020018280546126e8906139b8565b80156127355780601f1061270a57610100808354040283529160200191612735565b820191906000526020600020905b81548152906001019060200180831161271857829003601f168201915b5050505050815260200160048201805461274e906139b8565b80601f016020809104026020016040519081016040528092919081815260200182805461277a906139b8565b80156127c75780601f1061279c576101008083540402835291602001916127c7565b820191906000526020600020905b8154815290600101906020018083116127aa57829003601f168201915b5050505050815260200160058201548152505081526020016007820160009054906101000a900460ff16151515158152505090506006828154811061280f5761280e613a7b565b5b90600052602060002090600802016001016006848154811061283457612833613a7b565b5b9060005260206000209060080201600101600082018160000190816128599190614585565b506001820154816001015560028201548160020155600382018160030190816128829190614585565b50600482018160040190816128979190614585565b50600582015481600501559050508060200151600683815481106128be576128bd613a7b565b5b906000526020600020906008020160010160008201518160000190816128e49190613ce8565b506020820151816001015560408201518160020155606082015181600301908161290e9190613ce8565b5060808201518160040190816129249190613ce8565b5060a082015181600501559050505050808061293f90614440565b91505061256b565b5050565b600061296c600161295d600354612c66565b61296791906143d8565b612ca8565b905060005b81811015612c155760006006828154811061298f5761298e613a7b565b5b906000526020600020906008020160405180606001604052908160008201548152602001600182016040518060c00160405290816000820180546129d2906139b8565b80601f01602080910402602001604051908101604052809291908181526020018280546129fe906139b8565b8015612a4b5780601f10612a2057610100808354040283529160200191612a4b565b820191906000526020600020905b815481529060010190602001808311612a2e57829003601f168201915b505050505081526020016001820154815260200160028201548152602001600382018054612a78906139b8565b80601f0160208091040260200160405190810160405280929190818152602001828054612aa4906139b8565b8015612af15780601f10612ac657610100808354040283529160200191612af1565b820191906000526020600020905b815481529060010190602001808311612ad457829003601f168201915b50505050508152602001600482018054612b0a906139b8565b80601f0160208091040260200160405190810160405280929190818152602001828054612b36906139b8565b8015612b835780601f10612b5857610100808354040283529160200191612b83565b820191906000526020600020905b815481529060010190602001808311612b6657829003601f168201915b5050505050815260200160058201548152505081526020016007820160009054906101000a900460ff1615151515815250509050602281602001516040015103612c0157600160068381548110612bdd57612bdc613a7b565b5b906000526020600020906008020160010160050181905550612c006001836119e8565b5b508080612c0d9061409d565b915050612971565b5050565b6000806000905060005b612c2e600354612c66565b811015612c5e57612c3e81612ca8565b82612c49919061440c565b91508080612c569061409d565b915050612c23565b508091505090565b600080600090506000600190505b83811015612c9e57600281612c89919061466d565b90508180612c969061409d565b925050612c74565b8192505050919050565b600060048203612cbb5760109050612d04565b60038203612ccc5760089050612d04565b60028203612cdd5760049050612d04565b60018203612cee5760029050612d04565b60008203612cff5760019050612d04565b600090505b919050565b606060048203612d50576040518060400160405280600d81526020017f44696563697365697361766f73000000000000000000000000000000000000008152509050612e77565b60038203612d95576040518060400160405280600781526020017f4f637461766f73000000000000000000000000000000000000000000000000008152509050612e77565b60028203612dda576040518060400160405280600781526020017f43756172746f73000000000000000000000000000000000000000000000000008152509050612e77565b60018203612e1f576040518060400160405280600981526020017f53656d6966696e616c00000000000000000000000000000000000000000000008152509050612e77565b60008203612e64576040518060400160405280600581526020017f46696e616c0000000000000000000000000000000000000000000000000000008152509050612e77565b6040518060200160405280600081525090505b919050565b600081424433604051602001612e94939291906146af565b6040516020818303038152906040528051906020012060001c612eb7919061453e565b9050919050565b600081905060008190505b60035481101561305357600060078281548110612ee957612ee8613a7b565b5b9060005260206000209060030201604051806060016040529081600082015481526020016001820160009054906101000a900473ffffffffffffffffffffffffffffffffffffffff1673ffffffffffffffffffffffffffffffffffffffff1673ffffffffffffffffffffffffffffffffffffffff1681526020016002820160009054906101000a900473ffffffffffffffffffffffffffffffffffffffff1673ffffffffffffffffffffffffffffffffffffffff1673ffffffffffffffffffffffffffffffffffffffff1681525050905060005b8481101561303e57602260068281548110612fdb57612fda613a7b565b5b9060005260206000209060080201600101600201540361302b5781600001516006828154811061300e5761300d613a7b565b5b90600052602060002090600802016001016002018190555061303e565b80806130369061409d565b915050612fbd565b5050808061304b9061409d565b915050612ec9565b505050565b604051806060016040528060008152602001600073ffffffffffffffffffffffffffffffffffffffff168152602001600073ffffffffffffffffffffffffffffffffffffffff1681525090565b600081519050919050565b600082825260208201905092915050565b60005b838110156130df5780820151818401526020810190506130c4565b60008484015250505050565b6000601f19601f8301169050919050565b6000613107826130a5565b61311181856130b0565b93506131218185602086016130c1565b61312a816130eb565b840191505092915050565b6000602082019050818103600083015261314f81846130fc565b905092915050565b6000604051905090565b600080fd5b600080fd5b6000819050919050565b61317e8161316b565b811461318957600080fd5b50565b60008135905061319b81613175565b92915050565b6000602082840312156131b7576131b6613161565b5b60006131c58482850161318c565b91505092915050565b6131d78161316b565b82525050565b600060a0820190506131f260008301886131ce565b6131ff60208301876131ce565b818103604083015261321181866130fc565b9050818103606083015261322581856130fc565b9050818103608083015261323981846130fc565b90509695505050505050565b600073ffffffffffffffffffffffffffffffffffffffff82169050919050565b600061327082613245565b9050919050565b61328081613265565b82525050565b600060608201905061329b60008301866131ce565b6132a86020830185613277565b6132b56040830184613277565b949350505050565b600080fd5b600080fd5b7f4e487b7100000000000000000000000000000000000000000000000000000000600052604160045260246000fd5b6132ff826130eb565b810181811067ffffffffffffffff8211171561331e5761331d6132c7565b5b80604052505050565b6000613331613157565b905061333d82826132f6565b919050565b600067ffffffffffffffff82111561335d5761335c6132c7565b5b613366826130eb565b9050602081019050919050565b82818337600083830152505050565b600061339561339084613342565b613327565b9050828152602081018484840111156133b1576133b06132c2565b5b6133bc848285613373565b509392505050565b600082601f8301126133d9576133d86132bd565b5b81356133e9848260208601613382565b91505092915050565b60008060006060848603121561340b5761340a613161565b5b60006134198682870161318c565b935050602061342a8682870161318c565b925050604084013567ffffffffffffffff81111561344b5761344a613166565b5b613457868287016133c4565b9150509250925092565b61346a81613265565b811461347557600080fd5b50565b60008135905061348781613461565b92915050565b600080604083850312156134a4576134a3613161565b5b60006134b285828601613478565b92505060206134c385828601613478565b9150509250929050565b600081519050919050565b600082825260208201905092915050565b6000819050602082019050919050565b6135028161316b565b82525050565b600082825260208201905092915050565b6000613524826130a5565b61352e8185613508565b935061353e8185602086016130c1565b613547816130eb565b840191505092915050565b600060c083016000830151848203600086015261356f8282613519565b915050602083015161358460208601826134f9565b50604083015161359760408601826134f9565b50606083015184820360608601526135af8282613519565b915050608083015184820360808601526135c98282613519565b91505060a08301516135de60a08601826134f9565b508091505092915050565b60008115159050919050565b6135fe816135e9565b82525050565b600060608301600083015161361c60008601826134f9565b50602083015184820360208601526136348282613552565b915050604083015161364960408601826135f5565b508091505092915050565b60006136608383613604565b905092915050565b6000602082019050919050565b6000613680826134cd565b61368a81856134d8565b93508360208202850161369c856134e9565b8060005b858110156136d857848403895281516136b98582613654565b94506136c483613668565b925060208a019950506001810190506136a0565b50829750879550505050505092915050565b600060208201905081810360008301526137048184613675565b905092915050565b600060208201905061372160008301846131ce565b92915050565b600060c08301600083015184820360008601526137448282613519565b915050602083015161375960208601826134f9565b50604083015161376c60408601826134f9565b50606083015184820360608601526137848282613519565b9150506080830151848203608086015261379e8282613519565b91505060a08301516137b360a08601826134f9565b508091505092915050565b6137c7816135e9565b82525050565b60006060820190506137e260008301866131ce565b81810360208301526137f48185613727565b905061380360408301846137be565b949350505050565b6000806040838503121561382257613821613161565b5b60006138308582860161318c565b925050602083013567ffffffffffffffff81111561385157613850613166565b5b61385d858286016133c4565b9150509250929050565b600081519050919050565b600082825260208201905092915050565b6000819050602082019050919050565b61389c81613265565b82525050565b6060820160008201516138b860008501826134f9565b5060208201516138cb6020850182613893565b5060408201516138de6040850182613893565b50505050565b60006138f083836138a2565b60608301905092915050565b6000602082019050919050565b600061391482613867565b61391e8185613872565b935061392983613883565b8060005b8381101561395a57815161394188826138e4565b975061394c836138fc565b92505060018101905061392d565b5085935050505092915050565b600060208201905081810360008301526139818184613909565b905092915050565b7f4e487b7100000000000000000000000000000000000000000000000000000000600052602260045260246000fd5b600060028204905060018216806139d057607f821691505b6020821081036139e3576139e2613989565b5b50919050565b7f41756e206e6f2073652068616e2067656e657261646f206c617320706172746960008201527f6461730000000000000000000000000000000000000000000000000000000000602082015250565b6000613a456023836130b0565b9150613a50826139e9565b604082019050919050565b60006020820190508181036000830152613a7481613a38565b9050919050565b7f4e487b7100000000000000000000000000000000000000000000000000000000600052603260045260246000fd5b7f4e6f207469656e6573207065726d69736f732064652061646d696e697374726160008201527f646f720000000000000000000000000000000000000000000000000000000000602082015250565b6000613b066023836130b0565b9150613b1182613aaa565b604082019050919050565b60006020820190508181036000830152613b3581613af9565b9050919050565b60008190508160005260206000209050919050565b60006020601f8301049050919050565b600082821b905092915050565b600060088302613b9e7fffffffffffffffffffffffffffffffffffffffffffffffffffffffffffffffff82613b61565b613ba88683613b61565b95508019841693508086168417925050509392505050565b6000819050919050565b6000613be5613be0613bdb8461316b565b613bc0565b61316b565b9050919050565b6000819050919050565b613bff83613bca565b613c13613c0b82613bec565b848454613b6e565b825550505050565b600090565b613c28613c1b565b613c33818484613bf6565b505050565b5b81811015613c5757613c4c600082613c20565b600181019050613c39565b5050565b601f821115613c9c57613c6d81613b3c565b613c7684613b51565b81016020851015613c85578190505b613c99613c9185613b51565b830182613c38565b50505b505050565b600082821c905092915050565b6000613cbf60001984600802613ca1565b1980831691505092915050565b6000613cd88383613cae565b9150826002028217905092915050565b613cf1826130a5565b67ffffffffffffffff811115613d0a57613d096132c7565b5b613d1482546139b8565b613d1f828285613c5b565b600060209050601f831160018114613d525760008415613d40578287015190505b613d4a8582613ccc565b865550613db2565b601f198416613d6086613b3c565b60005b82811015613d8857848901518255600182019150602085019450602081019050613d63565b86831015613da55784890151613da1601f891682613cae565b8355505b6001600288020188555050505b505050505050565b7f4465626573207265616c697a617220656c207061676f20616e7465732064652060008201527f696e736372696269727465000000000000000000000000000000000000000000602082015250565b6000613e16602b836130b0565b9150613e2182613dba565b604082019050919050565b60006020820190508181036000830152613e4581613e09565b9050919050565b7f456c20746f726e656f206573746120636f6d706c65746f000000000000000000600082015250565b6000613e826017836130b0565b9150613e8d82613e4c565b602082019050919050565b60006020820190508181036000830152613eb181613e75565b9050919050565b7f4c61206661736520646520696e736372697063696f6e206861207369646f206360008201527f6572726164610000000000000000000000000000000000000000000000000000602082015250565b6000613f146026836130b0565b9150613f1f82613eb8565b604082019050919050565b60006020820190508181036000830152613f4381613f07565b9050919050565b7f4e6f20736520707565646520696e7363726962697220616c206d69736d6f206a60008201527f756761646f7220656e20756e206d69736d6f2065717569706f00000000000000602082015250565b6000613fa66039836130b0565b9150613fb182613f4a565b604082019050919050565b60006020820190508181036000830152613fd581613f99565b9050919050565b7f416c67756e6f206465206c6f73206a756761646f72657320796120657374612060008201527f696e73637269746f20656e206f74726f2065717569706f000000000000000000602082015250565b60006140386037836130b0565b915061404382613fdc565b604082019050919050565b600060208201905081810360008301526140678161402b565b9050919050565b7f4e487b7100000000000000000000000000000000000000000000000000000000600052601160045260246000fd5b60006140a88261316b565b91507fffffffffffffffffffffffffffffffffffffffffffffffffffffffffffffffff82036140da576140d961406e565b5b600182019050919050565b7f59612073652068616e206365727261646f20696e736372697063696f6e65732060008201527f616e746572696f726d656e746500000000000000000000000000000000000000602082015250565b6000614141602d836130b0565b915061414c826140e5565b604082019050919050565b6000602082019050818103600083015261417081614134565b9050919050565b7f5365206e6563657369746120616c206d656e6f7320322065717569706f73207060008201527f6172612063657272617220696e736372697063696f6e65730000000000000000602082015250565b60006141d36038836130b0565b91506141de82614177565b604082019050919050565b60006020820190508181036000830152614202816141c6565b9050919050565b600081905092915050565b60008154614221816139b8565b61422b8186614209565b94506001821660008114614246576001811461425b5761428e565b60ff198316865281151582028601935061428e565b61426485613b3c565b60005b8381101561428657815481890152600182019150602081019050614267565b838801955050505b50505092915050565b60006142a38284614214565b915081905092915050565b7f46696e616c000000000000000000000000000000000000000000000000000000600082015250565b60006142e4600583614209565b91506142ef826142ae565b600582019050919050565b6000614305826142d7565b9150819050919050565b6000819050919050565b600061433461432f61432a8461430f565b613bc0565b61316b565b9050919050565b61434481614319565b82525050565b6000819050919050565b600061436f61436a6143658461434a565b613bc0565b61316b565b9050919050565b61437f81614354565b82525050565b600060a08201905061439a6000830188613277565b6143a76020830187613277565b6143b46040830186613277565b6143c1606083018561433b565b6143ce6080830184614376565b9695505050505050565b60006143e38261316b565b91506143ee8361316b565b92508282039050818111156144065761440561406e565b5b92915050565b60006144178261316b565b91506144228361316b565b925082820190508082111561443a5761443961406e565b5b92915050565b600061444b8261316b565b91506000820361445e5761445d61406e565b5b600182039050919050565b6000819050919050565b61448461447f8261316b565b614469565b82525050565b60008160601b9050919050565b60006144a28261448a565b9050919050565b60006144b482614497565b9050919050565b6144cc6144c782613265565b6144a9565b82525050565b60006144de8286614473565b6020820191506144ee82856144bb565b6014820191506144fe8284614473565b602082019150819050949350505050565b7f4e487b7100000000000000000000000000000000000000000000000000000000600052601260045260246000fd5b60006145498261316b565b91506145548361316b565b9250826145645761456361450f565b5b828206905092915050565b60008154905061457e816139b8565b9050919050565b81810361459357505061466b565b61459c8261456f565b67ffffffffffffffff8111156145b5576145b46132c7565b5b6145bf82546139b8565b6145ca828285613c5b565b6000601f8311600181146145f957600084156145e7578287015490505b6145f18582613ccc565b865550614664565b601f19841661460787613b3c565b965061461286613b3c565b60005b8281101561463a57848901548255600182019150600185019450602081019050614615565b868310156146575784890154614653601f891682613cae565b8355505b6001600288020188555050505b5050505050505b565b60006146788261316b565b91506146838361316b565b92508282026146918161316b565b915082820484148315176146a8576146a761406e565b5b5092915050565b60006146bb8286614473565b6020820191506146cb8285614473565b6020820191506146db82846144bb565b60148201915081905094935050505056fea264697066735822122050f15ba8bb1db40f1ad9320c932128528b048df5d740295de2560c3d042cf70a64736f6c63430008130033",
  "immutableReferences": {},
  "source": "// SPDX-License-Identifier: GPL-3.0\r\npragma solidity ^0.8.19;\r\n\r\nimport \"./PadelToken.sol\";\r\n\r\ncontract Torneo {\r\n\r\n    PadelToken private padelToken;\r\n\r\n    address private tokenContract;\r\n\r\n    uint256 public constant MAX_EQUIPOS = 32;\r\n\r\n    uint constant BYE_ID = 34;\r\n\r\n    address creador;\r\n\r\n    struct Partida {\r\n        string ronda;\r\n        uint equipo1Id;\r\n        uint equipo2Id;\r\n        string resultado;\r\n        string horario;\r\n        uint ganador; // 0=ninguno, 1=equipo1, 2=equipo2\r\n    }\r\n\r\n    struct NodoCuadro {\r\n        uint proximaPartidaId;\r\n        Partida partida;\r\n        bool cuadroArriba;\r\n    }\r\n\r\n    struct Equipo {\r\n        uint equipoId;\r\n        address jugador1;\r\n        address jugador2;\r\n    }\r\n\r\n    uint public numeroEquipos;\r\n    uint public totalPartidas;\r\n    bool faseInscripcion;\r\n\r\n    NodoCuadro[] public partidas;\r\n\r\n    Equipo[] public equipos;\r\n\r\n    string public nombreTorneo;\r\n\r\n    string public fechaInicio;\r\n\r\n    string public fechaFin;\r\n\r\n    constructor(address _tokenContract, string memory _nombreTorneo, string memory _fechaInicio, string memory _fechaFin) {\r\n        totalPartidas = 0;\r\n        faseInscripcion = true;\r\n        creador = msg.sender;\r\n        tokenContract = _tokenContract;\r\n        padelToken = PadelToken(_tokenContract);\r\n        nombreTorneo = _nombreTorneo;\r\n        fechaInicio = _fechaInicio;\r\n        fechaFin = _fechaFin;\r\n    }\r\n\r\n    function getFechaInicio() public view returns (string memory) {\r\n        return fechaInicio;\r\n    }\r\n\r\n    function getFechaFin() public view returns (string memory) {\r\n        return fechaFin;\r\n    }\r\n\r\n    function getNombreTorneo() public view returns (string memory) {\r\n        return nombreTorneo;\r\n    }\r\n\r\n    modifier onlyOwner() {\r\n        require(msg.sender == creador, \"No tienes permisos de administrador\");\r\n        _;\r\n    }\r\n\r\n    function equiposByPartida(uint numPartida) public view returns(uint, uint, string memory, string memory, string memory) {\r\n        require(!faseInscripcion, \"Aun no se han generado las partidas\");\r\n        Partida memory partida = partidas[numPartida].partida;\r\n        return (partida.equipo1Id, partida.equipo2Id, partida.horario, partida.resultado, partida.ronda);\r\n    }\r\n\r\n    function generarEmparejamientos() private {\r\n        uint numPartidosPrimeraRonda = numeroDePartidasByRonda(calcularRondas(numeroEquipos) - 1);\r\n        for(uint i = 0; i < numPartidosPrimeraRonda; i++){\r\n            Equipo memory equipo = equipos[i];\r\n            partidas[i].partida.equipo1Id = equipo.equipoId;\r\n        }\r\n        numPartidosPrimeraRonda = numeroDePartidasByRonda(calcularRondas(numeroEquipos) - 1);\r\n        addEquipos2(numPartidosPrimeraRonda);\r\n    }\r\n\r\n    function addEquipos2(uint numPartidosPrimeraRonda) private {\r\n        uint equipoRestante = numPartidosPrimeraRonda;\r\n        for(uint i = equipoRestante; i < numeroEquipos; i++){\r\n            Equipo memory equipo = equipos[i];\r\n            for(uint j = 0; j < numPartidosPrimeraRonda; j++){\r\n                if (partidas[j].partida.equipo2Id == BYE_ID) {\r\n                    partidas[j].partida.equipo2Id = equipo.equipoId;\r\n                    break;\r\n                }\r\n            }\r\n        }\r\n    }\r\n\r\n    function getEquipos() public view returns (Equipo[] memory) {\r\n        return equipos;\r\n    }\r\n\r\n    function sorteoEquipos() private {\r\n        Equipo[] memory tempArr = equipos;\r\n        uint n = equipos.length;\r\n\r\n        while (n > 0) {\r\n            n--;\r\n            uint randIndex = _random(n + 1);\r\n            Equipo memory temp = tempArr[randIndex];\r\n            tempArr[randIndex] = tempArr[n];\r\n            tempArr[n] = temp;\r\n        }\r\n\r\n        for (uint i = 0; i < equipos.length; i++) {\r\n            equipos[i] = tempArr[i];\r\n        }\r\n    }\r\n\r\n    function _random(uint _max) private view returns (uint) {\r\n        return uint(keccak256(abi.encodePacked(block.timestamp, block.difficulty, msg.sender))) % _max;\r\n    }\r\n\r\n\r\n    function addEquipo(address jugador1, address jugador2) public {\r\n        //probar este require\r\n        require(msg.sender == tokenContract, \"Debes realizar el pago antes de inscribirte\");\r\n        require(numeroEquipos < MAX_EQUIPOS, \"El torneo esta completo\");\r\n        require(faseInscripcion, \"La fase de inscripcion ha sido cerrada\");\r\n        require(jugador1 != jugador2, \"No se puede inscribir al mismo jugador en un mismo equipo\");\r\n        require(!isInscrito(jugador1, jugador2), \"Alguno de los jugadores ya esta inscrito en otro equipo\");\r\n\r\n        equipos.push(Equipo(numeroEquipos, jugador1, jugador2));\r\n        numeroEquipos++;\r\n        if (numeroEquipos == MAX_EQUIPOS) {\r\n            cerrarInscripciones();\r\n        }\r\n    }\r\n\r\n    function cerrarInscripciones() public onlyOwner { \r\n        // probar\r\n        require(faseInscripcion, \"Ya se han cerrado inscripciones anteriormente\");\r\n        require(numeroEquipos > 1, \"Se necesita al menos 2 equipos para cerrar inscripciones\");     \r\n        faseInscripcion = false;\r\n        inicializarPartidas();\r\n        sorteoEquipos();\r\n        generarEmparejamientos();\r\n        mezclarPartidas();\r\n        pasarDeRondaEquiposConBye();\r\n        totalPartidas = calcularTotalPartidas();\r\n    }\r\n\r\n    function pasarDeRondaEquiposConBye() private {\r\n        uint numPartidosPrimeraRonda = numeroDePartidasByRonda(calcularRondas(numeroEquipos) - 1);\r\n\r\n        for(uint i = 0; i < numPartidosPrimeraRonda; i++) {\r\n            NodoCuadro memory nodoCuadro = partidas[i];\r\n            if (nodoCuadro.partida.equipo2Id == BYE_ID) {\r\n                partidas[i].partida.ganador = 1;\r\n                pasarDeRonda(1, i);\r\n            }\r\n        }\r\n\r\n    }\r\n\r\n    function pasarDeRonda(uint numEquipoEnPartida, uint numPartida) private {\r\n        NodoCuadro memory nodoCuadro = partidas[numPartida];\r\n        uint equipoId;\r\n        if (numEquipoEnPartida == 1) {\r\n            equipoId = nodoCuadro.partida.equipo1Id;\r\n        } else {\r\n            equipoId = nodoCuadro.partida.equipo2Id;\r\n        }\r\n\r\n        if (nodoCuadro.cuadroArriba) {\r\n            partidas[nodoCuadro.proximaPartidaId].partida.equipo1Id = equipoId;\r\n        } else {\r\n            partidas[nodoCuadro.proximaPartidaId].partida.equipo2Id = equipoId;\r\n        }\r\n    }\r\n\r\n    function mezclarPartidas() private {\r\n        uint n = numeroDePartidasByRonda(calcularRondas(numeroEquipos) - 1);\r\n\r\n        for (uint i = n - 1; i > 0; i--) {\r\n            uint j = uint(keccak256(abi.encodePacked(block.timestamp, msg.sender, i))) % (i + 1);\r\n            NodoCuadro memory temp = partidas[i];\r\n            partidas[i].partida = partidas[j].partida;\r\n            partidas[j].partida = temp.partida;\r\n        }\r\n    }\r\n\r\n    function inicializarPartidas() private {\r\n        uint numRondas = calcularRondas(numeroEquipos);\r\n        uint nextPartidoSiguienteRonda = 0;\r\n        for(uint i = numRondas; i > 0; i--){\r\n            uint partidaRellenada = 0;\r\n            nextPartidoSiguienteRonda += numeroDePartidasByRonda(i - 1);\r\n            uint siguienteRonda = nextPartidoSiguienteRonda;\r\n            bool cuadroArriba = true;\r\n            for(uint j = 0; j < numeroDePartidasByRonda(i - 1); j++) {   \r\n                if (partidaRellenada == 2) {\r\n                    siguienteRonda++;\r\n                    partidaRellenada = 0;\r\n                }\r\n\r\n                Partida memory partida = Partida(ronda(i - 1), BYE_ID, BYE_ID, \"\", \"\", 0);\r\n                NodoCuadro memory nodoCuadro = NodoCuadro(siguienteRonda, partida, cuadroArriba);\r\n                partidas.push(nodoCuadro);\r\n                cuadroArriba = !cuadroArriba;\r\n                partidaRellenada++;\r\n            }\r\n        }\r\n    }\r\n\r\n    function isInscrito(address jugador1, address jugador2) private view returns (bool) {\r\n        for(uint i = 0; i < numeroEquipos; i++){\r\n            Equipo memory equipo = equipos[i];\r\n            if (equipo.jugador1 == jugador1 || equipo.jugador1 == jugador2\r\n                || equipo.jugador2 == jugador1 || equipo.jugador2 == jugador2){\r\n                return true;\r\n            }\r\n        }\r\n        return false;\r\n    }\r\n    \r\n    function numeroDePartidasByRonda (uint numRronda) private pure returns (uint) {\r\n        if (numRronda == 4) { // dieciseisavos\r\n            return 16;\r\n        } else if (numRronda == 3) { // octavos\r\n            return 8;\r\n        } else if (numRronda == 2) { // cuartos\r\n            return 4;\r\n        } else if (numRronda == 1) { // semis\r\n            return 2;\r\n        } else if (numRronda == 0) { // final\r\n            return 1;\r\n        }\r\n        return 0;\r\n    }\r\n\r\n    function ronda (uint numRonda) private pure returns (string memory) {\r\n        // TODO:probar traduccion\r\n        if (numRonda == 4) { // dieciseisavos\r\n            return \"Dieciseisavos\";\r\n        } else if (numRonda == 3) { // octavos\r\n            return \"Octavos\";\r\n        } else if (numRonda == 2) { // cuartos\r\n            return \"Cuartos\";\r\n        } else if (numRonda == 1) { // semis\r\n            return \"Semifinal\";\r\n        } else if (numRonda == 0) { // final\r\n            return \"Final\";\r\n        }\r\n        return \"\";\r\n    }\r\n\r\n    function isFinal(uint partida) private view returns (bool) {\r\n        bytes32 _ronda = keccak256(abi.encodePacked(partidas[partida].partida.ronda));\r\n        bytes32 _final = keccak256(abi.encodePacked(\"Final\"));\r\n        return _ronda == _final;\r\n    }\r\n\r\n    function calcularRondas(uint _equipos) private pure returns (uint) {\r\n        uint rondas = 0;\r\n        uint potenciaDeDos = 1;\r\n\r\n        while (potenciaDeDos < _equipos) {\r\n            potenciaDeDos *= 2;\r\n            rondas++;\r\n        }\r\n        return rondas;\r\n    }\r\n\r\n    function getPartidas() public view returns (NodoCuadro[] memory) {\r\n        return partidas;\r\n    }\r\n\r\n    function calcularTotalPartidas() private view returns (uint) {\r\n        uint res = 0;\r\n\r\n        for(uint i = 0; i < calcularRondas(numeroEquipos); i++) {\r\n            res += numeroDePartidasByRonda(i);\r\n        }\r\n        \r\n        return res;\r\n    }\r\n\r\n    function setResultado(uint numPartida, uint numEquipoPartidaGanador, string memory _resultado) public onlyOwner {\r\n        require(!faseInscripcion, \"Aun no se han generado las partidas\");\r\n\r\n        partidas[numPartida].partida.resultado = _resultado;\r\n        partidas[numPartida].partida.ganador = numEquipoPartidaGanador;\r\n\r\n\r\n        if(isFinal(numPartida)){\r\n            uint equipoId;\r\n            if(numEquipoPartidaGanador == 1){\r\n                equipoId = partidas[numPartida].partida.equipo1Id;\r\n            } else {\r\n                equipoId = partidas[numPartida].partida.equipo2Id;\r\n            }\r\n            Equipo memory equipoGanador = getEquipo(equipoId);\r\n            distribuirTokens(equipoGanador.jugador1, equipoGanador.jugador2);\r\n        } else {\r\n            pasarDeRonda(numEquipoPartidaGanador, numPartida);\r\n        }\r\n    }\r\n\r\n    function getEquipo(uint _equipoId) private view returns (Equipo memory) {\r\n        for(uint i = 0; i < equipos.length; i++){\r\n            if (equipos[i].equipoId == _equipoId) {\r\n                return equipos[i];\r\n            }\r\n        }\r\n        return Equipo(0,address(0) , address(0));\r\n    }\r\n\r\n    function setHorario(uint numPartida, string memory _horario) public onlyOwner {\r\n        require(!faseInscripcion, \"Aun no se han generado las partidas\");\r\n\r\n        partidas[numPartida].partida.horario = _horario;\r\n    }\r\n\r\n    function distribuirTokens(address jugador1, address jugador2) private {\r\n        padelToken.recompensaTorneo(creador, jugador1, jugador2, 30, 20);\r\n    }\r\n\r\n}\r\n",
  "sourcePath": "C:\\Users\\Coti Hamo\\Desktop\\truffle\\contracts\\Torneo.sol",
  "compiler": {
    "name": "solc",
    "version": "0.8.19+commit.7dd6d404.Emscripten.clang"
  },
  "schemaVersion": "3.4.16",
  "updatedAt": "2024-06-15T11:27:54.293Z",
  "devdoc": {
    "kind": "dev",
    "methods": {},
    "version": 1
  },
  "userdoc": {
    "kind": "user",
    "methods": {},
    "version": 1
  }
}